:020000040000FA
:10000000280A00107D020000810200008302000027
:100010008502000087020000890200000000000045
:100020000000000000000000000000008B02000043
:100030008D020000000000008F020000BD360000AD
:10004000930200009302000093020000930200005C
:10005000930200009302000093020000930200004C
:10006000930200009302000093020000930200003C
:1000700093020000911900003110000001160000E9
:100080009302000093020000B30B0000ED0B000090
:10009000E90F0000550800009302000093020000E1
:1000A00093020000411E0000930200009302000032
:1000B000913F00006B3F0000C93E0000813E000000
:1000C00000F002F800F0AFF80CA030C8083824188F
:1000D0002D18A246671EAB4654465D46AC4201D180
:1000E00000F0A1F87E460F3E0FCCB6460126334203
:1000F00000D0FB1AA246AB4633431847F871000004
:10010000187200000023002400250026103A01D3B5
:1001100078C1FBD8520700D330C100D50B607047BF
:1001200010B56E2902D105F096FB10BD702902D1E1
:1001300004F04BFD10BD662902D106F02DFC10BD68
:10014000652902D106F028FC10BD672902D106F00E
:1001500023FC10BD612902D1C046C04610BD036812
:100160001B0A01D380231943692902D104F0B8FC8A
:1001700010BD642902D104F0B3FC10BD752902D171
:1001800004F0AEFC10BD6F2902D105F063FC10BD78
:10019000782902D104F006FD10BDE92902D105F04D
:1001A000FFFB10BDE42902D105F0FAFB10BDF529D3
:1001B00002D105F0F5FB10BDEF2902D105F056FC88
:1001C00010BDF82902D104F0FBFC10BD0368DB0967
:1001D00001D380231943632902D105F0BAFE10BD73
:1001E000732902D105F0BDFE10BDE32902D105F04F
:1001F000C7FE10BDF32902D105F0CAFE10BD0020D4
:1002000010BD1FB505F010FF04000020002106F00E
:1002100055FB401C60600020002106F039FBE060C7
:100220001FBD10B510BD05F0D7FE1146FFF7E9FF61
:1002300003F079FA06F06CFA03B4FFF7F2FF03BC9F
:1002400000F066FC70B505460C46164602E00FCC81
:100250000FC5103E102EFAD2082E02D303CC03C5D0
:10026000083E042E07D301CC01C5361F03E02178D8
:100270002970641C6D1C761EF9D270BD08480047B9
:10028000FEE7FEE7FEE7FEE7FEE7FEE7FEE7FEE746
:10029000FEE7FEE703480449024A044B70470000AA
:1002A000C100000028080010280A001028080010CB
:1002B000704700007CB51D4616460C00009001D02A
:1002C0000019401E084B7B442A466946019030467F
:1002D00005F0D9FA002C054603D06946002000F04D
:1002E00008F828467CBD0000E355000070477047C1
:1002F00070470A681070521C0A607047FFFFFFFFCA
:100300003249334A11600121324A116051600021A3
:1003100051600121516000BF2E494968C907C90FCA
:100320000029F9D02B4940398868400A400203214E
:100330000143284A403A91602749896B80229143C2
:10034000254A916300BF23494039C968C907C90FCD
:100350000029F8D003211F4A1163012151630021B4
:1003600051630121516300BF1A49496BC907C90F85
:100370000029F9D00121174A9163154909688900BC
:10038000164A116011460968154A1160704700B598
:100390000220104940390860002008620E48806B36
:1003A000202188430C498863002300E05B1CFF2B5D
:1003B000FCD9FFF7A5FF0748403000680121090478
:1003C000084304494031086000BD0000001BB7002D
:1003D000000000104080044000820440040000102F
:1003E00008000010A0211C4A51621B49C03108615D
:1003F0000121194AC032516100215161012151612D
:1004000000BF1549C0314969C907C90F0029F8D093
:100410000121114AC03291611049896B40229143F8
:100420000E4A916370470C49C031086201210A4AA3
:10043000C0325162002151620121516200BF064960
:10044000C031496AC907C90F0029F8D00121024A01
:10045000C032916270470000008004400082044076
:1004600010B5F548006840210843F34908601F2093
:1004700000F0DBF91E2000F0D8F91D2000F0D5F9BE
:100480001C2000F0D2F910BD70B5049C002806D0E5
:10049000012838D002286AD003287BD19CE0002AAA
:1004A00018D1E64D6D6801268E40B543E34E756068
:1004B000002B07D13546AD6801268E40B543DF4E8F
:1004C000B5600EE0DD4DAD6801268E403543DB4E54
:1004D000B56006E0D94D6D6801268E403543D74E94
:1004E0007560002C07D1D54DED6801268E40B543CF
:1004F000D24EF56006E0D14DED6801268E403543C1
:10050000CE4EF5609DE0002A18D1CD4D6D680126D4
:100510008E40B543CA4E7560002B07D13546AD6895
:1005200001268E40B543C64EB5600EE0C44DAD68A1
:1005300001268E403543C24EB56006E0C04D6D6861
:1005400001268E403543BE4E7560002C07D1BC4D50
:10055000ED6801268E40B543B94EF56006E0B84D12
:10056000ED6801268E403543B54EF56069E0002AFE
:1005700019D1B44D6D6801268E40B543B14E7560FA
:10058000002B08D13546AD6801268E40B543AD4EEF
:10059000B5600FE054E0AB4DAD6801268E403543A9
:1005A000A84EB56006E0A74D6D6801268E40354324
:1005B000A44E7560002C07D1A24DED6801268E4037
:1005C000B543A04EF56006E09E4DED6801268E40D5
:1005D00035439C4EF56034E0002A18D19A4D6D6881
:1005E00001268E40B543984E7560002B07D13546E5
:1005F000AD6801268E40B543934EB5600EE0924D36
:10060000AD6801268E4035438F4EB56006E08E4DB5
:100610006D6801268E4035438B4E7560002C07D1E6
:10062000894DED6801268E40B543874EF56006E0A2
:10063000854DED6801268E403543834EF56000E020
:1006400000BF00BF70BD002806D001280CD00228D2
:1006500012D0032820D117E0784A126901238B4079
:100660001A43764B1A6118E0754A126901238B40D0
:100670001A43734B1A6110E0724A126901238B40CE
:100680001A43704B1A6108E06F4A126901238B40CC
:100690001A436D4B1A6100E000BF00BF704700288D
:1006A00006D001280CD0022812D0032820D117E050
:1006B000624A126901238B409A43604B1A6118E029
:1006C0005F4A126901238B409A435D4B1A6110E027
:1006D0005C4A126901238B409A435A4B1A6108E025
:1006E000594A136901228A409343574A136100E033
:1006F00000BF00BF704710B502460020002A06D098
:10070000012A0DD0022A14D0032A24D11AE04B4B1F
:100710009B6901248C402340002B00D001201BE06A
:10072000474B9B6901248C402340002B00D00120C3
:1007300012E0444B9B6901248C402340002B00D0E5
:10074000012009E0404B9B6901248C402340002B91
:1007500000D0012000E000BF00BF10BD002806D07F
:1007600001280CD0022812D0032820D117E0334AE8
:10077000D26901238B401A43304BDA6118E0304ACA
:10078000D26901238B401A432D4BDA6110E02D4AC8
:10079000D26901238B401A432A4BDA6108E02A4AC6
:1007A000D26901238B401A43274BDA6100E000BF76
:1007B00000BF704730B513468B408400234D2D5940
:1007C00001248C40A4002B5130BD024690001F4BE9
:1007D0001B580120884080001858704730B5002A07
:1007E00011D08300194CE3580124E4031B191B6842
:1007F00001248C4023438400144D2C590125ED0322
:100800006419236010E08300104CE3580124E403D2
:100810001B191B6801248C40A34384000B4D2C59E9
:100820000125ED036419236030BDC206D20E0121FB
:100830009140074A1160704780800440008000505A
:10084000008001500080025000800350A869000021
:1008500000E100E070B500BF894A9268D0B2401054
:100860004007400F032822D1854A5269D1B29E2207
:100870000A40002A05D0834A1160814A1268D3B227
:1008800070BDCA07D20F002A3FD07D4C2468E5B264
:100890007D4C2268541C7C4E34607C4CA5543246FE
:1008A0001268802A31D30022344622602DE00228CB
:1008B00011D1734C2468E5B2734C2268541C724EFB
:1008C0003460724CA55432461268802A1DD300222F
:1008D0003446226019E0062807D16A4A1268FF24CC
:1008E00001342243674C22600FE001280DD1644A95
:1008F0005269D1B220220A40002A03D00122644C5E
:10090000227002E00022624C227000BFB8E7F8B506
:10091000044601205E49087000205B4908601520EC
:10092000012181405B4A116000BF5B48406AC008FA
:10093000C000594948620846406A012108435649A7
:1009400048620846806AC008C00088620846806A1B
:100950000121084350498862504800680121090379
:1009600008434E4908600120886183204449C860DB
:100970004A48866931464A48006804F061FA070926
:100980002146384604F05CFA0546280A3C4948608E
:10099000E8B208600320C8600720886008464669FE
:1009A00000BF37484069602108406028F9D101E064
:1009B0003348066832484069C007C00F0028F7D1A5
:1009C000152001218140334A803A116000BF052083
:1009D0002B494860F8BD0BE000BF294A526920232B
:1009E0001A40002AF9D00278254B1A60401C491E93
:1009F0000029F1D1704700BF2149496920221140E7
:100A00000029F9D01E490860704700B5034603E08D
:100A100018785B1CFFF7EFFF18780028F8D100BDAD
:100A20000FB400B59BB01DA80090642101A8009BE5
:100A30001C9AFFF73FFC01A8FFF7E7FF002000909A
:100A40001BB008BC04B018470146164800680E4A9F
:100A50001268904211D00D48124A1268805C0870EA
:100A600010480068401C0F4A10601046006880283B
:100A700001D300201060012070470020FCE7000037
:100A8000008000400C000010140000103401001021
:100A90001000001080E100E08040044080800440AD
:100AA000080000101800001000BF1F4949692022EB
:100AB00011400029F9D01C490860704710B5034661
:100AC0000C461846FFF7F0FF10BD00BF174800683E
:100AD0000028FBD006201449486000201349086014
:100AE00007201149486012480078704710B5044645
:100AF000FFF7EBFF0346FFF7D7FF10BD00B5034636
:100B00001846FFF7D1FF00BD01460020C0437047E3
:100B100000BFFEE700BF04484069C007C00F0028BF
:100B2000F9D00148006870470080004014000010B0
:100B30003401001070B504460D46002C1BD1022074
:100B4000FE4948600020C8607D21C900FC4800685B
:100B500004F076F96843F9498861FF2008600420B1
:100B600048610120486000BFF4484068C007C00FDA
:100B70000028F9D11CE0012C1AD10220F14948606B
:100B80000020C8607D21C900ED48006804F058F9D4
:100B90006843EC498861FF20086004204861012017
:100BA000486000BFE7484068C007C00F0028F9D17F
:100BB00070BDE2480068C007C00F002807D00120C0
:100BC000DE490860E0480068401CDF490860DB48F7
:100BD000006810210840002807D01020D74908607D
:100BE000DA480068401CD94908607047D548006859
:100BF000C007C00F002807D00120D2490860D448A0
:100C00000068401CD2490860CE48006810210840A6
:100C1000002807D01020CB490860CE480068401C4F
:100C2000CC4908607047002803D10121C34A5160B4
:100C300002E00121C34A51607047002803D100211E
:100C4000BE4A516002E00021BE4A51607047014631
:100C5000002906D1B94A506802221043B74A5060B1
:100C600005E0B84A506802221043B64A5060704707
:100C700070B504460D46002C47D1B74800680121E5
:100C800049020843B4490860B448006AC008C0007B
:100C9000B24908620846006A02210843AF49086267
:100CA0000846406AC008C00048620846406A0221FF
:100CB0000843AA4948620846806AC008C0008862A2
:100CC0000846806A02210843A4498862A348803804
:100CD0000069C008C000A149803908610846006960
:100CE000022108439D498039086100209649086027
:100CF00096490860914885610520904988620320E3
:100D00004861122000F063F922E0012C20D19248C2
:100D10000068A10208439049086090484069C008F3
:100D2000C0008E49486108464069022108438B494A
:100D300048610020864908608649086081488561CD
:100D400005208049886203204861132000F03FF9A4
:100D500070BD70B504460D46002C12D17E48006867
:100D60000121490208437C49086000207649086057
:100D700072488561032071494861122000F027F90B
:100D800012E0012C10D174480068A1020843724996
:100D9000086000206E4908606A488561032069493F
:100DA0004861132000F013F970BD30B505460C46BC
:100DB00013462846FFF741FF012D66D166480068BB
:100DC000A902084364490860B320C00018435D4984
:100DD000C863D807C00F00280ED060484038C06BE9
:100DE000C008C0005D494039C8630846C06B032194
:100DF00008435A494039C8630220184000280BD0E4
:100E000056480068C008C000544908600846006899
:100E100003210843514908600420184000280BD0E2
:100E20004E480069C008C0004C4908610846006986
:100E300003210843494908610820184000280BD0C5
:100E400046484069C008C0004449486108464069B6
:100E50000221084341494861012018433949403182
:100E600048633F4804600068364948623C4800686F
:100E7000400888613A4800684008C86138480068FE
:100E800040080862022048616FE033480068012191
:100E90004902084330490860CB20C0001843274965
:100EA000C8630220184000280BD02C48806AC00874
:100EB000C0002A4988620846806A022108432749FF
:100EC00088620420184000280ED024488038006929
:100ED000C008C00021498039086108460069022124
:100EE00008431E49803908610820184000280ED0A8
:100EF0001A484038406BC008C00018494039486360
:100F00000846406B032108431449403948630820D0
:100F100018430A4940314863124804600068074991
:100F200048621048006888610E4800684008C8613F
:100F30000C48006840080862081515E000400140B0
:100F40000800001000800140240000102C00001058
:100F500028000010300000108080044080400440D1
:100F60003800001034000010486130BD002816D051
:100F7000002906D0012907D0022908D003290CD165
:100F800008E0164B9A6109E0144BDA6106E0134B56
:100F90001A6203E0114B5A6200E000BF16E000291C
:100FA00006D0012907D0022908D003290CD108E076
:100FB0000B4B9A6109E00A4BDA6106E0084B1A62B2
:100FC00003E0074B5A6200E000BF00BF7047C20653
:100FD000D20E01219140034A116070470080014008
:100FE0000040014000E100E0F949C869C107C90FAC
:100FF000002907D0F7490968491CF64A1160012108
:10100000F34A116202210140002907D0F249096820
:10101000491CF14A11600221ED4A1162042101408C
:10102000002904D0ED490968491CEC4A1160704759
:10103000EB49C869C107C90F002907D0E949096808
:10104000491CE84A11600121E54A11620221014070
:10105000002907D0E4490968491CE34A11600221CC
:10106000DF4A116204210140002904D0DF490968E8
:10107000491CDE4A1160704710B50446002C47D168
:10108000DB48406801210843D9494860D84880308E
:101090000068C9140843D6498031086002204861BD
:1010A000D448006AC008C000D24908620846006AF5
:1010B00001210843CF4908620846406AC008C000C1
:1010C00048620846406A01210843CA494862012033
:1010D000C84940310863C7490863C5488030006883
:1010E00040210843C24980310860C2484038C06985
:1010F000C008C000BF494039C86101220221002058
:10110000FFF76CFB012202210020FFF753FB54E0A4
:10111000B748406804210843B5494860B448803066
:101120000068012189040843B14980310860022028
:10113000C861B048C069C008C000AE49C86108466F
:10114000C06902210843AB49C861AA484030C06861
:10115000C008C000A7494031C8600846C0680221E5
:101160000843A4494031C860A2484038806AC0089A
:10117000C000A049403988620846806A02210843BD
:101180009C49403988629A48803000684021084371
:10119000974980310860974840388068C008C0008F
:1011A000944940398860012200210220FFF716FB94
:1011B000012200210220FFF7FDFA10BD10B5044600
:1011C000002C69D18A484068012108438849486059
:1011D000874880300068C914084385498031086019
:1011E000022048618348006AC008C0008149086243
:1011F0000846006A012108437E4908620846406AA1
:10120000C008C00048620846406A01210843794985
:10121000486202207749403108637649C8607448C3
:10122000803000684021084371498031086071486E
:101230000068C008C0006F49086001220421022034
:10124000FFF7CCFA012204210220FFF7B3FA694824
:1012500040380068C008C000664940390860012273
:1012600006210220FFF7BAFA012206210220FFF729
:10127000A1FA60484038006AC008C0005D494039A2
:101280000862012207210220FFF7A8FA01220721A4
:101290000220FFF78FFA54E05548406804210843C4
:1012A000534948605248803000680121890408434E
:1012B0004F49803108600220C8614E48C069C008AB
:1012C000C0004C49C8610846C06902210843494929
:1012D000C86148484030C068C008C0004549403136
:1012E000C8600846C0680221084342494031C860CE
:1012F00040484038806AC008C0003E494039886292
:101300000846806A022108433A49403988623848D1
:1013100080300068402108433549803108603548F5
:1013200040388068C008C0003249403988600122D6
:1013300000210220FFF752FA012200210220FFF7CC
:1013400039FA10BD70B5054600BF002D16D12A48E8
:101350001F490860FE200861002404E01C488068E2
:10136000C6B2601CC4B2082CF8DB142000F03BF9B4
:101370000220174948600320486115E01E481849BB
:10138000086002200861002404E015488068C6B2A5
:10139000601CC4B2082CF8DB0E2000F024F90220F7
:1013A0000F4948600320486170BDF8B507460D46F7
:1013B000164600980090002F31D1681E07210902BF
:1013C0000843034908600846066100241CE0000049
:1013D0000000044040000010440000103C000010D9
:1013E000008005404C000010500000104800001024
:1013F0000080044040400440070700007D488068AA
:10140000C0B20090601CC4B2082CF7DB142000F0BE
:10141000EAF80220774948600320486119E0681E15
:101420000721090208437449086008460661002440
:1014300005E071488068C0B20090601CC4B2082CFE
:10144000F7DB0E2000F0CFF802206B494860032044
:101450004861F8BD70B500BF00232DE0002815D10C
:1014600000BF644DED6812263540022DF9D10D788C
:10147000604EB560491C00BF5E4DED6814263540D6
:10148000042DF9D15B4DAD68ECB214E000BF5A4DAC
:10149000ED6812263540022DF9D10D78564EB56013
:1014A000491C00BF544DED6814263540042DF9D178
:1014B000514DAD68ECB25B1C9342CFD370BD30B5DB
:1014C00000231FE000280ED1FF244A4DAC6000BF6E
:1014D000484CE46814252C40042CF9D1454CA468F0
:1014E0000C70491C0DE0FF24434DAC6000BF424C22
:1014F000E46814252C40042CF9D13F4CA4680C70EE
:10150000491C5B1C9342DDD330BD0246002A1AD130
:1015100000BF3848C068122318400228F9D1354866
:10152000816000BF3348C068102318400028F9D1FB
:1015300000BF3048C068142318400428F9D12D4852
:10154000806880B2704700BF2B48C06812231840E3
:101550000228F9D12848816000BF2748C0681023BD
:1015600018400028F9D100BF2348C0681423184050
:101570000428F9D12048806880B2E3E770B50446BA
:101580000D46002C2BD1002207210220FFF712F973
:1015900000BF1848C06802210840002805D015483F
:1015A000C06810210840002801D0012000E0002080
:1015B0000028EED10F48856000BF0E48C06810219A
:1015C00008400028F9D100BF0A48C068142108402B
:1015D0000428F9D1012207210220FFF7EBF8054882
:1015E000806880B270BDC206D20E01219140034ACC
:1015F00011607047000004400080054000E100E0F9
:1016000010B5012080074068C1B24807400F00288C
:101610006FD1C810030005F00EF90CB3071523AB0A
:10162000393AB464AC7496B30020AC4A1060AC484C
:101630000078012292079060282090610120A94A39
:101640001060A2E00020A84A1060A548007801229E
:1016500092079060282090610220A24A106094E0D6
:10166000A048006801280DD19C4A1068421C9B4B81
:101670001A609E4A1268125C01239B079A6004203C
:10168000984A10600820C20690617EE000BF93482F
:101690000068974A126890420ED2904A1068421C25
:1016A0008E4B1A60914A1268125C01239B079A6064
:1016B00004208C4A106010E08E480068002806D094
:1016C0002020420610600320864A106005E00520B5
:1016D000844A10601020820610600820C2069061C3
:1016E00053E084480068012804D104200207906177
:1016F00003E045E00420020710600820C206906164
:1017000043E0012292079268D3B2774A1068421CE4
:10171000754C2260784A1268135420460068754A56
:101720001268904205D204206E4A106002071060D1
:1017300005E005206B4A1060042002079061082034
:10174000C206906121E0012292079268D3B2664AF4
:101750001068421C644C2260674A126813540520CA
:10176000604A1060102082061060082090610CE032
:1017700000BF0820C206906105205A4A106004E0AC
:1017800000BF0820C206906100BF00BF10BD00214D
:101790000020202253061A600BE0524A1268012AE8
:1017A00001D1012006E0554A914201D3002001E019
:1017B000491CF2E700BF704710208106086008202E
:1017C000886100BF012080070068102108400028C0
:1017D000F8D10120704710B50246494840680223FD
:1017E0001843474B58604648803000682023184310
:1017F000434B803318604348006B80098001414BA4
:1018000018631846006B012318433E4B18631846B3
:10181000406B8009800158631846406B01231843D0
:10182000384B58636C201B049861FF20813058614D
:101830001861022A01D15007C1600F2001238340A3
:10184000314C236000BF402003061860012010BD0A
:1018500000B5002023490860234908601F4908603B
:10186000FFF795FF012803D0FFF7A6FF002000BD7A
:1018700006E01C480068052802D1FFF79DFF00E044
:10188000F7E700BF0120F2E770B506460C461546A3
:10189000012030431249087017480460154805605C
:1018A000012013490860FFF7D3FF1248006811496F
:1018B000086070BD70B506460C46154608480670AF
:1018C0000A4804600A48056000200A490860FFF7DA
:1018D000BFFF074800680649086070BD7800001027
:1018E0007C00001054000010740000106400001010
:1018F000700000106C00001068000010FFFFFF0077
:10190000008004400040044000E100E030B50246A1
:1019100000BFC84B1B680124E4032340002BF8D10F
:101920007F23C44C6360531C236000BFC14B1B6802
:101930000124E4032340002BF8D118235343BE4C69
:101940001819BC4B5B690124A4032340002B08D069
:10195000B84B19691C466469B84D2C4024042143D6
:1019600003E0B44B5B69DB04590D02C0B14B9B69CA
:101970001B071B0F08C0AF4BDB6908C0AD4B1B6AD0
:1019800008C0AC4B5B6A08C0AA4B9B6A08C030BD5C
:1019900070B500BF36E00120C0033040002816D0EB
:1019A000A4488038456840202840002805D0A44835
:1019B0000068401CA249086070BD802028400028B3
:1019C00020D0A0480068401C9E490860F4E76807E2
:1019D000400F002816D17404640C002C12D0202C67
:1019E00010D8944880384068102188439149803944
:1019F0004860611EC8B2FFF789FF0121601E8000A8
:101A0000914A11508B4880380669002EC3D100BF1F
:101A1000D2E70021002059E0F322864B803B5A6236
:101A200000291BD100229A62884ADA6200221A63D6
:101A3000C21DF93292000123DB031A437D4B803B28
:101A40005A63C207D20F002A02D1814A9A6326E064
:101A5000804A784B803B9A63012120E07E4A754B97
:101A6000803B9A627D4ADA6201221205821892B2A4
:101A70001A63012212058218120C03239B031A43D6
:101A80006C4B803B5A63C207D20F002A02D1704AC6
:101A90009A6304E06F4A674B803B9A6300210022FF
:101AA000644B803BDA63634B403B1A605A609A6038
:101AB000421C604B803B1A6200BF5E4A803A126A49
:101AC0000123DB031A40002AF7D1401C2028A3D3AE
:101AD000704710B5044662484068082108436049D1
:101AE00048605F48803000680121490408435C4930
:101AF000803108604F4880380068C007C00F002858
:101B000007D14C4880380068012108434949803991
:101B10000860052053490860464880380068402125
:101B200008434449803908604F48C86000208861F4
:101B300008460068402188433E49803908600846CD
:101B4000006840084000086000BF3A4880380068DC
:101B5000C007C00F0028F8D1FFF75BFF0D2001215F
:101B60008140424A116000BF3248803800680E212F
:101B7000084330498039086010BDF0B503460C4673
:101B8000002A01D100BFFEE702CA002C02D0CE001D
:101B9000B00800E0084620CA082D00D90825012613
:101BA000B6070E40002E0ED1860005277F033E4368
:101BB000204F803F7E6300263E63204EF61EFE626D
:101BC0000026BE620CE0060C07277F033E43194F38
:101BD000803F7E6386B23E63254EFE621E4EBE622D
:101BE0002E07360F2327FF013E43124F803FBE636F
:101BF00040CAFE6340CA0F4F403F3E6040CA7E600D
:101C00001668BE60F7260B4F803F7E62002C02D024
:101C10009E1C3E6203E05E1C064F803F3E6200BF9A
:101C2000044E803E366A0127FF033E40002EF7D166
:101C3000F0BD00008000054034020010FF5F00008E
:101C40008400001080000010B4010010FC1F000090
:101C50008810000088140000FFFF0000FF9F0000B4
:101C600000800440800105400123000000E100E005
:101C7000FFDF000070B505466A48806B102188437D
:101C80006849886368480068012149030843664938
:101C90000860002404E00020A100644A5050641C45
:101CA000082CF8D3624840698F2188436049486115
:101CB00008464069012108435D4948615C48403855
:101CC000C06A8F2188435A494039C8620846C06AB1
:101CD0000121084356494039C862554880698F211F
:101CE0008843534988610846806901210843504967
:101CF000886129464F48006803F0A2F8401E0002A0
:101D00004D4908434D49086070BD70B505464548CA
:101D1000806B102188434349886343480068012150
:101D20004903084340490860002404E00020A10062
:101D30003E4A5050641C082CF8D33D484038406B54
:101D4000872188433A49403948630846406B02215D
:101D5000084337494039486335480068872188433C
:101D6000334908600846006802210843304908608A
:101D700029463048006803F063F8401E00022E49EF
:101D800008432E49086070BD30B50146082900DBC4
:101D900000212A480068000A0002284C20602046E2
:101DA00004680120884001252D0628430443234868
:101DB000046008E08800214C00190269D00FC007B8
:101DC000002800D000E0F5E700BF1C4800680724A9
:101DD0002406A043194C20600120800710400028F1
:101DE00001D0002030BD1004830D1846FAE71348D7
:101DF0000068072109060840002804D00F48006841
:101E000088430E4908600D480068FF2108430B49CC
:101E10000860084600680121090408430749086072
:101E200070470000008204408080044034050010A8
:101E300080400440080000100100200000C0014064
:101E40004249C968424A116003E04049C968404AB2
:101E500011603F4909683F4A9142F6D2AA213B4AA4
:101E6000916055219160002000E0401C0121C904CF
:101E70008842FAD33549C968354A116003E03349CD
:101E8000C968334A116032490968012252029142FD
:101E9000F5D32E490968042291432C4A116011465A
:101EA000096808229143294A116070472A49096844
:101EB0000122D2031143284A11603F21264A803A69
:101EC00051622649896B40229143244A9163022141
:101ED000214A4032116101215161002151610121EA
:101EE000516100BF1C4940314969C907C90F002928
:101EF000F8D08021184A403291610021144A1160C3
:101F0000192101228A40164B1A6000BF15490F4A59
:101F100051600913516001211160AA21916055217E
:101F20009160002000E0401C0121C9048842FAD3DE
:101F30000849064A5161112111600B4991617047AE
:101F4000AA20024988605520886070470040004000
:101F50008C000010FF0100008080044000820440DB
:101F600000E100E0FFFF3F00FF020000F1B582B09A
:101F700021488469406901902049029848430090B3
:101F80000199009802F05CFF07460199009802F061
:101F900057FF0D46002F0ED000260AE000BF16485E
:101FA0008069A042FBD300BF13488069A042FBD8E0
:101FB000761CBE42F2D3002D1DD0A54206D200BF32
:101FC0000D488069611B8842FAD814E0A54205D10A
:101FD00000BF09488069A042FBD30CE000BF06485F
:101FE0008069A042FBD300BF034881692A1B019886
:101FF000801A8142F8D8FEBD00E000E080BB0000FE
:1020000010B5002203211046FEF7E8FB0022042150
:102010000120FEF7E3FB002208210120FEF7DEFB92
:10202000002209210120FEF7D9FB00220A2101200C
:10203000FEF7D4FB00220B210120FEF7CFFB10BDE1
:1020400010B508210120FEF7C0FB002801D10120B6
:1020500010BD09210120FEF7B8FB002801D10220A4
:10206000F6E70A210120FEF7B0FB002801D103208A
:10207000EEE70B210120FEF7A8FB002801D1042088
:10208000E6E703210020FEF7A0FB002801D1052090
:10209000DEE704210120FEF798FB002801D106208D
:1020A000D6E70020D4E7000010B501220921022064
:1020B000FEF794FB012209210220FEF77BFB01229F
:1020C0000A210220FEF78AFB01220A210220FEF7E4
:1020D00071FB01220B210220FEF780FB10BD70B5C1
:1020E0000446202C01DBFF2403E0E006C00E11496A
:1020F0000C5C002209210220FEF75CFB002511E0A8
:1021000000220A210220FEF755FBE207D20F0B2125
:102110000220FEF74FFB641001220A210220FEF785
:1021200049FB6D1C082DEBD3012209210220FEF78B
:1021300041FB70BDC869000000BF0146421ED0B21D
:102140000029FAD1704770B50346002510E000243D
:102150000AE0002604E0CB20FFF7EEFF701CC6B2B9
:102160000F2EF8DB601CC4B2832CF2DB681CC5B2F6
:102170009D42ECDB70BD10B5044600220521022013
:10218000FEF718FB002204210220FEF713FB214674
:102190000020FFF7BAF9012204210220FEF70AFB12
:1021A000012205210220FEF705FB10BD10B50446F3
:1021B000012205210220FEF7FDFA0022042102205F
:1021C000FEF7F8FA21460020FFF79FF901220421CB
:1021D0000220FEF7EFFA012205210220FEF7EAFABB
:1021E00010BD70B504462546E117090F49190911BC
:1021F0000901611AC8B2FFF7BEFF2546E117090FB2
:10220000491909111031C8B2FFF7B5FF70BD10B5FB
:1022100004462020FFF7AFFF2046FFF7ACFF10BDBC
:1022200070B505460C462120FFF7A5FF2846FFF7AD
:10223000A2FF2046FFF79FFF70BD70B505460C4614
:102240002220FFF798FF2846FFF795FF2046FFF76B
:1022500092FF70BD10B50446402121430846FFF7A8
:102260008AFF10BD10B504468120FFF784FF204689
:10227000FFF781FF10BD10B504468D20FFF77BFFEF
:10228000102121430846FFF776FF10BD10B5044624
:10229000A02121430846FFF76EFF10BD10B504468C
:1022A000A42121430846FFF766FF10BD10B5044680
:1022B000A62121430846FFF75EFF10BD10B5044676
:1022C000A820FFF758FF2046FFF755FF10BD10B5B7
:1022D0000446AE2121430846FFF74DFF10BD10B55F
:1022E0000446B02121430846FFF745FF10BD10B555
:1022F0000446C02121430846FFF73DFF10BD10B53D
:102300000446D320FFF737FF2046FFF734FF10BD08
:1023100010B50446D520FFF72EFF2046FFF72BFF10
:1023200010BD10B50446D920FFF725FF2046FFF762
:1023300022FF10BD10B50446DA20FFF71CFF022172
:1023400021430846FFF717FF10BD10B50446DB20F8
:10235000FFF711FF2046FFF70EFF10BD10B5E32079
:10236000FFF709FF10BD70B50646002410E02046B7
:10237000FFF7B5FF0020FFF734FF002504E03046EB
:10238000FFF714FF681CC5B2802DF8DB601CC4B2D7
:10239000082CECDB70BD10B50020FFF7E4FF10BD8A
:1023A000FFB581B00D4616461F462C4615E0204667
:1023B000FFF795FF3846FFF714FF0020009006E076
:1023C0000198FFF7F3FE0098401CC0B200900A99F4
:1023D00000988842F4DB601CC4B2701C8442E6DBC7
:1023E00005B0F0BD70B5002413E02046FFF777FF7D
:1023F0000020FFF7F6FE002507E05520FFF7D6FE88
:10240000AA20FFF7D3FE681CC5B2402DF5DB601C87
:10241000C4B2082CE9DB70BD70B50020FFF75FFF88
:102420000020FFF7DEFE002404E00120FFF7BEFEDF
:10243000601CC4B2802CF8DB0720FFF750FF00209F
:10244000FFF7CFFE002404E08020FFF7AFFE601C02
:10245000C4B2802CF8DB002411E02046FFF73FFFD8
:10246000002508E0E8B2FFF7BCFEFF20FFF79EFE64
:1024700028467F30C5B2802DF4DB601CC4B2082C26
:10248000EBDB70BDFFB581B007460D46012F02D0D2
:10249000022F0BD104E0A8002818FE49441805E0DB
:1024A000681E81004018FC49441800BF00BF039813
:1024B000FFF715FF0498FFF794FE002605E020784B
:1024C000FFF774FE641C701CC6B2052EF7DB0020FB
:1024D000FFF76CFE05B0F0BDFFB581B007460D46B5
:1024E0001E462C46334660210120039AFFF7CAFF9F
:1024F0000CE0217833463846039AFFF7C3FF641C8B
:10250000B01DC6B22078002800D100E0F1E700BF7E
:1025100005B0F0BDFFB583B005460E4617460295DF
:10252000344619E02046FFF7DAFE0698FFF759FE19
:10253000002001900AE002990878FFF737FE029820
:10254000401C02900198401CC0B201900C99019867
:102550008842F0DB601CC4B2781C8442E2DB07B026
:10256000F0BDFFB581B00D461446049820388100B7
:102570004018C84946180198FFF7B1FE002D0BD14D
:102580000020FFF72EFE002C03D10020FFF70EFEE7
:1025900002E0FF20FFF70AFE691CC8B2FFF721FE28
:1025A00000270DE0002C03D13078FFF7FFFD04E099
:1025B0003178C943C8B2FFF7F9FD761C781CC7B261
:1025C000052FEFDB002C03D10020FFF7EFFD02E029
:1025D000FF20FFF7EBFD05B0F0BDF8B506460F464E
:1025E00014460025082E19DA08E023783A462946D1
:1025F0003046FFF7B6FFA81D85B2641C207800287E
:1026000001D0012000E00020691C89B2802901DA94
:10261000012100E0002108400028E6D1F8BDFFB507
:1026200081B015461F46A320FFF7A5FD0298FFF7CE
:10263000A2FD2846FFF79FFD0198002802D001283F
:1026400025D111E000240CE0E0B2FFF703FE0026E4
:1026500003E0C820FFF770FD761C0A988642F8D385
:10266000E419AC42F0D312E000240DE0291BC8B2FB
:10267000FFF7F0FD002603E0C820FFF75DFD761CA4
:102680000A988642F8D3E419AC42EFD300BF00BFEA
:102690000020FFF7DFFD05B0F0BDF8B504460D469C
:1026A00016461F46262121430846FFF764FD0020F9
:1026B000FFF761FD2846FFF75EFD3846FFF75BFD3B
:1026C0003046FFF758FD2F20FFF755FD0698FFF71E
:1026D0003AFDF8BDF8B504460D4616461F46A32040
:1026E000FFF749FD3846FFF746FD0698FFF743FD23
:1026F00021462931C8B2FFF73EFD0020FFF73BFD20
:102700002846FFF738FD0898FFF735FD3046FFF7FC
:1027100032FD0798FFF72FFD2F20FFF72CFD0998BA
:10272000FFF711FDF8BD10B52E20FFF724FD10BDF9
:1027300010B50120FFF7CBFD00240CE0E0B2FFF75D
:1027400091FDC820FFF7F8FCC820FFF7F5FCC82072
:10275000FFF7F2FC641CD02CF0D310BD10B5D024D0
:102760000DE0611EC8B2FFF77DFDC820FFF7E4FC55
:10277000C820FFF7E1FCC820FFF7DEFC641E002C38
:10278000EFD10020FFF7A3FD10BD10B50446002CCB
:1027900002D0012C0ED106E00020FFF798FD0120A9
:1027A000FFF77CFD06E00020FFF778FD0120FFF732
:1027B0008EFD00BF00BF10BD0120FFF76FFD0BE0D5
:1027C0000120FFF784FD0220FFF7BDFC0020FFF78A
:1027D0007EFD0220FFF7B7FCF2E710B50020FFF7FF
:1027E00076FD8020FFF794FD3F20FFF767FD002076
:1027F000FFF785FD0020FFF72DFD0020FFF73BFDD3
:102800000220FFF704FD0120FFF740FD0820FFF73D
:102810006EFD1020FFF78EFDCF20FFF723FD222055
:10282000FFF77FFD4020FFF790FD0020FFF736FD0A
:102830000020FFF73BFD0020FFF795FD0120FFF78B
:1028400046FD10BD10B5012205210220FDF7C6FF8F
:102850000020FFF73CFD8020FFF75AFD3F20FFF7E7
:102860002DFD0020FFF74BFD0020FFF7F3FC0420B7
:10287000FFF701FD0220FFF7CAFC0120FFF706FD6C
:102880000820FFF734FD1020FFF754FDCF20FFF79D
:10289000E9FC03E0B86A00006D6F0000F120FFF76B
:1028A00040FD4020FFF751FD0020FFF7F7FC00201E
:1028B000FFF7FCFC0020FFF756FD0120FFF707FDA6
:1028C00010BD00B587B05CA207CA04AB07C30020E7
:1028D000FFF749FD302028230522022100905948A6
:1028E000FFF718FE0520FFF72EFCFFF737FF052046
:1028F000FFF729FCFFF71CFF0520FFF724FC202031
:1029000001234022002100900846FFF788FE0520A1
:10291000FFF719FC202001234022002100901846D7
:10292000FFF77DFE0520FFF70EFCFFF7FCFE0520FC
:10293000FFF709FC01200021202301900093029160
:1029400003900B460A460846FFF7C4FE0520FFF732
:10295000FAFB012000211F22202300930192029103
:1029600003900B460A460846FFF7B4FE0520FFF722
:10297000EAFB022000210122202300930192029110
:1029800003900B4603220846FFF7A4FE0520FFF73D
:10299000DAFB022000211F222023009301920291E2
:1029A00003900B4603220120FFF794FE0520FFF75A
:1029B000CAFB0220002101222023009301920291F0
:1029C00003900B46072204210120FFF783FE052018
:1029D000FFF7B9FB022000211F2220230093019260
:1029E000029103900B46072204210020FFF772FE9C
:1029F0000520FFF7A8FBFFF796FE0520FFF7A3FBD6
:102A0000FF20FFF7B0FC0520FFF79DFBFFF7EAFC76
:102A10000520FFF798FB0020FFF7A5FCFFF7FCFC63
:102A20000520FFF790FB2523032204A90120FFF7CF
:102A300053FD07B000BD0000354E49564953494F7C
:102A40004E000000F8690000FFB587B005460E464D
:102A5000174600207B49086008460068069005215B
:102A60000120FDF71CFE012205211046FDF7B6FEF0
:102A7000002205210120FDF79DFE1E20FFF776FABA
:102A8000012205211046FDF795FE002205210120B7
:102A9000FDF7A4FE00200346024605210090012018
:102AA000FDF7F2FC05210120FDF7CDFD002412E029
:102AB000E007C00F00231A46052100900120FDF712
:102AC000E3FC00BF5F48016806988142FAD05D4888
:102AD00000680690641C032CEAD3002482E00120E5
:102AE00000231A4605210090FDF7CEFC00BF554893
:102AF000016806988142FAD0524800680690524810
:102B00000068039000200346024605210090012042
:102B1000FDF7BAFC00BF4B48016806988142FAD025
:102B2000484800680690484801680398814205D2E9
:102B3000454903980968401A029006E04248016836
:102B40000398081A4149081A0290082C10D20A98D2
:102B500000784006010E0A9801703D4902988842AB
:102B60003FD30A980078012108430A99087038E099
:102B7000102C0CD238784006000E38703449029878
:102B800088422ED3387801210843387029E0182C68
:102B90000CD230784006000E30702D4902988842E1
:102BA0001FD330780121084330701AE0202C0CD25A
:102BB00028784006000E287025490298884210D3D4
:102BC00028780121084328700BE005984006000E84
:102BD00005901F490298884203D3012105980843B4
:102BE0000590641C282C00D279E7012000231A46A6
:102BF00005210090FDF748FC00BF124801680698C7
:102C00008142FAD005210120FDF749FD0A9800789C
:102C10000490397804980818C0B204903178049868
:102C20000818C0B20490297804980818C0B204901B
:102C300005990498884202D101200BB0F0BD002014
:102C4000FBE70000080100100C01001080BB000031
:102C50001809000008B5002100910122694688206A
:102C6000FEF728FE012269468820FEF70DFE684621
:102C7000007808BD08B5012100910122694688202D
:102C8000FEF718FE012269468820FEF7FDFD684622
:102C9000007808BD704708B50021684601708021A2
:102CA0004170022269468820FEF704FEB448B54907
:102CB000086001200004B449086008BD38B5044626
:102CC000FFF7D8FF05460C21284688430546A0009B
:102CD0002843C5B201216846017045700222694649
:102CE0008820FEF7E7FD002C06D0012C08D0022C2E
:102CF0000AD0032C10D10BE0A148A24908600BE0D8
:102D0000A248A049086007E0A1489E49086003E086
:102D1000A0489C49086000BF00BF38BD38B50024FA
:102D200000210120FEF757FDFFF7B4FFFFF7B3FFC7
:102D30000120FFF7C3FF042100910122694688208A
:102D4000FEF7B8FD012269468820FEF79DFD684622
:102D5000047805210091012269468820FEF7AAFD2A
:102D6000012269468820FEF78FFD68460078000240
:102D7000044384480068444383480168204602F0C5
:102D80005FF80446204638BD38B50546FFF762FFB8
:102D900004460C21204688430446A8002043C4B2C0
:102DA0000021684601704470022269468820FEF7BF
:102DB00081FD38BD38B50446FFF74CFF0546AD0828
:102DC000AD00284620430546002168460170457045
:102DD000022269468820FEF76DFD002C06D0012CEA
:102DE00009D0022C0CD0032C13D10EE001200004DA
:102DF000654908600DE0012000036349086008E0B0
:102E0000FF2001306049086003E010205E4908603F
:102E100000BF00BF38BD38B5044600255A490968CF
:102E2000614308465749096802F00AF8054602213D
:102E3000684601702804010E684641700222694606
:102E40008820FEF737FD38BD38B5044600254E49C9
:102E50000968614308464B49096801F0F1FF0546DE
:102E60000321684601702804010E68464170022261
:102E700069468820FEF71EFD38BD38B50546FFF7C8
:102E8000F9FE044620212046884304462046284374
:102E90000446012168460170447002226946882078
:102EA000FEF708FD38BD10B5FFF7E4FE044620200C
:102EB0002040400910BD38B5FFF7DCFE0446202154
:102EC000204688430446412168460170447002222E
:102ED00069468820FEF7EEFC38BD38B5FFF7BAFE2C
:102EE000044680212046884304460021684601703C
:102EF0004470022269468820FEF7DCFC402004432F
:102F00000021684601704470022269468820FEF75D
:102F1000D1FC38BD10B586B0FFF73DFA1EA20021E6
:102F20000846FFF75AFB00210120FEF754FCFFF78B
:102F3000B1FEFFF7B0FE0120FFF7C0FE18A001F0C0
:102F400065FD19E0FFF7EAFE0446234615A21421A9
:102F5000684601F07FFD6A4600210220FFF73DFB35
:102F6000214612A001F052FDFA20FEF7FFFFFFF705
:102F700067F8062800D100E0E4E700BF06B010BD06
:102F8000CD0300009000001094000010340F0000EA
:102F9000D03C000040F300004C69676874000000FA
:102FA0000D0A000025642020202000002564202038
:102FB0000000000008B509210091012269463A206D
:102FC000FEF778FC012269463A20FEF75DFC684670
:102FD000007808BD08B516210091012269463A2003
:102FE000FEF768FC012269463A20FEF74DFC684670
:102FF000007808BD38B50446162168460170447053
:10300000022269463A20FEF755FC38BD10B505206E
:10301000FFF7F0FF10BDF8B504460D46164600BF99
:10302000FFF7C8FFC007C00F0028F9D006210091A4
:10303000012269463A20FEF73DFC012269463A200A
:10304000FEF722FC6846007840B22070072100910C
:10305000012269463A20FEF72DFC012269463A20FA
:10306000FEF712FC6846007840B2287008210091F3
:10307000012269463A20FEF71DFC012269463A20EA
:10308000FEF702FC6846007840B23070F8BD70B5BB
:1030900005460024FFF79EFF04460C212046884386
:1030A0000446A8002043C4B22046FFF7A3FF70BD2A
:1030B00070B505460024FFF78DFF0446A408A40060
:1030C0002046284304462046FFF794FF70BD70B5A4
:1030D0008AB000240025002600210391029101916D
:1030E000FFF759F935A200210846FFF776FA0021CB
:1030F0000120FEF770FBFFF789FF01AA02A903A8D0
:10310000FFF789FF68460C2141564C420821415681
:103110004D42042141564E4201AA02A903A8FFF7DD
:103120007AFF6846007B001941B203916846007A35
:10313000401941B2029168460079801941B201916B
:1031400068460C23C3561FA2142104A801F082FC78
:1031500004AA00210220FFF740FA68460C214156DC
:103160001BA001F053FC68460823C3561CA214217F
:1031700004A801F06FFC04AA00210320FFF72DFA38
:1031800068460821415619A001F040FC6846042316
:10319000C3561AA2142104A801F05CFC04AA002161
:1031A0000420FFF71AFA68460421415616A001F0E0
:1031B0002DFCFA20FEF7DAFE0AB070BD4178697383
:1031C0002D33000041636320783A202564202000DD
:1031D0000D0A41636320783A2025642C20200000EA
:1031E00041636320793A20256420200041636320F5
:1031F000793A2025642C20200000000041636320E0
:103200007A3A202564202000416363207A3A202501
:10321000642E200010B501460C78641EE2B2002333
:1032200005E0CC5CAA2C01D1541CE2B25B1C0C78EA
:103230009C42F6D8087803E08C5C6040541EE2B2F1
:10324000002AF9D110BDF3B581B00D4680220821C6
:103250000020FEF7AAF80198FFF7DCFF0090AA21F2
:103260000020FEF78BF90024BB210020FEF786F931
:103270002855641C00270AE00198C15D0020FEF774
:103280007DF92855641C0120FEF770FE7F1C019813
:103290000078B842F0D800200099FEF76FF9285561
:1032A000641CC820FEF762FE012028700021084639
:1032B000FEF764F9AA2806D0022208210020FEF7B2
:1032C00074F80020FEBD0120FEF750FE00210846E4
:1032D000FEF754F9BB2806D0022208210020FEF791
:1032E00064F80020EEE70120FEF740FE01984078E8
:1032F000012806D0202806D0212806D0222808D16F
:1033000005E00B2607E0072605E0132603E0032669
:1033100001E0072600BF00BF0027002409E00021CC
:103320000846FEF72BF928550120FEF71FFE7F1CEB
:10333000641CB742F3D9022208210020FEF735F8B9
:10334000E0B2BFE770B586B00546142101A801F0D0
:1033500075FD002208210220FDF740FA01A8FFF7C1
:1033600059FF06466846007901A9085CB04212D1AF
:10337000002404E0A01C01A9085C2855641C042C4E
:10338000F8DB002028550BA200210720FFF725F9C4
:10339000012006B070BD09A200210620FFF71DF92B
:1033A0000CA200210720FFF718F90CA001F02EFB5A
:1033B0000020EEE74F6B202020202000202020203E
:1033C00020202020202020202020202020202020FD
:1033D000200000004E6F2043617264000D0A4661B8
:1033E000696C200070B504460D460022114602208B
:1033F000FDF7E0F9E8008022104362001043014627
:103400000120FEF782F800210120FEF77EF8C6B207
:10341000012200210220FDF7CDF9304670BD10B524
:1034200002210120FFF7DEFF0446A406A40E042CAF
:103430002FD100210120FFF7D5FF9A499A4A12881F
:103440008854084698490988405CDD2807D1002047
:1034500095490880DD209349934A12888854914801
:1034600091490988405CAA2807D100208E4908802C
:10347000AA218C488C4A128881548B480088401CB1
:1034800089490880084600886C2807DB00200880EE
:1034900004E000210120FFF7A5FF044610BD70B530
:1034A00004460D461646002211460220FDF782F919
:1034B000E8006200104301460120FEF726F831467D
:1034C0000120FEF722F8012200210220FDF772F907
:1034D00070BDF8B505460E46BF2203212846FFF70A
:1034E000DEFF02212846FFF77DFF0446204610211B
:1034F0000843024602212846FFF7D1FF0322114666
:103500002846FFF7CCFF01212846FFF76BFF044652
:10351000204610218843024601212846FFF7BFFFBD
:1035200004212846FFF75EFF044620468021884399
:10353000024604212846FFF7B2FF832203212846D2
:10354000FFF7ADFF3146E120000301F079FC84B2C2
:10355000E2B200212846FFF7A2FF221201212846ED
:10356000FFF79DFF032211462846FFF798FF002131
:103570002846FFF737FF002203210846FDF72EF902
:10358000002003460246032100900846FCF77CFF1A
:1035900003210846FDF757F8012211462846FFF798
:1035A0007EFF00212846FFF71DFFF8BD70B50546D8
:1035B0000C4600BF05212846FFF714FF20210840D4
:1035C0000028F7D0224600212846FFF768FF70BD8B
:1035D00010B5044621460020FFF7E8FF10BD10B5E6
:1035E000044604E021780020FFF7E0FF641C207807
:1035F0000028F7D110BD10B5044621460120FFF781
:10360000D5FF10BD10B5044604E021780120FFF776
:10361000CDFF641C20780028F7D110BD0246002A97
:1036200017D122480088224B1B88984229D0214874
:103630001E4B1B88C05C08701C480088401C1B4B3C
:103640001880184600886C2801DB002018800120B3
:10365000704719480088144B1B88984211D01148B4
:10366000154B1B88C05C087013480088401C124B27
:103670001880184600886C2801DB00201880012083
:10368000E6E70020E4E710B5044621460020FFF7F6
:10369000C5FF10BD10B5044621460120FFF7BEFF4F
:1036A00010BD0000C00500109C0000109A00001022
:1036B00098000010540500109E00001010B5AB4893
:1036C0000068401CA949086008460068FF21F531E0
:1036D00088420FD1002201210320FDF76BF8A44896
:1036E0000078401CA249087008460078C006C00E49
:1036F000087017E09D4800687D21C900884211D3F9
:103700009C480068401C9B4908609B480068401C1E
:1037100099490860012211460320FDF74BF800206B
:103720009249086010BD88B094489549086001F03E
:103730007EF801209349087016E18E480068012840
:103740004ED924220021904801F051FB8F4A904924
:10375000904800F053FC8D4800688D4909788C4AE8
:1037600052780092019102908A48037842788AA1A7
:10377000914801F059F924218F48FDF72CF98F4821
:1037800000680390814800688D49029003C9019147
:1037900000908C48006807907D48006806907D483E
:1037A0000088059001468848079B069A00F09DFF17
:1037B0000020854903460246009101906521834817
:1037C00000F0A9FF002081492423009101906D4859
:1037D0000278BB216C4800F0C3FF002065490860F7
:1037E00065480068032804D9FEF7AAFB0020624957
:1037F00008607748007800285ED00020744908707F
:1038000074496048007800F08FFE00284BD02422D5
:1038100000215D4801F0EBFA30226E496E48FCF75A
:1038200011FD00200346024600906B4801686B487A
:1038300000F044FF002000900346684A7221019086
:10384000624800F068FF0020604924230091019045
:103850004C480278CC214C4800F082FF4A4800F0E6
:103860009BFF494800F08CFF002000F021F9012265
:1038700000210320FCF79EFF002211460320FCF7E5
:1038800099FF012200210320FCF794FFFF20F5306F
:10389000FEF76CFB012200210320FCF78BFF0120C7
:1038A00000F006F904E000F0C2FF012000F000F98A
:1038B00008210220FCF7C7FE364840781E2814DD98
:1038C00007E0002202211046FCF774FF002000F000
:1038D000EFF8304840781E28F3DC01220221002056
:1038E000FCF768FF012000F0E3F83D48FFF7D2FE47
:1038F0003B48FDF7A9F83A4800783A4908700A466B
:1039000000210620FEF769FE35480078030002F02A
:1039100092FF0729050B11171D23290000221146CC
:103920000320FCF747FF1EE0012200210320FCF7E3
:1039300041FF18E0002202211046FCF73BFF12E095
:10394000012202210020FCF735FF0CE000F06FFFA0
:10395000012000F0ADF806E000F069FF002000F063
:10396000A7F800E000BF00BFE7E60000DC000010A1
:10397000CC000010C4000010C8000010C4060010E5
:10398000D0000010A40000107C060010AC00001055
:10399000A8000010A600001054656D703A25642E32
:1039A00025642048756D3A25642E2564204C69678E
:1039B00068743A25640D0A0042070010BC0000102C
:1039C000B4000010B000001048060010600600109F
:1039D00011010010F4060010D40000102C06001095
:1039E000D8000010D90000100FB470B56946498A9C
:1039F000481E062101F02EFA85B2681C06214843B4
:103A000084B26946088AA04201DD052606E06946BF
:103A1000098A481E062101F01DFA8EB2FEF7BBFC92
:103A200000210846059AFEF7D8FD502300226621A2
:103A30001046FEF796FD672300226C211046FEF724
:103A400090FD2023002272211046FEF78AFD2846B1
:103A50003130C3B2002278211046FEF782FD0024E7
:103A600020E06846418A062068430019401C8142D4
:103A70000BD10621694309198B0006A9CA58A11C5C
:103A8000C8B20121FEF7A9FD0AE006216943091920
:103A90008B0006A9CA58A11CC8B20021FEF79DFDE3
:103AA000601C84B2B442DCDD70BC08BC04B01847B2
:103AB00010B50446002C0ED0012C10D17F20D04927
:103AC000C8600122CF4801681046FDF76EF9012059
:103AD000FDF7A9F803E00120FDF7AFF800BF00BF34
:103AE00010BD10B5C0B0022110A801870121418787
:103AF000C5A01F90C5A02090C8A11EA8C1607822B3
:103B000022A96846FCF79EFB1EA80FC8FFF76CFFB2
:103B1000FA20FEF72BFA6BE0FEF792FA0446012C2E
:103B200006D0022C1CD0052C33D0062C55D150E0E9
:103B300010A8408F012806DD10A8408F401E81B2DA
:103B400010A8418702E010A8018F4187782222A99E
:103B50006846FCF777FB1EA80FC8FFF745FF3DE05E
:103B600010A8418F008F814206DA10A8408F401CB8
:103B700081B210A8418702E0012010A9488778226D
:103B800022A96846FCF75EFB1EA80FC8FFF72CFFB2
:103B900024E010A8408F012802D0022816D10AE0A4
:103BA000002211460320FCF705FE0022012103201C
:103BB000FCF700FE0BE0012200210320FCF7FAFDD8
:103BC000012211460320FCF7F5FD00E000BF00BF15
:103BD00004E0002010A9488700E000BF00BF002CCF
:103BE00006D010A8408F002802D0FA20FEF7BEF9B8
:103BF00010A8408F00288FD140B010BD10B5C0B0C4
:103C0000022110A801870121418788A01F9089A067
:103C100020908DA11EA8C160782222A96846FCF7D9
:103C200011FB1EA80FC8FFF7DFFEC820FEF79EF9A4
:103C30005DE0FEF705FA0446012C06D0022C1CD0EC
:103C4000052C33D0062C47D142E010A8408F012824
:103C500006DD10A8408F401E81B210A8418702E007
:103C600010A8018F4187782222A96846FCF7EAFA5A
:103C70001EA80FC8FFF7B8FE2FE010A8418F008FD5
:103C8000814206DA10A8408F401C81B210A84187FB
:103C900002E0012010A94887782222A96846FCF793
:103CA000D1FA1EA80FC8FFF79FFE16E010A8408F9C
:103CB000012802D0022808D103E00120FFF7F8FE16
:103CC00004E00020FFF7F4FE00E000BF00BF04E0C6
:103CD000002010A9488700E000BF00BF002C06D0DC
:103CE00010A8408F002802D0FA20FEF73FF910A854
:103CF000408F00289DD140B010BD10B5C0B002214A
:103D000010A801870121418754A01F9054A0209042
:103D100057A11EA8C160782222A96846FCF792FA32
:103D20001EA80FC8FFF760FEFA20FEF71FF961E03A
:103D3000FEF786F90446012C06D0022C1CD0052C77
:103D400033D0062C4BD146E010A8408F012806DD69
:103D500010A8408F401E81B210A8418702E010A831
:103D6000018F4187782222A96846FCF76BFA1EA8CA
:103D70000FC8FFF739FE33E010A8418F008F814252
:103D800006DA10A8408F401C81B210A8418702E0DB
:103D9000012010A94887782222A96846FCF752FA28
:103DA0001EA80FC8FFF720FE1AE010A8408F0128B8
:103DB00002D002280CD105E0002202211046FCF7B7
:103DC000F9FC06E0012202210020FCF7F3FC00E0F0
:103DD00000BF00BF04E0002010A9488700E000BF3A
:103DE00000BF002C06D010A8408F002802D0FA2077
:103DF000FEF7BCF810A8408F002899D140B010BD44
:103E000000800140E00000104C454400312E547504
:103E1000726E206F6E204C4544000000322E5475A7
:103E2000726E206F6666204C4544000053706561D9
:103E30006B657200312E5475726E206F6E20537058
:103E400065616B6572000000322E5475726E206FD2
:103E5000666620537065616B6572000046414E00D6
:103E6000312E5475726E206F6E2046414E00000058
:103E7000322E5475726E206F66662046414E0000E9
:103E800010B551480068401C4F49086001210020CE
:103E9000FCF731FC0446002C08D04C480068401C5C
:103EA0004A49086001210020FCF758FC032100204A
:103EB000FCF721FC002806D00120454908700321A9
:103EC0000020FCF74BFC10BD10B504210120FCF7CD
:103ED00012FC002805D001203E4908700421FCF79F
:103EE0003DFC05210120FCF706FC00280CD03A48D7
:103EF00080693A4908603A480068401C38490860BF
:103F000005210120FCF72AFC08210120FCF7F3FB26
:103F1000002805D00120334908700821FCF71EFC59
:103F200009210120FCF7E7FB002805D001202E49DC
:103F300008700921FCF712FC0A210120FCF7DBFBC9
:103F4000002805D00120294908700A21FCF706FC49
:103F50000B210120FCF7CFFB002805D001202449CC
:103F600008700B21FCF7FAFB10BD10B508210220E8
:103F7000FCF7C1FB00280AD001201E490870082167
:103F80000220FCF78CFB08210220FCF7E7FB10BDA8
:103F900010B502210320FCF7AEFB002803D002215C
:103FA0000320FCF7DBFB03210846FCF7A4FB0028F9
:103FB00008D0012010490870FFF731FA03210846A4
:103FC000FCF7CCFB10BD0000E8000010EC00001076
:103FD000170100101601001000E000E00C010010B5
:103FE000080100101201001013010010140100104C
:103FF000150100101101001010010010F0B585B07E
:1040000005460C461646631C2246691C2846FEF7E8
:104010001BFDC7B200210120FDF7DDFBFEF73AFED4
:10402000FEF739FE0120FEF749FEFEF777FE30600D
:10403000002F26D0FEF7AFF9287800906B7897A272
:10404000102101A800F006FD01AA00210120FEF7C1
:10405000C4FA20780090637893A2102101A800F0A0
:10406000F9FC01AA00210220FEF7B7FA91A2102163
:1040700001A8336800F0EEFC01AA00210320FEF73E
:10408000ACFA05B0F0BD70B505460E46002400BF81
:1040900004E0285DFFF7AFFA601CC4B2B442F8DB5D
:1040A00070BD70B505460E46002400BF04E0285DD3
:1040B000FCF7A1FC601CC4B2B442F8DB70BDF0B5E3
:1040C00089B004467E48FDF720FE0020FDF75CFE27
:1040D0002060206801F0EDF905467A4A7A4B01F03C
:1040E000EBF90022794B0191009000F095FF0391CC
:1040F000029000F053FF07467549384602F0F4FB82
:10410000054601F0FDFA20600320FDF73DFE6060EA
:10411000606801F0CEF905466A4A6B4B01F0CCF9B4
:1041200000226A4B0191009000F076FF039102900B
:1041300000F034FF07466649384602F0D5FB0546D5
:1041400001F0DEFA60600A21206800F079FE0D4679
:104150000A21206800F074FE064633465DA2152150
:1041600004A8009500F076FC04AA00210420FEF7C4
:1041700034FA012009B0F0BDF0B585B00446002541
:1041800000260027002020706070A0700021012010
:10419000FDF721FBFEF73AFFA21C611C2046FEF74B
:1041A0003AFF6057454201202056464202202056E1
:1041B0004742A21C611C2046FEF72DFF20784019C3
:1041C00040B220706078801940B26070A078C01949
:1041D00040B2A0700023E35642A21421684600F0CA
:1041E00039FC6A4600210520FEF7F7F90123E35662
:1041F0003FA21421684600F02DFC6A4600210620EB
:10420000FEF7EBF90223E3563CA21421684600F0C6
:1042100021FC6A4600210720FEF7DFF905B0F0BD5A
:1042200010B5044600210320FCF7CFFA002802D085
:104230000020207001E00120207001210320FCF704
:10424000C4FA002804D0207801210843207003E03C
:10425000207802210843207002210020FCF7B5FAE3
:10426000002802D00020607001E001206070012170
:104270000846FCF7AAFA002802D00020A07001E04E
:104280000120A0700B210220FCF79FFA002802D029
:104290000120E07001E00020E07010BD54656D70F9
:1042A0003A2025642E25640048756D3A2025642E39
:1042B000256400006C696768743A2025642000005A
:1042C000009F24009A99999999990D4000F88F4080
:1042D00000002041566F6C746167653A2025642E9A
:1042E0002564560041636320783A2025642020002D
:1042F00041636320793A20256420200041636320D4
:104300007A3A20256420200010B580220821002060
:10431000FDF74BF80120FDF729FE002208210220BD
:10432000FCF75CFA10BDF3B583B007460022072105
:104330000220FCF73FFA0498030002F07CFA065BC7
:1043400004193A40465B0A20BE4908702120487093
:10435000002088700120C870002406E0BA48015D82
:10436000201DB84A1154601CC4B2062CF6DB42E092
:104370001A20B4490870222048700020887001205B
:10438000C870002406E0B048015D201DAD4A1154FC
:10439000601CC4B2062CF6DB002407E0AB48015DCC
:1043A00020460A30A74A1154601CC4B2102CF5DB19
:1043B00021E00220A3490870012048701BE0022080
:1043C000A04908702020487015E00A209D49087017
:1043D00024204870002088700120C870002406E066
:1043E0009948015D201D974A1154601CC4B2062CE7
:1043F000F6DB00E000BF00BF9248FEF70BFF029023
:10440000AA210020FDF781F80120FDF7AFFD00256E
:10441000BB210020FDF779F8C2B228466D1C3A5442
:104420000120FDF7A3FD00260CE08648815D0020F9
:10443000FDF76BF8C2B228466D1C3A540120FDF717
:1044400095FD761C7F480078B042EED80020029996
:10445000FDF75BF878556D1CFF20F530FDF786FD04
:104460000120387000210846FDF74FF80120FDF7C4
:104470007DFD00210846FDF748F8AA2807D0022252
:1044800008210020FCF791FF002005B0F0BD0120BD
:10449000FDF76CFD00210846FDF737F8BB2806D074
:1044A000022208210020FCF780FF0020EDE7012018
:1044B000FDF75CFD63484078012806D0202807D02E
:1044C000212808D022280CD108E00B2001900BE015
:1044D0000720019008E01320019005E003200190DF
:1044E00002E00720019000BF00BF0026002509E080
:1044F00000210846FDF709F878550120FDF736FD43
:10450000761C6D1C01988642F2D3012207210220FD
:10451000FCF750F90120FDF729FD022208210020B7
:10452000FCF743FFE8B2B0E770B506460C4600253D
:1045300021464748FEF787FE0546284670BD10B560
:104540004448C06BC008C000401C4249C8630122F7
:1045500011461046FCF742F910BD70B50546FFF74D
:10456000EEFF00240AE00120FFF7A2FA7D20C00040
:10457000FDF7FCFC0020FFF79BFA641C052CF2DB26
:1045800070BD70B50446FFF7DAFF002505E022464E
:1045900001210846FCF70EF96D1C052DF7DB70BDF7
:1045A000FEB506460F46002E0AD12BA2002106209A
:1045B000FEF713F82EA200210720FEF70EF8FEBD2D
:1045C0000025002425E06C2C1DDC7B5D2AA2042143
:1045D000684600F03FFA68460378A1B20022062040
:1045E000FDF7BFFFA41D68464378A1B20022062054
:1045F000FDF7B7FFA41D68468378A1B2002206200C
:10460000FDF7AFFFA41D1EA200210720FDF7E5FF67
:104610006D1CB542D7DB00BFD1E770B505460E462D
:10462000144608210220FCF7D0F8002808D12146C2
:104630002846FFF779FF6420FDF798FC012070BD44
:104640000020FCE782070010180100102201001072
:104650009471000040400440202020202020202091
:1046600020202020202020202020202020000000AA
:104670004661696C000000002530325820000000BF
:104680004F4B0000017042707047017042707047DC
:104690000160704710B54CB2047054B244705CB203
:1046A000847010BD0160426070470170704710B5A2
:1046B000029C017042708370C47010BDF0B585B06B
:1046C00004460D4617460A9E256039A21421684605
:1046D000236800F0BFF96A4600210520FDF77DFF41
:1046E0006846FEF78FFF05B0F0BD1FB5044668466B
:1046F00080882080694609896180032203A9201DE2
:10470000FBF7A0FD07990698E160A060089820617A
:10471000099860611FBDF8B504460D4616461F4650
:10472000632D0BD0652D0ED06B2D12D0722D14D1B0
:104730001C2231462046FBF785FD0FE038782070BB
:10474000787860700AE0182220460699FBF77AFD17
:1047500004E007980078207000E000BF00BFF8BDBB
:10476000F8B504460D4616461F4625706670A770BC
:104770001C22201D0699FBF765FD07982084F8BDD3
:1047800010B50446242221460C4800F0EFFA2421FB
:104790000A48FFF786FC10BD10B5044624222146C6
:1047A000064800F0E3FA24210448FFF76CFC10BD32
:1047B000204349443A202564200000008C07001063
:1047C00010B5002819DA8B4A03071B0F083B9B081A
:1047D0009B00D2588307DC0EFF23A3409A434B076C
:1047E0001B0E8407E40EA3401A43824B0407240FD8
:1047F000083CA408A4001A5118E07F4A03231B02B6
:10480000D21883089B00D2588307DC0EFF23A340F5
:104810009A434B071B0E8407E40EA3401A43764BC2
:10482000032424021B198408A4001A5110BD38B5B2
:10483000FBF7ADFDFBF714FE0320FBF7F4FD6F481B
:104840000069C008C0006D4908610846006901217F
:1048500008436A490861012200210320FBF7BEFFDB
:10486000012200210320FBF7A5FF012211460320AE
:10487000FBF7B4FF012211460320FBF79BFF012247
:1048800002210020FBF7AAFF012202210020FBF7F2
:1048900091FF5A484030C06BC008C00057494031B2
:1048A000C8630846C06B0121084354494031C863BE
:1048B000012211461046FBF791FFFDF7F5FB202082
:1048C000FDF70DFC4E4C4F48844200D90FE020020A
:1048D000000A401E4C49486107210020C043FFF7F1
:1048E0006FFF0020484988610720086100BF002051
:1048F000FCF764FC022208210020FCF756FDFDF7BE
:10490000A1FFE1204002FCF702F802211520FFF789
:1049100057FF002003460122042100901046FBF7B8
:10492000B3FD04210120FBF78EFE00200346012287
:1049300003210090FBF7A8FD03210020FBF783FE75
:10494000002003460122082100900220FBF79CFD75
:1049500008210220FBF777FE0020034601220321F5
:1049600000900846FBF790FD03210846FBF76BFE1D
:10497000002003460122082100901046FBF784FD29
:1049800008210120FBF75FFE0020034601220921D8
:1049900000901046FBF778FD09210120FBF753FE3C
:1049A0000020034601220A2100901046FBF76CFD0F
:1049B0000A210120FBF747FE0020034601220B21BC
:1049C00000901046FBF760FD0B210120FBF73BFE3A
:1049D000FA20FDF7CBFA0120FCF7F0FB02220821B8
:1049E0000120FCF7E2FCE12149020120FEF771FD04
:1049F00038BD00001CED00E000E100E00040044094
:104A000080BB0000FFFFFF0000E000E00FB405499D
:104A100010B503AA029800F051FF10BC08BC04B006
:104A2000184700001C0000100FB41CB5084B06AA64
:104A30007B4469460090059800F025FF044600205D
:104A40006946FBF756FC20461CBC08BC04B018475E
:104A5000BFB8FFFF0FB47CB50C0009AA009001D0CD
:104A60000019401E094B7B4469460190089800F0EC
:104A70000AFF002C054603D069460020FBF739FCED
:104A800028467CBC08BC04B018470000430E000058
:104A900070B5044685690068C10601D5302600E07E
:104AA0002026C00707D070BD62683046A1689047D5
:104AB000206A401C20626D1EF6D570BD70B504469C
:104AC00085690078C00707D170BD6268A1682020A1
:104AD0009047206A401C20626D1EF6D570BD000014
:104AE000F7B5002575291068009914A611D000F0BB
:104AF0001FFE002802DA404211A608E0009909686A
:104B00008A0701D50FA602E0490704D50EA60125A4
:104B100001E000F016FE009F0024243704E000F0BE
:104B2000AFFF30313955641C0028F8D12B4632468E
:104B30002146009800F037FEFEBD00000000000096
:104B40002D0000002B00000020000000F8B50F46EB
:104B50000188090502D5224C7C4402E0204C7C44AB
:104B60000E3405460021243508E016071209360FD9
:104B7000A65D6E541E0732431B09491C16461E4390
:104B8000F3D1224604780023240705D5702F06D0E0
:104B9000002901D00223113200F005FEF8BD0123E7
:104BA0001032F9E770B504460D462146106800F052
:104BB000C8FD0023024629462046FFF7C7FF70BD07
:104BC000D21DD308DB000CCBC0E730B4036820242F
:104BD0001268234303600823C36130BC0023B5E798
:104BE00042260000F3B50446002081B02062204632
:104BF000E1688847002872D0252802D06268A16841
:104C0000ABE0594F00267F442046E16888472028C2
:104C1000054608DB312D06D27819203800780028A7
:104C200001D00643F0E7B00701D5042086430020F9
:104C3000E0610746A0612A2D0AD0284601F020FE37
:104C4000002827D0B8000019303D0090856119E098
:104C50000298BA00121902C8916102902046E168D8
:104C60008847012F054617D1E06900281FDA202068
:104C700086431CE000980A21806948430099401946
:104C8000303888612046E1688847054601F0F8FD24
:104C90000028EFD1012F0AD02E2D08D12046E1683F
:104CA00088470546202006437F1C022FC3DBA069EE
:104CB000002803DA4042A06101200643F00701D03A
:104CC000102086436C2D0BD0682D09D04C2D3CD084
:104CD0006A2D38D0742D38D07A2D36D016E040E0C9
:104CE000E1682F4620468847B842054609D16C2F17
:104CF00029D001208002E168064320468847054606
:104D000004E06C2F1DD0FF2001300643002D28D079
:104D100028464138192803D80120C002064320350F
:104D2000204626602946029A1646FBF7F9F9002824
:104D300010D001280BD0F61DF008C00008300290FA
:104D400055E74020E1E78020D5E70020D3E7361D76
:104D500002964CE762682846A1689047206A401C8A
:104D600044E7206AFEBD0000BC250000F8B5042A17
:104D70002CD3830712D00B78491C0370401C521EA1
:104D800083070BD00B78491C0370401C521E83070D
:104D900004D00B78491C0370401C521E8B079B0FDC
:104DA00005D0C91ADF002023DE1B08C90AE0FBF783
:104DB00049FAF8BD1D4608C9FD401C46B4402C43C5
:104DC00010C0121F042AF5D2F308C91A521EF0D4DB
:104DD0000B78491C0370401C521EEAD40B78491C06
:104DE0000370401C012AE4D409780170F8BDD2B2E6
:104DF00010B513029A1813049A1800F00EF810BD9B
:104E000001E004C0091F0429FBD28B0701D50280F1
:104E1000801CC90700D00270704700290BD0C3075F
:104E200002D00270401C491E022904D3830702D518
:104E30000280801C891EE3E70022EEE70022DFE704
:104E4000002203098B422CD3030A8B4211D3002387
:104E50009C464EE003460B433CD4002243088B4261
:104E600031D303098B421CD3030A8B4201D39446EE
:104E70003FE0C3098B4201D3CB01C01A52418309E1
:104E80008B4201D38B01C01A524143098B4201D39B
:104E90004B01C01A524103098B4201D30B01C01AC6
:104EA0005241C3088B4201D3CB00C01A5241830840
:104EB0008B4201D38B00C01A524143088B4201D36D
:104EC0004B00C01A5241411A00D2014652411046CD
:104ED00070475DE0CA0F00D04942031000D3404242
:104EE000534000229C4603098B422DD3030A8B4278
:104EF00012D3FC22890112BA030A8B420CD3890116
:104F000092118B4208D3890192118B4204D38901FB
:104F10003AD0921100E08909C3098B4201D3CB0139
:104F2000C01A524183098B4201D38B01C01A5241EE
:104F300043098B4201D34B01C01A524103098B42F2
:104F400001D30B01C01A5241C3088B4201D3CB00DD
:104F5000C01A524183088B4201D38B00C01A5241C0
:104F6000D9D243088B4201D34B00C01A5241411A97
:104F700000D20146634652415B10104601D34042C5
:104F8000002B00D54942704763465B1000D3404276
:104F900001B50020C046C04602BD00000246C80F51
:104FA000C00781434B0030B54B405B009B0D20D0C8
:104FB0001923DB06C91801231B05994220DB0324B2
:104FC000A40704251346AB400BD3002B04D1EB06FA
:104FD00013409B00E34204D4012464070023121908
:104FE0005941FF231B0599420BD2C9000143500FC1
:104FF00009E0CB0204D501430803024305D005486C
:1050000030BDFF21C905084330BD08460721090509
:10501000884330BD0000C07FF0B5F94D0C091E0972
:105020002C402E402F468BB0A7437DD0B543FCD0FB
:10503000002E7AD0002CFCD00D465D40ED0F2543AC
:10504000AC1BFF25AD0464190894C502440DC902C8
:105050002143500DDC0204430120C00701430443F7
:10506000D2020191200C110C00958C4601042346BC
:105070008B430A9161460904E24D8A430991010A72
:105080007D4449198039097805464D4301266D183C
:10509000F605751B6943C90C640B891C4C436418E5
:1050A000B5012C1B250C2E04B4434C434D43210C5D
:1050B000691889090591009DE90701D00121C907F7
:1050C00004912C4601996708CD072F434C08059D94
:1050D000E10B4D432D0C29466646754302950D465E
:1050E00045432E46029D7D1BB44100950D465D4310
:1050F00001942C0C2F040D465543AE462D0C3D4318
:10510000029503947546049C2D04641B049406D2F6
:10511000029C039D641C002675410395029401AC1A
:1051200070CC009F7D1B01E03EE162E1B4410904C7
:105130000095079101940599A4086143090C0C4658
:105140004443650BE7040C4666467443A646640B6D
:105150003C43039502947446049DE4042C1B049480
:1051600006D2029C039D641C00267541039502949F
:1051700001AC70CC009F7D1BB44101940C465C4394
:105180000095650FE7000C465443A646640F3C4368
:10519000039502947446049DE4002C1B049406D2EB
:1051A000029C039D641C002675410395029401AC8A
:1051B00070CC009F7D1BB441AE09AF06049DC900B1
:1051C000AD092F43049DA406AD060495079D344305
:1051D00069180791059DE10B4D432D0C2946664644
:1051E000754302950D4645432E46029D7D1BB441F5
:1051F00000950D465D4301942C0C2F040D4655433C
:10520000AE462D0C3D43029503947546049C2D0437
:10521000641B049406D2029C039D641C0026754105
:105220000395029401AC70CC009F7D1BB4410194A6
:105230008C050694079C890A611800950791019CCA
:105240000599A4086143090C0D464543680BEF041A
:105250000D46644665436C0B3C43049FED047D1B87
:10526000AC4602D20025641C6841009E019D371B9C
:1052700085410846584301950C46460FC5005443E6
:10528000600F28436546E4002C1B02D20025401C19
:105290006E41019D3F1AB5412846BD09800628434D
:1052A0008446A009BF064E020699A4067618074355
:1052B000079D002068410A99079019430020099B27
:1052C00000906046FF1913434041E20F64003A43E7
:1052D000A4460446D71A8C41A04203D9012000906D
:1052E00020463A46C70F941840416246D20F2243E7
:1052F000644664000494009CBE466400D71AA44629
:10530000044602978C417746002F01D1A04204D970
:105310006046401C8446029A2046C40FA646941854
:105320004041049A0546D20F224364466400D31AD2
:105330008D417146002901D1A84202D928461A465A
:10534000641C10430122002800D016436102002093
:10535000079B891904465C410223002C02DB491893
:1053600013466441089DCE0A2D145D194B0567054F
:10537000E10A2C050D1908993E43C9076940002B25
:1053800008D0934006D30022761C5141002B01D156
:10539000760876001C4A002D43DB154241D0AA4313
:1053A0003FD030460BB0F0BD06180D464D41174CAE
:1053B0007642AC411AD395181C465C41134A6D42A3
:1053C000A24113D3012252054C00D4420AD15C0001
:1053D000D4420BD04B4002D592021143E2E7490080
:1053E0004908DFE75940C90FC90718E000200849FC
:1053F000D8E7054801420DD10342F7D0F2E700009B
:105400000000FF07532100000000F07F0000E0FFD4
:105410000000F87F114859400143C012414000206C
:10542000C0E70123089A9B069A4205DC0322520733
:105430008918C90FC907B5E7052252078918074A15
:105440001143D2125140ADE770B515461C460246D5
:105450000B4628462146FFF7DFFD70BDFFFFFF7FAB
:105460001F22030C02D10F22000402D0030E03D02E
:1054700004E00020014670470002083A030F01D102
:105480000001121F830F01D18000921E002801DB52
:105490004000521E120551184205C0124118104614
:1054A0007047C10FC90700D0404201229207114343
:1054B000D6E701218907D3E7F0B58B4C0F092546C4
:1054C00089B0BD437BD01D092646AE43FAD00E46B7
:1054D0005E402740F60F3E43254071D02401214213
:1054E000FBD0FF24AD19A4042D1B039501252D0528
:1054F000DB02DB0AC9022B43C90A29431E01090149
:10550000040F130F050121431701880B82039143F8
:105510002D098C46A90B1E438A039543B30B9A03AE
:1055200096433F09BA0B9403A74302962E467E4347
:105530000497B6464E19D7190C4601965443059761
:105540007E43371B7646BF1B3601B646BE0B361967
:1055500000967646BC043719009C01D3641C009465
:105560006400002F01D001263443029E049F75433E
:1055700066467E430496760034196E003419009412
:10558000029C019E1C196643751BAE460694654637
:105590004519059C05956C43594375460891691A50
:1055A0000191049E01465143A41B0491611A009C81
:1055B0000791E10605D061090122114302E072E082
:1055C0006EE06109089D00272C0A2D066918049DCC
:1055D0007C412A0A2D066918019D6241AC0DAD027D
:1055E0006D185441079A910D920255196141029A22
:1055F000644658435443069B059A5A43121A131B98
:105600009A0E9B015B187A41010B0005C3185141AA
:10561000220A200644195A419A4200D2491C01200C
:105620004002814203D315230226F64302E01423ED
:105630000326F6432020C51AA9401746AF40DA409A
:105640000A4320460399D8400914731819055118C4
:10565000039A3843D2075140AC4009D0012294400C
:1056600006D30022401C5141002C01D140084000CB
:105670001E4A934212D3012203989206904207DBFE
:105680000520400709181A480143C012414004E0B0
:10569000032040070818C10FC907002009B0F0BD5A
:1056A0000020F107FAE705180C464C4111486D42FD
:1056B000A04115D394181A465A410E4864429041AD
:1056C0000ED301204A004005824209D35A0082428B
:1056D00006D35940C90F084AC90700201143DDE726
:1056E00000200649DAE700000000FF07FE0700007F
:1056F000FFFFFF7F0000E0FF0000F07F0000F87F69
:105700000102C21504D00123DB071943002A0ADB7A
:105710009E239A1A02D40846D0407047FF224100C7
:105720001206914201D900207047C017C04370474C
:1057300009684A0501D540B27047C905FCD500B2D9
:10574000704709684A0501D5C0B27047C905FCD544
:1057500080B2704770B50C460546012A05D02878FE
:10576000800600D5EA69002302E0012305E05B1C06
:10577000934202D2E05C0028F9D1A869E618C01A69
:10578000A861286AC01828622846FFF781F904E05A
:105790006A682078A968641C9047B442F8D3284608
:1057A000FFF78CF970BDFFB504460D4681B024307B
:1057B00000902168880604D51022E0699143216099
:1057C00000E00120A84201DD471B00E0002704980B
:1057D000A1697A191018081AA0612078C00602D4AD
:1057E0002046FFF755F9002608E003986268A16893
:1057F000805D9047206A401C761C20620498864297
:10580000F3DB2078C0060AD52046FFF741F906E011
:105810006268A16830209047206A401C20623846A8
:105820007F1E0028F4DC07E000986268A168405DF4
:105830009047206A401C206228466D1E0028F3DC39
:105840002046FFF73BF92078000602D5022005B07C
:10585000F0BD0120FBE711680268006A530501D51D
:10586000087009E0D30501D5088005E0130602D5CC
:10587000C21705C100E008600120704701694A1C99
:1058800002610878704700B58FB002910021059140
:105890000549019379440391114604906846FFF746
:1058A000A1F90FB000BD0000E5FFFFFF0CC90839EA
:1058B0009A4202D2531C0B6010707047084B70B5AF
:1058C0000D467B44FFF7DFFF04462846FBF71CF933
:1058D000002802D00020C04370BD204670BD0000EB
:1058E000F7B1FFFFF7B50446154686B02B4878445C
:1058F000002703C83E460090019111E007986A46D0
:105900007100415A02A800F047FB411C07D02178E2
:10591000890603D5E269391891420ED83F18761CE2
:105920002078800602D5E069B84206DDAE42E5DBAC
:1059300007987100405A0028E0D1A069C01BA061FF
:105940002046FFF7A5F8154878445A3803C8009058
:105950000020019116E041006A460798415A02A8CA
:1059600000F01AFB0590401C0AD0002505E0626893
:1059700002A8A168405D90476D1C05988542F6D34A
:105980000498401CB0420490E5DB206AC0192062F4
:105990002046FFF793F809B0F0BD0000661900003B
:1059A000F7B5D21D0025D20815A6D200F52905CAE3
:1059B00011D0002A05DA00214042914111A60A4681
:1059C00008E0009909688B0701D50FA602E0490796
:1059D00001D50EA601251146009F0024243704E0BE
:1059E00000F062F830323A55641C02460A43F7D19F
:1059F0002B46324621460098FFF7D5FEFEBD00003B
:105A0000000000002D0000002B000000200000001E
:105A100070B504460021243408E05507D2086D0F04
:105A2000303565545D072A43DB08491C15461D4384
:105A3000F3D10468002310A2250708D5A40601D4D9
:105A4000002904D0C46901230CA2641EC461FFF7BD
:105A5000AAFE70BD10B5044621461068FFF771FE1E
:105A6000002302462046FFF7D3FF10BDD21DD10808
:105A7000C9000CC9CCE700000000000030000000A5
:105A800001468008081A02091018020A1018020CB0
:105A90001018C008820012185200891A01E0401C38
:105AA0000A390A29FBD270470B4670B502468907AE
:105AB0008008084319469D08141AA94125090807BA
:105AC000054308092C194841250A01060D43010A1E
:105AD0002C194141200C0D0428430D0C00194D4197
:105AE000002140194D41C00869070843E908840FA7
:105AF0008D002543840024184D4124196D41121B4B
:105B0000AB4107E00925ED432C11521963410024F4
:105B1000401C61411C460A250026551BB441F1D2A8
:105B200070BD00007047FFB50C461E468FB003CA1B
:105B3000089009914F007D0D00D16D1E002108468F
:105B40000020C0460321099A89050840002A03DA8B
:105B50008200801840080840800D01280A9002DD6C
:105B60000020C0430A90089807430DD0F048F1493F
:105B7000281848430714189800281DD07542291E7C
:105B80001DDD0A9842421BE01898012802D000202F
:105B9000302104E00020F24305E02154401CB042D3
:105BA000FBDB30460022189B002121540F998B60AB
:105BB0000A60486013B0F0BDBD1B6D1CDFE70A9A98
:105BC000002900DA69420BA800F076FA0BAB07CB8C
:105BD00003AB07C30899099800F0DAFA6B4607C3CC
:105BE0000146D5480918002D00910BDDD2490398D4
:105BF0000A9A49424018002303A90390684600F01E
:105C000037FD08E003990A9A0023081803A90390B6
:105C1000684600F0D7FC6B4607C30004000C03D0B5
:105C20000020C043410800E01046189A002A03D023
:105C30000022009215461EE0751E05D4FFF734FFC2
:105C4000303262556D1EF9D501220843079602D005
:105C500000227F1C04E02078302801D100227F1E22
:105C6000002A069787D01EE0112D07DAFFF71CFFE8
:105C7000303262556D1C02460A43F5D1084303D009
:105C80000098002819D00EE00021681E05E0235C72
:105C9000625C63542254401E491C8142F7DBA81BFE
:105CA000401E07950690079A18990020A0540F9857
:105CB000079B069A81600CC07CE711260020189093
:105CC00059E7D21DF0B50D460446D10893B0C9007E
:105CD00003C90C900D9100F0BDFD02460D98C00F58
:105CE00001D02D2007E02068810701D52B2002E09C
:105CF0004007C00F4001032A0F9001D0072A05DB9F
:105D000003462946204600F093F90EE120788006EC
:105D100001D5E76900E006272846652D04D06628EE
:105D200014D0672D69D12DE00020112F009001DBE8
:105D3000112300E07B1C0CAA03A910A8FFF7F3FEB7
:105D40001199002610987D1C0E9142E001203B46DF
:105D50000CAAC0070B900120009003A910A8FFF720
:105D6000E2FE119D12981099002600280E9501D18F
:105D7000781C0D18781B02D446427D1C761EE81B49
:105D800000903AE0012F00DA01270020112F009047
:105D900001DD112300E03B460CAA03A910A8FFF780
:105DA000C2FE11993D46109800260E9121780907F0
:105DB0000BD40E99A94200DA0D4603A9012D04DD8A
:105DC0004A19203AD27F302A06D0B84201DA011DA2
:105DD00004DA012100910FE06D1EEFE7002802DCDC
:105DE00086192D1A03E0411CA94200DD0D46801BD7
:105DF000401C00900120C0070B902078000705D4BC
:105E00000098A84202DB0020C043009069460020B1
:105E1000C8720B98012102AF0337C907884225D009
:105E2000022010902B2011900B9800280BDA404292
:105E30000B902D20119006E00B98FFF721FE3031DA
:105E40007F1E0B9039701099481E00291090F3DCCA
:105E50000B980028F0D111987F1E3870208800051B
:105E600001D5452000E065207F1E387001A8C01BC9
:105E7000C01D0B900F98002800D0012041190098F8
:105E8000C01709180B980818A169081A401EA061CC
:105E90002078C00602D42046FEF7FAFD0F980028AD
:105EA00005D06268A1689047206A401C2062207873
:105EB000C00625D52046FEF7EBFD21E0002E07DBCE
:105EC0000E98B04204DD03A86268805DA16802E01C
:105ED0006268A16830209047206A761C401C2062CE
:105EE0000098401E002800900AD100F09DF8C0687C
:105EF00062680168405CA1689047206A401C20628B
:105F000028466D1E0028D9DC07E062683878A16851
:105F10007F1C9047206A401C20620B99481E002974
:105F20000B90F2DC2046FEF7C9FD032042E600009C
:105F300001FCFFFF104D0000E1DFFFFF10B54369DA
:105F4000002B02D0C046C04601E0FFF703FC012051
:105F500010BD1278014624310A7000224A700122D5
:105F6000ECE711680022D243E8E710B54369002B43
:105F700002D0C046C04601E0FFF7B4FC012010BDCE
:105F800012880146243182840022C2840122ECE777
:105F900011680022D243E8E770B516460C46054664
:105FA00000F03AF80368FF200230C05C012807D0F7
:105FB000FF2C0ED8185D00280BD001202C7070BD6E
:105FC000FF333246214608331868C31828469847DD
:105FD00070BD0020C04370BD754600F0A1FBAE4609
:105FE000050069465346C008C000854618B020B574
:105FF000FAF750F960BC00274908B6460026C0C52C
:10600000C0C5C0C5C0C5C0C5C0C5C0C5C0C5403D70
:1060100049008D467047000010B500F005F8001DDE
:1060200010BD00BF9908000000487047E807001045
:10603000F8B51F46044601230068DB02032601462B
:106040001840072A05DB002801D017A506E017A590
:1060500004E0002801D016A500E016A51020814319
:106060002160A069C01E002FA06101D0401EA06168
:106070002046FEF70DFD002F09D038466268A16862
:106080009047206A401C2062C01C206206E0206A03
:10609000FAE762682878A1686D1C9047761EF8D2EE
:1060A0002046FEF70BFDF8BD4E414E006E616E00BE
:1060B000494E4600696E6600F7B516468AB0334809
:1060C00078446C4603467C33C06F5A689B680DC4A5
:1060D0002E487844763003AC0DC80DC43720C0017B
:1060E000081837211B30FEF7B5FE05460C46803DEB
:1060F0001B3C02D56442012000E0002000270990EB
:1061000010E0E0070CD00C20204978437944324657
:106110004C3941186846012300F054FA6B4607C316
:1061200064107F1C002CECD1184F7F442E3F16E0EA
:10613000E80712D02001C0190EC8069108930792F3
:106140000068F04201D1981908903246012306A94F
:1061500003A800F037FA03AB07C36D10641C002DD1
:10616000E6D10998002806D032466946012303A8E3
:1061700000F07EFA05E001233246694603A800F0EC
:1061800021FA0A9B07C30DB0F0BD00009C1100006E
:10619000034640000A4610B5400D0BD00121C90747
:1061A0000F24A40200191C0364082143540D214349
:1061B000D20207E000210120F2E7D40F4900214379
:1061C0005200401E0029F8DADB0FDB07184310BD30
:1061D000FFB50D46144685B04868516800F013FBC2
:1061E00000910190A868A16800F00DFB0291039056
:1061F000A868616800F007FB029A121882420292B6
:1062000001D2012000E00020019A0B18D2180028CA
:10621000019202D08A4202D903E08A4201D20120CF
:1062200000E000200099081800906868A16800F05C
:10623000EAFA029A12188242029201D2012000E088
:106240000020019A0B18D2180028019202D08A422D
:1062500002D903E08A4201D2012000E00020009927
:106260000818009028682168400049004008490843
:106270004018FA49471814E001994000C90F084333
:106280000090019802994000C90F084301900298BC
:1062900003994000C90F08430290039840007F1EF5
:1062A000039000980028E7DA0898002801D0EC4E07
:1062B00000E00026B74201DA012000E000200028BB
:1062C00004902AD0F71BF806C00E15D0029B20219F
:1062D000091A039A8B401A430392029A019BC24007
:1062E0008B401A430292019A009BC2408B40009956
:1062F0001A430192C14000917B110DD06F460320DB
:10630000C11A03D500218200B95003E08A00810040
:10631000BA587A50401EF3D53746039802990028A0
:1063200000D00120014308980291002808460CD0B3
:10633000002800D001200199019A49050843012154
:10634000D20AC902D202019200E001210E9B012271
:10635000D207012B02D0002B03D013E0002807D175
:1063600020E0904204D890420CD1019B0B4209D00E
:10637000019B5918019105D10099491C009101D147
:106380007F1C009200280DD0102108460020C04636
:106390000498002806D00F98002803D0082108464A
:1063A0000020C04628682168019B009A4840C10F20
:1063B0000598C90739430EC009B0F0BDFFB587B0D5
:1063C000099A0898089953689268406889689646BF
:1063D0000022039317469446089A12685300099ABC
:1063E0005B081268520052089A1A9E4BD4180A9AF7
:1063F000002A01D0352200E040220692002201232B
:1064000015460492DB07059324E0002D05D175465F
:106410000346039E4D1BB34109D375466646039B55
:10642000491B049D9841059B7519AC465F41634625
:106430003B4308D0059B049EDD0776082E435B088E
:106440000496059301E0521E641EC50FED0749181E
:106450004041521C069B9A42D7DB002D04D1754661
:10646000039A6B1A824101D203200CE0039A0B4677
:106470006B404240134303D0014303D0012002E0AC
:10648000022000E000206146019100210097029166
:106490000A99002905D0614640020143704B0191E1
:1064A00002E08007002302909C4201DA012000E014
:1064B000002007003AD01A1BD006C00E15D0029D4E
:1064C0002021019C091AC5408C402543029C8C4028
:1064D00000D001242543019C0295009DC4408D40BD
:1064E00000992C430194C140009154111DD06D4678
:1064F0000221002202290CD10320001B07E0002802
:1065000004DB8600AE59002E00D00122401C032877
:10651000F5DB081B02D588002A5004E080002858CB
:1065200010438A00A850491EE3D51C460A9800284B
:1065300002980CD0002800D001200199019A490549
:1065400008430121D20AC902D202019200E00121CE
:10655000109B0122D207012B02D0002B03D013E0A5
:10656000002807D11FE0904204D890420CD1019B33
:106570000B4209D0019B5918019105D10099491C82
:10658000009101D1641C009200280CD01021084613
:106590000020C046002F06D01198002803D0082103
:1065A00008460020C04608980999019A009B006897
:1065B00009684840C10F0798C907214382600AC093
:1065C0000BB0F0BD00B585B0019300920A460146BC
:1065D000002302A8FFF7FCFD02A807C805B000BD14
:1065E000FFB50A461F4685B0079901930123009124
:1065F000014602A8FFF7ECFD02990398049ECA0F1A
:106600004900D20700920F22490892028C1A0021F9
:10661000002800DB0C46450013486D08844214D363
:10662000079A002A04DA441E0026104DF64302E0C1
:1066300004460D460E46102108460020C046002F95
:1066400003D0042108460020C0462005E90A08437B
:10665000009908436905F20A1143ADE602C0FFFF45
:10666000013C0000FF3F0000FF070000FFFFFF7F2D
:1066700000B585B0019300920A460146002302A8A6
:10668000FFF79CFE02A807C8A8E7FFB50A461F4609
:1066900085B00799019301230091014602A8FFF7F5
:1066A0008DFE02990398049ECA0F4900D2070092FA
:1066B0000F22490892028C1A0021002800DB0C46A8
:1066C000450011486D08844214D3079A002A04DA61
:1066D000441E00260D4DF64302E004460D460E46CC
:1066E000102108460020C046002F03D00421084690
:1066F0000020C0462005E90A0843009908436905BF
:10670000F20A114358E60000FF070000FFFFFF7F79
:1067100010B50446C046C0462046F9F78DFD10BDB1
:1067200000487047C8070010024670B50A43920738
:106730002AD11E4DEE0104C808C9541B94433440AD
:1067400017D0D0B2D9B2401A2106014310D190B26D
:1067500099B2401A210401430AD110021902000A19
:10676000090A401A2102014302D1100E190E401AE3
:1067700070BD9A42DFD010BA19BA884201D90120FF
:1067800070BD0020C04370BD02780B78401C491CCE
:10679000002A09D09A4207D102780B78401C491C84
:1067A000002A01D09A42EFD0D01A70BD0101010138
:1067B00070B58C180578401C6B075B0F01D103780E
:1067C000401C2A1106D10278401C03E00678401CC8
:1067D0000E70491C5B1EF9D12B0705D40023521EF5
:1067E0000DD40B70491CFAE70378401CCB1A921C9D
:1067F00003E01D780D70491C5B1C521EF9D5A142A7
:10680000D8D3002070BDF8B5040C8BB2264682B2F6
:106810005E43104658430D0C370C36040021801996
:10682000164679416E43370C360480192646794165
:106830006E438919F8BD30B47446641E2578641C13
:10684000AB4204D3635D5B00E31830BC18471D46C0
:10685000F8E700004900CA020243100000D00420FB
:106860004A0D01D001221043044A490D914201D141
:1068700002210843012800D105207047FF070000CE
:1068800030380A2801D201207047002070470000EC
:1068900010B500290AD00878002807D005487844A8
:1068A000FFF742FF002801D0002010BD02487844C5
:1068B00010BD0000760A00006E0A000010B5002925
:1068C0000AD00878002807D005487844FFF72CFF45
:1068D000002801D0002010BD0248784410BD0000FF
:1068E000660A00005E0A000070B5420064414B0079
:1068F0005C41120E39D01B0E38D0FF2A3CD0FF2B42
:106900003AD040024902400A490A060045184E435F
:10691000000A090AD2184843ED017F3A0104731AAC
:106920004019190C4318990F04D001215B0849073D
:106930005B1A521CD80904D3401CF50301D19D06F3
:1069400007D0FF2A08D2D50506D0E4072043401916
:1069500070BD0125A843F4E7002A01DCE00770BD03
:106960002402FF202043C00570BD1B0EFF2A03D068
:10697000FF2B01D0E00770BDFF2645003606B5426B
:1069800006D84D00B54203D8D218FF2A00D0E7E759
:10699000004870BD0000C07F03B4024878448446BC
:1069A00003BC604723F3FFFF0000005000000150CC
:1069B0000000025000000350000000500000015091
:1069C0000000025000000350487BD070636444799B
:1069D00040604146CC52C4C5083B90302324043962
:1069E000002001068C128485000000500000015038
:1069F00000000250000003500000FCFCFCFC000002
:106A000000FCFCFCFC000000E0E0E0E060E0E0E016
:106A1000C0000000ECECECEC000000043CFCFCF0DE
:106A20008080F0FCFC3C04000000070F1F1F1C18B6
:106A30001C1F1F0F070000001F1F1F1F001F1F1F0D
:106A40001F0000001F1F1F1F0000000000010F1F7C
:106A50001F1F1F0F010000000080E0E0F070307089
:106A6000F0E0E080000000F0F0F0F0000000000036
:106A70000000F0F0F0F03030303030000000F0F086
:106A8000F0F03070F0F0E080000F3F3F7F706070FA
:106A90007F3F3F0F0000007F7F7F7F60606060006E
:106AA00000007F7F7F7F63636363600000007F7F00
:106AB0007F7F60707F7F3F0F000000000000004F6D
:106AC00000000007000700147F147F14242A7F2A87
:106AD0001223130864623649552250000503000052
:106AE000001C2241000041221C0014083E0814082A
:106AF000083E080800503000000808080808006038
:106B000060000020100804023E5149453E00427FCB
:106B1000400042615149462141454B311814127FD2
:106B20001027454545393C4A49493001710905035B
:106B30003649494936064949291E003636000000C3
:106B40005636000008142241001414141414004195
:106B50002214080201510906324979413E7E111181
:106B6000117E7F494949363E414141227F414122C0
:106B70001C7F494949417F090909013E4149497A38
:106B80007F0808087F00417F41002040413F017F8E
:106B9000081422417F404040407F020C027F7F0466
:106BA00008107F3E4141413E7F090909063E41519F
:106BB000215E7F09192946464949493101017F0172
:106BC000013F4040403F1F2040201F3F4038403F92
:106BD00063140814630708700807615149454300AE
:106BE0007F41410002040810200041417F0004025F
:106BF000010204404040404001020400002054547F
:106C000054787F4844443838444444203844444805
:106C10007F3854545418087E090102064949493FF7
:106C20007F0804047800447D40002040443D007FFC
:106C30001028440000417F40007C0418047C7C083C
:106C400004047838444444387C1414140808141498
:106C5000187C7C080404084854545420043F4440E1
:106C6000203C4040207C1C2040201C3C4030403CCC
:106C700044281028440C5050503C4464544C440068
:106C80000836410000007F00000041360800020184
:106C90000204023E55554122000000000000007928
:106CA00000001824742E24487E4942405D2222228E
:106CB0005D15167C161500007700000A55555528FD
:106CC0000001000100000A0D0A0408142A1422041D
:106CD0000404041C0008080800010101010100026D
:106CE00005020044445F444400000402017E202069
:106CF000103E060F7F007F00181800000040502053
:106D000000000A0D0A0022142A14081708342A7DEC
:106D10001708046A593048454020702926287070A9
:106D200028262970702A252A707229262970702930
:106D3000242970702A2D2A707E117F49490E5151E5
:106D400071117C555654447C555654447C565556C6
:106D5000447C5554554400457E440000447E450023
:106D600000467D460000457C45007F4949413E7C08
:106D70000A11227D3845464438384446453838465D
:106D80004546383846454639384544453822140882
:106D900014222E5149453A3C4142403C3C4042413C
:106DA0003C3C4241423C3C4140413C0C1062110C95
:106DB0007F1212120C403E0149362055565478205D
:106DC00054565578205655567820555655782055A6
:106DD000545578205657567824547854580C5252AB
:106DE0007213385556541838545655183856555647
:106DF00018385554551800497A400000487A410027
:106E0000004A794200004A784200314A4E4A307ABC
:106E1000110A097030494A483030484A4930304AEE
:106E2000494A30304A494A31304A484A3008082AEB
:106E300008083864544C38384142207838404221A0
:106E400078384241227838424022780C5052513CE6
:106E50007E141414080C5150513C1E0909295E0877
:106E60001515354E384446452030484A49203845A6
:106E700046452030494A49207C45464538205050F7
:106E80007C031F151535510E151535467C55565585
:106E900044385556551800447C40007F48444040D3
:106EA00000497F44007C0812217C78100A09707C1C
:106EB0000912217C78110A09703847444738304B51
:106EC000484B303E417F494938443854587C151668
:106ED000354878110A09104854565520204856550F
:106EE000204855565520204956552004057E050456
:106EF000083C4822013C4245423C38424522783C0D
:106F00004340433C38434023780C1160110C4466E5
:106F1000554C44486A5948004464554C4448685AA2
:106F200048004465564D4448695A49000002010230
:106F30000000010201000001010100010202010044
:106F40000000010000000205020002010201007FB2
:106F500005153A503E55554122181408140C444A60
:106F60004A515151514A4A4474424142747E11116E
:106F7000117E7F494949367F02010103704E414E1F
:106F8000707F4949494161514945437F0808087F5D
:106F90003E4949493E00417F41007F08142241702B
:106FA0000E010E707F020C027F7F0408107F635D6C
:106FB000495D633E4141413E413F013F417F0909F7
:106FC0000906635549414101017F010103017E0129
:106FD0000308557F5508631408146307487F480762
:106FE0005E6101615E384448304C7C2A2A2A144490
:106FF00038040408304B4D593028545444200018AC
:107000005552223E0402027C3C4A4A4A3C003C4023
:1070100020007C1028444041320C30407E2020105B
:107020003E1C2040201C142B2A2A6038444444383B
:10703000443C047C4470282424180C1212526038FA
:10704000444C5424043C4420003C4040201C182460
:107050007E241844281028440C107E100C3844302C
:1070600044380A0A4A2A1E044434140C20107804B6
:107070000018084C483848487848484828187C0880
:10708000087C08281840484878405454547C00181C
:1070900000584038080808080801413D0907100851
:1070A0007C02010E0243221E42427E424222120A0A
:1070B0007F02423F02423E0A0A7F0A0A08464222F3
:1070C0001E0403423E02424242427E024F221F02FF
:1070D0004A4A40201C4222122A46023F424A4606A1
:1070E0004840201E08464A321E0A4A3E09080E0041
:1070F0004E201E04453D0504007F08100044241F57
:1071000004044042424240422A122A0622127B16BE
:10711000220040201F0078000204783F4444444489
:10712000024242221E040204083032027F0232026E
:107130001222520E002A2A2A403824222070402887
:107140001028060A3E4A4A4A047F04140C40424270
:107150007E404A4A4A4A7E040545251C0F40201FAE
:10716000007C007E40307E402010087E4242427EFD
:107170000E0242221E424240201802040102000771
:107180000507000000000050000001500000025000
:10719000000003500A210001FFFFFFFFFFFF303115
:1071A000323334353637383941424344454640302E
:1071B00058003031323334353637383961626364E0
:1071C0006566403078000400000800000000000000
:1071D0000002000100001080807F7E7D7C7B7A7938
:1071E00078777676757473727171706F6E6E6D6C80
:1071F0006C6B6A6A69686867666665646463636223
:10720000616160605F5F5E5E5D5D5C5C5B5B5A5AA6
:107210005959585857575656555555545453535213
:10722000525251515050504F4F4F4E4E4D4D4D4C6C
:107230004C4C4B4B4B4A4A4A4949494848484747B6
:1072400047474646464545454444444443434343F3
:107250004242424241414100000000000000000063
:1072600002400000000000A00000000005400000F7
:10727000000000C8000000000C4000000000409C1E
:1072800000000000194000000020BCBE000000000B
:1072900034400000BFC91B8E00000004B540000050
:1072A000504BCFD06607E2CF010000006C410000D8
:1072B0003E8251AADFEEA73401000000D94200004F
:1072C000DCB5A0E23A301F97FFFFFFFFB445000096
:1072D000FD25A0C8E9A3C14FFFFFFFFFFF3F00004E
:1072E0000000008000000000FF3F00000000008060
:1072F0000000000040740000000000103401000095
:10730000B06700006C74000034010010F408000045
:10731000040100001C00000043000000F8FFFFFF14
:107320000C0000000E0000000F0000002E00000006
:107330001001000043000000F8FFFFFF0040404044
:107340004040404040404141414141404040404038
:1073500040404040404040404040404040050202E4
:1073600002020202020202020202020202202020A3
:1073700020202020202020020202020202029090FF
:1073800090909090101010101010101010101010FD
:107390001010101010101010020202020202888851
:1073A000888888880808080808080808080808085D
:1073B0000808080808080808020202024000000045
:1073C00000000000000000000000000000000000BD
:1073D00000000000000000000000000000000000AD
:1073E000000000000000000000000000000000009D
:1073F000000000000000000000000000000000008D
:10740000000000000000000000000000000000007C
:10741000000000000000000000000000000000006C
:10742000000000000000000000000000000000005C
:10743000000000000000000000000000000000004C
:1074400011231BB7690431027F010B4CCD03863A2F
:10745000E85001327AFF011202130101120B1218D7
:0C7460002008100F0C0D0E0507000000A6
:04000005000000C136
:00000001FF
