Component: ARM Compiler 5.06 update 5 (build 528) Tool: armlink [4d35e2]

==============================================================================

Section Cross References

    startup_lpc11xx.o(STACK) refers (Special) to heapauxi.o(.text) for __use_two_region_memory
    startup_lpc11xx.o(HEAP) refers (Special) to heapauxi.o(.text) for __use_two_region_memory
    startup_lpc11xx.o(RESET) refers (Special) to heapauxi.o(.text) for __use_two_region_memory
    startup_lpc11xx.o(RESET) refers to startup_lpc11xx.o(STACK) for __initial_sp
    startup_lpc11xx.o(RESET) refers to startup_lpc11xx.o(.text) for Reset_Handler
    startup_lpc11xx.o(RESET) refers to main.o(.text) for SysTick_Handler
    startup_lpc11xx.o(RESET) refers to ssp.o(.text) for SSP1_IRQHandler
    startup_lpc11xx.o(RESET) refers to i2c.o(.text) for I2C_IRQHandler
    startup_lpc11xx.o(RESET) refers to uart.o(.text) for UART_IRQHandler
    startup_lpc11xx.o(RESET) refers to lpc11c14_it.o(.text) for PIOINT3_IRQHandler
    startup_lpc11xx.o(.ARM.__at_0x02FC) refers (Special) to heapauxi.o(.text) for __use_two_region_memory
    startup_lpc11xx.o(.text) refers (Special) to heapauxi.o(.text) for __use_two_region_memory
    startup_lpc11xx.o(.text) refers to __main.o(!!!main) for __main
    startup_lpc11xx.o(.text) refers to startup_lpc11xx.o(HEAP) for Heap_Mem
    startup_lpc11xx.o(.text) refers to startup_lpc11xx.o(STACK) for Stack_Mem
    system_lpc11xx.o(.text) refers to system_lpc11xx.o(.data) for ClockSource
    gpio.o(.text) refers to gpio.o(.constdata) for LPC_GPIO
    uart.o(.text) refers to aeabi_sdiv.o(.text) for __aeabi_uidivmod
==============================================================================

Removing Unused input sections from the image.

    Removing core_cm0.o(.emb_text), (32 bytes).
    Removing ssp.o(.bss), (32 bytes).
    Removing ssp.o(.constdata), (16 bytes).
    Removing tools.o(.constdata), (16 bytes).
    Removing main.o(.constdata), (16 bytes).
    Removing lpc11c14_it.o(.constdata), (16 bytes).

6 unused section(s) (total 128 bytes) removed from the image.

==============================================================================

Image Symbol Table

    Local Symbols

    Symbol Name                              Value     Ov Type        Size  Object(Section)

    RESET                                    0x00000000   Section      192  startup_lpc11xx.o(RESET)
    ../clib/angel/boardlib.s                 0x00000000   Number         0  boardinit3.o ABSOLUTE
    ../clib/angel/boardlib.s                 0x00000000   Number         0  boardshut.o ABSOLUTE
    ../clib/angel/boardlib.s                 0x00000000   Number         0  boardinit1.o ABSOLUTE
    ../clib/angel/boardlib.s                 0x00000000   Number         0  boardinit2.o ABSOLUTE
    ../clib/angel/handlers.s                 0x00000000   Number         0  __scatter_zi.o ABSOLUTE
    ../clib/angel/handlers.s                 0x00000000   Number         0  __scatter_copy.o ABSOLUTE
    ../clib/angel/kernel.s                   0x00000000   Number         0  __rtentry4.o ABSOLUTE
    ../clib/angel/kernel.s                   0x00000000   Number         0  __rtentry2.o ABSOLUTE
    ../clib/angel/kernel.s                   0x00000000   Number         0  __rtentry.o ABSOLUTE
    ../clib/angel/kernel.s                   0x00000000   Number         0  rtexit2.o ABSOLUTE
    ../clib/angel/kernel.s                   0x00000000   Number         0  rtexit.o ABSOLUTE
    ../clib/angel/rt.s                       0x00000000   Number         0  rt_raise.o ABSOLUTE
    ../clib/angel/rt.s                       0x00000000   Number         0  rt_div0.o ABSOLUTE
    ../clib/angel/rt.s                       0x00000000   Number         0  rt_locale.o ABSOLUTE
    ../clib/angel/rt.s                       0x00000000   Number         0  aeabi_idiv0.o ABSOLUTE
    ../clib/angel/rt.s                       0x00000000   Number         0  rt_locale_intlibspace.o ABSOLUTE
    ../clib/angel/rt.s                       0x00000000   Number         0  rt_ctype_table.o ABSOLUTE
    ../clib/angel/rt.s                       0x00000000   Number         0  aeabi_idiv0_sigfpe.o ABSOLUTE
    ../clib/angel/scatterp.s                 0x00000000   Number         0  __scatter.o ABSOLUTE
    ../clib/angel/startup.s                  0x00000000   Number         0  __main.o ABSOLUTE
    ../clib/angel/sys.s                      0x00000000   Number         0  libspace.o ABSOLUTE
    ../clib/angel/sys.s                      0x00000000   Number         0  sys_stackheap_outer.o ABSOLUTE
    ../clib/angel/sys.s                      0x00000000   Number         0  indicate_semi.o ABSOLUTE
    ../clib/angel/sys.s                      0x00000000   Number         0  tempstk.o ABSOLUTE
    ../clib/angel/sys.s                      0x00000000   Number         0  use_no_semi.o ABSOLUTE
    ../clib/angel/sysapp.c                   0x00000000   Number         0  sys_command.o ABSOLUTE
    ../clib/armsys.c                         0x00000000   Number         0  no_argv.o ABSOLUTE
    ../clib/armsys.c                         0x00000000   Number         0  argv_veneer.o ABSOLUTE
    ../clib/armsys.c                         0x00000000   Number         0  _get_argv_nomalloc.o ABSOLUTE
    ../clib/bigflt.c                         0x00000000   Number         0  bigflt0.o ABSOLUTE
    ../clib/btod.c                           0x00000000   Number         0  btod.o ABSOLUTE
    ../clib/division.c                       0x00000000   Number         0  lludiv10.o ABSOLUTE
    ../clib/division.c                       0x00000000   Number         0  rtudiv10.o ABSOLUTE
    ../clib/division.s                       0x00000000   Number         0  aeabi_sdiv_div0.o ABSOLUTE
    ../clib/division.s                       0x00000000   Number         0  aeabi_sdiv.o ABSOLUTE
    ../clib/heapalloc.c                      0x00000000   Number         0  hrguard.o ABSOLUTE
    ../clib/heapaux.c                        0x00000000   Number         0  heapauxi.o ABSOLUTE
    ../clib/libinit.s                        0x00000000   Number         0  libinit.o ABSOLUTE
    ../clib/libinit.s                        0x00000000   Number         0  libinit2.o ABSOLUTE
    ../clib/libinit.s                        0x00000000   Number         0  libshutdown.o ABSOLUTE
    ../clib/libinit.s                        0x00000000   Number         0  libshutdown2.o ABSOLUTE
    ../clib/locale.c                         0x00000000   Number         0  _wcrtomb.o ABSOLUTE
    ../clib/locale.s                         0x00000000   Number         0  lc_ctype_c.o ABSOLUTE
    ../clib/locale.s                         0x00000000   Number         0  lc_numeric_c.o ABSOLUTE
    ../clib/misc.s                           0x00000000   Number         0  printf_stubs.o ABSOLUTE
    ../clib/printf.c                         0x00000000   Number         0  _printf_intcommon.o ABSOLUTE
    ../clib/printf.c                         0x00000000   Number         0  _printf_charcount.o ABSOLUTE
    ../clib/printf.c                         0x00000000   Number         0  _printf_char_common.o ABSOLUTE
    ../clib/printf.c                         0x00000000   Number         0  _sputc.o ABSOLUTE
    ../clib/printf.c                         0x00000000   Number         0  _printf_fp_infnan.o ABSOLUTE
    ../clib/printf.c                         0x00000000   Number         0  _snputc.o ABSOLUTE
    ../clib/printf.c                         0x00000000   Number         0  _printf_char_file.o ABSOLUTE
    ../clib/printf.c                         0x00000000   Number         0  _printf_wctomb.o ABSOLUTE
    ../clib/printf.c                         0x00000000   Number         0  _printf_fp_dec.o ABSOLUTE
    ../clib/printf.c                         0x00000000   Number         0  _printf_longlong_dec.o ABSOLUTE
    ../clib/printf.c                         0x00000000   Number         0  _printf_wchar.o ABSOLUTE
    ../clib/printf.c                         0x00000000   Number         0  _printf_oct_ll.o ABSOLUTE
    ../clib/printf.c                         0x00000000   Number         0  _printf_oct_int.o ABSOLUTE
    ../clib/printf.c                         0x00000000   Number         0  _printf_oct_int_ll.o ABSOLUTE
    ../clib/printf.c                         0x00000000   Number         0  _printf_char.o ABSOLUTE
    ../clib/printf.c                         0x00000000   Number         0  __printf_nopercent.o ABSOLUTE
    ../clib/printf.c                         0x00000000   Number         0  _printf_hex_ll.o ABSOLUTE
    ../clib/printf.c                         0x00000000   Number         0  _printf_hex_int.o ABSOLUTE
    ../clib/printf.c                         0x00000000   Number         0  _printf_hex_int_ll.o ABSOLUTE
    ../clib/printf.c                         0x00000000   Number         0  _printf_hex_ptr.o ABSOLUTE
    ../clib/printf.c                         0x00000000   Number         0  _printf_hex_int_ptr.o ABSOLUTE
    ../clib/printf.c                         0x00000000   Number         0  _printf_hex_ll_ptr.o ABSOLUTE
    ../clib/printf.c                         0x00000000   Number         0  _printf_hex_int_ll_ptr.o ABSOLUTE
    ../clib/printf.c                         0x00000000   Number         0  c89vsnprintf.o ABSOLUTE
    ../clib/printf.c                         0x00000000   Number         0  __2printf.o ABSOLUTE
    ../clib/printf.c                         0x00000000   Number         0  __printf_ss_wp.o ABSOLUTE
    ../clib/printf.c                         0x00000000   Number         0  noretval__2printf.o ABSOLUTE
    ../clib/printf.c                         0x00000000   Number         0  noretval__2snprintf.o ABSOLUTE
    ../clib/printf.c                         0x00000000   Number         0  __printf.o ABSOLUTE
    ../clib/printf.c                         0x00000000   Number         0  _printf_dec.o ABSOLUTE
    ../clib/printf.c                         0x00000000   Number         0  __printf_flags.o ABSOLUTE
    ../clib/printf.c                         0x00000000   Number         0  __printf_ss.o ABSOLUTE
    ../clib/printf.c                         0x00000000   Number         0  __printf_flags_ss.o ABSOLUTE
    ../clib/printf.c                         0x00000000   Number         0  __printf_wp.o ABSOLUTE
    ../clib/printf.c                         0x00000000   Number         0  __printf_flags_wp.o ABSOLUTE
    ../clib/printf.c                         0x00000000   Number         0  __printf_flags_ss_wp.o ABSOLUTE
    ../clib/printf.c                         0x00000000   Number         0  __2snprintf.o ABSOLUTE
    ../clib/printf.c                         0x00000000   Number         0  _printf_pad.o ABSOLUTE
    ../clib/printf.c                         0x00000000   Number         0  _printf_truncate.o ABSOLUTE
    ../clib/printf.c                         0x00000000   Number         0  _printf_str.o ABSOLUTE
    ../clib/printf_percent.s                 0x00000000   Number         0  _printf_c.o ABSOLUTE
    ../clib/printf_percent.s                 0x00000000   Number         0  _printf_percent_end.o ABSOLUTE
    ../clib/printf_percent.s                 0x00000000   Number         0  _printf_s.o ABSOLUTE
    ../clib/printf_percent.s                 0x00000000   Number         0  _printf_percent.o ABSOLUTE
    ../clib/printf_percent.s                 0x00000000   Number         0  _printf_n.o ABSOLUTE
    ../clib/printf_percent.s                 0x00000000   Number         0  _printf_x.o ABSOLUTE
    ../clib/printf_percent.s                 0x00000000   Number         0  _printf_a.o ABSOLUTE
    ../clib/printf_percent.s                 0x00000000   Number         0  _printf_llx.o ABSOLUTE
    ../clib/printf_percent.s                 0x00000000   Number         0  _printf_p.o ABSOLUTE
    ../clib/printf_percent.s                 0x00000000   Number         0  _printf_o.o ABSOLUTE
    ../clib/printf_percent.s                 0x00000000   Number         0  _printf_ls.o ABSOLUTE
    ../clib/printf_percent.s                 0x00000000   Number         0  _printf_i.o ABSOLUTE
    ../clib/printf_percent.s                 0x00000000   Number         0  _printf_lc.o ABSOLUTE
    ../clib/printf_percent.s                 0x00000000   Number         0  _printf_u.o ABSOLUTE
    ../clib/printf_percent.s                 0x00000000   Number         0  _printf_lli.o ABSOLUTE
    ../clib/printf_percent.s                 0x00000000   Number         0  _printf_l.o ABSOLUTE
    ../clib/printf_percent.s                 0x00000000   Number         0  _printf_f.o ABSOLUTE
    ../clib/printf_percent.s                 0x00000000   Number         0  _printf_llo.o ABSOLUTE
    ../clib/printf_percent.s                 0x00000000   Number         0  _printf_ll.o ABSOLUTE
    ../clib/printf_percent.s                 0x00000000   Number         0  _printf_e.o ABSOLUTE
    ../clib/printf_percent.s                 0x00000000   Number         0  _printf_llu.o ABSOLUTE
    ../clib/printf_percent.s                 0x00000000   Number         0  _printf_g.o ABSOLUTE
    ../clib/printf_percent.s                 0x00000000   Number         0  _printf_lld.o ABSOLUTE
    ../clib/printf_percent.s                 0x00000000   Number         0  _printf_d.o ABSOLUTE
    ../clib/signal.c                         0x00000000   Number         0  defsig_exit.o ABSOLUTE
    ../clib/signal.c                         0x00000000   Number         0  defsig_fpe_formal.o ABSOLUTE
    ../clib/signal.c                         0x00000000   Number         0  defsig_fpe_outer.o ABSOLUTE
    ../clib/signal.c                         0x00000000   Number         0  defsig_general.o ABSOLUTE
    ../clib/signal.c                         0x00000000   Number         0  defsig_stak_inner.o ABSOLUTE
    ../clib/signal.c                         0x00000000   Number         0  defsig_segv_inner.o ABSOLUTE
    ../clib/signal.c                         0x00000000   Number         0  defsig_other.o ABSOLUTE
    ../clib/signal.c                         0x00000000   Number         0  defsig_abrt_inner.o ABSOLUTE
    ../clib/signal.c                         0x00000000   Number         0  defsig_rtred_inner.o ABSOLUTE
    ../clib/signal.c                         0x00000000   Number         0  defsig_rtmem_inner.o ABSOLUTE
    ../clib/signal.c                         0x00000000   Number         0  defsig_rtmem_outer.o ABSOLUTE
    ../clib/signal.c                         0x00000000   Number         0  defsig_rtmem_formal.o ABSOLUTE
    ../clib/signal.c                         0x00000000   Number         0  defsig_fpe_inner.o ABSOLUTE
    ../clib/signal.c                         0x00000000   Number         0  defsig_pvfn_inner.o ABSOLUTE
    ../clib/signal.c                         0x00000000   Number         0  __raise.o ABSOLUTE
    ../clib/signal.c                         0x00000000   Number         0  defsig_cppl_inner.o ABSOLUTE
    ../clib/signal.s                         0x00000000   Number         0  defsig.o ABSOLUTE
    ../clib/stdlib.c                         0x00000000   Number         0  exit.o ABSOLUTE
    ../clib/string.c                         0x00000000   Number         0  strcmp.o ABSOLUTE
    ../fplib/cfplib/fpinit.c                 0x00000000   Number         0  fpinit.o ABSOLUTE
    ../fplib/cfplib/ieee_status.c            0x00000000   Number         0  ieee_status.o ABSOLUTE
    ../fplib/printf1.s                       0x00000000   Number         0  printf1.o ABSOLUTE
    ../fplib/usenofp.s                       0x00000000   Number         0  usenofp.o ABSOLUTE
    ../mathlib/fpclassify.c                  0x00000000   Number         0  fpclassify.o ABSOLUTE
    ..\Lib_BSP\src\light.c                   0x00000000   Number         0  light.o ABSOLUTE
    ..\Lib_BSP\src\oled2864.c                0x00000000   Number         0  oled2864.o ABSOLUTE
    ..\Lib_BSP\src\tools.c                   0x00000000   Number         0  tools.o ABSOLUTE
    ..\Lib_MCU\src\core_cm0.c                0x00000000   Number         0  core_cm0.o ABSOLUTE
    ..\Lib_MCU\src\gpio.c                    0x00000000   Number         0  gpio.o ABSOLUTE
    ..\Lib_MCU\src\i2c.c                     0x00000000   Number         0  i2c.o ABSOLUTE
    ..\Lib_MCU\src\retarget.c                0x00000000   Number         0  retarget.o ABSOLUTE
    ..\Lib_MCU\src\ssp.c                     0x00000000   Number         0  ssp.o ABSOLUTE
    ..\Lib_MCU\src\startup_LPC11xx.s         0x00000000   Number         0  startup_lpc11xx.o ABSOLUTE
    ..\Lib_MCU\src\system_LPC11xx.c          0x00000000   Number         0  system_lpc11xx.o ABSOLUTE
    ..\Lib_MCU\src\uart.c                    0x00000000   Number         0  uart.o ABSOLUTE
    ..\\Lib_MCU\\src\\core_cm0.c             0x00000000   Number         0  core_cm0.o ABSOLUTE
    dc.s                                     0x00000000   Number         0  dc.o ABSOLUTE
    src\lpc11c14_it.c                        0x00000000   Number         0  lpc11c14_it.o ABSOLUTE
    src\main.c                               0x00000000   Number         0  main.o ABSOLUTE
    !!!main                                  0x000000c0   Section        8  __main.o(!!!main)
    !!!scatter                               0x000000c8   Section       60  __scatter.o(!!!scatter)
    !!handler_copy                           0x00000104   Section       26  __scatter_copy.o(!!handler_copy)
    !!handler_zi                             0x00000120   Section       28  __scatter_zi.o(!!handler_zi)
    .ARM.Collect$$_printf_percent$$00000000  0x0000013c   Section        2  _printf_percent.o(.ARM.Collect$$_printf_percent$$00000000)
    .ARM.Collect$$_printf_percent$$00000001  0x0000013e   Section       10  _printf_n.o(.ARM.Collect$$_printf_percent$$00000001)
    .ARM.Collect$$_printf_percent$$00000002  0x00000148   Section       10  _printf_p.o(.ARM.Collect$$_printf_percent$$00000002)
    .ARM.Collect$$_printf_percent$$00000003  0x00000152   Section       10  _printf_f.o(.ARM.Collect$$_printf_percent$$00000003)
    .ARM.Collect$$_printf_percent$$00000004  0x0000015c   Section       10  _printf_e.o(.ARM.Collect$$_printf_percent$$00000004)
    .ARM.Collect$$_printf_percent$$00000005  0x00000166   Section       10  _printf_g.o(.ARM.Collect$$_printf_percent$$00000005)
    .ARM.Collect$$_printf_percent$$00000006  0x00000170   Section       10  _printf_a.o(.ARM.Collect$$_printf_percent$$00000006)
    .ARM.Collect$$_printf_percent$$00000007  0x0000017a   Section       10  _printf_ll.o(.ARM.Collect$$_printf_percent$$00000007)
    .ARM.Collect$$_printf_percent$$00000008  0x00000184   Section       10  _printf_i.o(.ARM.Collect$$_printf_percent$$00000008)
    .ARM.Collect$$_printf_percent$$00000009  0x0000018e   Section       10  _printf_d.o(.ARM.Collect$$_printf_percent$$00000009)
    .ARM.Collect$$_printf_percent$$0000000A  0x00000198   Section       10  _printf_u.o(.ARM.Collect$$_printf_percent$$0000000A)
    .ARM.Collect$$_printf_percent$$0000000B  0x000001a2   Section       10  _printf_o.o(.ARM.Collect$$_printf_percent$$0000000B)
    .ARM.Collect$$_printf_percent$$0000000C  0x000001ac   Section       10  _printf_x.o(.ARM.Collect$$_printf_percent$$0000000C)
    .ARM.Collect$$_printf_percent$$0000000D  0x000001b6   Section       10  _printf_lli.o(.ARM.Collect$$_printf_percent$$0000000D)
    .ARM.Collect$$_printf_percent$$0000000E  0x000001c0   Section       10  _printf_lld.o(.ARM.Collect$$_printf_percent$$0000000E)
    .ARM.Collect$$_printf_percent$$0000000F  0x000001ca   Section       10  _printf_llu.o(.ARM.Collect$$_printf_percent$$0000000F)
    .ARM.Collect$$_printf_percent$$00000010  0x000001d4   Section       10  _printf_llo.o(.ARM.Collect$$_printf_percent$$00000010)
    .ARM.Collect$$_printf_percent$$00000011  0x000001de   Section       10  _printf_llx.o(.ARM.Collect$$_printf_percent$$00000011)
    .ARM.Collect$$_printf_percent$$00000012  0x000001e8   Section       10  _printf_l.o(.ARM.Collect$$_printf_percent$$00000012)
    .ARM.Collect$$_printf_percent$$00000013  0x000001f2   Section       10  _printf_c.o(.ARM.Collect$$_printf_percent$$00000013)
    .ARM.Collect$$_printf_percent$$00000014  0x000001fc   Section       10  _printf_s.o(.ARM.Collect$$_printf_percent$$00000014)
    .ARM.Collect$$_printf_percent$$00000015  0x00000206   Section       10  _printf_lc.o(.ARM.Collect$$_printf_percent$$00000015)
    .ARM.Collect$$_printf_percent$$00000016  0x00000210   Section       10  _printf_ls.o(.ARM.Collect$$_printf_percent$$00000016)
    .ARM.Collect$$_printf_percent$$00000017  0x0000021a   Section        4  _printf_percent_end.o(.ARM.Collect$$_printf_percent$$00000017)
    .ARM.Collect$$libinit$$00000000          0x0000021e   Section        2  libinit.o(.ARM.Collect$$libinit$$00000000)
    .ARM.Collect$$libinit$$00000002          0x00000220   Section        0  libinit2.o(.ARM.Collect$$libinit$$00000002)
    .ARM.Collect$$libinit$$00000004          0x00000220   Section        0  libinit2.o(.ARM.Collect$$libinit$$00000004)
    .ARM.Collect$$libinit$$0000000A          0x00000220   Section        0  libinit2.o(.ARM.Collect$$libinit$$0000000A)
    .ARM.Collect$$libinit$$0000000C          0x00000220   Section        0  libinit2.o(.ARM.Collect$$libinit$$0000000C)
    .ARM.Collect$$libinit$$0000000E          0x00000220   Section        0  libinit2.o(.ARM.Collect$$libinit$$0000000E)
    .ARM.Collect$$libinit$$0000000F          0x00000220   Section        6  libinit2.o(.ARM.Collect$$libinit$$0000000F)
    .ARM.Collect$$libinit$$00000011          0x00000226   Section        0  libinit2.o(.ARM.Collect$$libinit$$00000011)
    .ARM.Collect$$libinit$$00000012          0x00000226   Section       12  libinit2.o(.ARM.Collect$$libinit$$00000012)
    .ARM.Collect$$libinit$$00000013          0x00000232   Section        0  libinit2.o(.ARM.Collect$$libinit$$00000013)
    .ARM.Collect$$libinit$$00000015          0x00000232   Section        0  libinit2.o(.ARM.Collect$$libinit$$00000015)
    .ARM.Collect$$libinit$$00000016          0x00000232   Section       10  libinit2.o(.ARM.Collect$$libinit$$00000016)
    .ARM.Collect$$libinit$$00000017          0x0000023c   Section        0  libinit2.o(.ARM.Collect$$libinit$$00000017)
    .ARM.Collect$$libinit$$00000019          0x0000023c   Section        0  libinit2.o(.ARM.Collect$$libinit$$00000019)
    .ARM.Collect$$libinit$$0000001B          0x0000023c   Section        0  libinit2.o(.ARM.Collect$$libinit$$0000001B)
    .ARM.Collect$$libinit$$0000001D          0x0000023c   Section        0  libinit2.o(.ARM.Collect$$libinit$$0000001D)
    .ARM.Collect$$libinit$$0000001F          0x0000023c   Section        0  libinit2.o(.ARM.Collect$$libinit$$0000001F)
    .ARM.Collect$$libinit$$00000021          0x0000023c   Section        0  libinit2.o(.ARM.Collect$$libinit$$00000021)
    .ARM.Collect$$libinit$$00000023          0x0000023c   Section        0  libinit2.o(.ARM.Collect$$libinit$$00000023)
    .ARM.Collect$$libinit$$00000025          0x0000023c   Section        0  libinit2.o(.ARM.Collect$$libinit$$00000025)
    .ARM.Collect$$libinit$$0000002C          0x0000023c   Section        0  libinit2.o(.ARM.Collect$$libinit$$0000002C)
    .ARM.Collect$$libinit$$0000002E          0x0000023c   Section        0  libinit2.o(.ARM.Collect$$libinit$$0000002E)
    .ARM.Collect$$libinit$$00000030          0x0000023c   Section        0  libinit2.o(.ARM.Collect$$libinit$$00000030)
    .ARM.Collect$$libinit$$00000032          0x0000023c   Section        0  libinit2.o(.ARM.Collect$$libinit$$00000032)
    .ARM.Collect$$libinit$$00000033          0x0000023c   Section        2  libinit2.o(.ARM.Collect$$libinit$$00000033)
    .ARM.Collect$$libshutdown$$00000000      0x0000023e   Section        2  libshutdown.o(.ARM.Collect$$libshutdown$$00000000)
    .ARM.Collect$$libshutdown$$00000002      0x00000240   Section        0  libshutdown2.o(.ARM.Collect$$libshutdown$$00000002)
    .ARM.Collect$$libshutdown$$00000004      0x00000240   Section        0  libshutdown2.o(.ARM.Collect$$libshutdown$$00000004)
    .ARM.Collect$$libshutdown$$00000007      0x00000240   Section        0  libshutdown2.o(.ARM.Collect$$libshutdown$$00000007)
    .ARM.Collect$$libshutdown$$0000000A      0x00000240   Section        0  libshutdown2.o(.ARM.Collect$$libshutdown$$0000000A)
    .ARM.Collect$$libshutdown$$0000000C      0x00000240   Section        0  libshutdown2.o(.ARM.Collect$$libshutdown$$0000000C)
    .ARM.Collect$$libshutdown$$0000000F      0x00000240   Section        0  libshutdown2.o(.ARM.Collect$$libshutdown$$0000000F)
    .ARM.Collect$$libshutdown$$00000010      0x00000240   Section        2  libshutdown2.o(.ARM.Collect$$libshutdown$$00000010)
    .ARM.Collect$$rtentry$$00000000          0x00000242   Section        0  __rtentry.o(.ARM.Collect$$rtentry$$00000000)
    .ARM.Collect$$rtentry$$00000002          0x00000242   Section        0  __rtentry2.o(.ARM.Collect$$rtentry$$00000002)
    .ARM.Collect$$rtentry$$00000004          0x00000242   Section        6  __rtentry4.o(.ARM.Collect$$rtentry$$00000004)
    .ARM.Collect$$rtentry$$00000009          0x00000248   Section        0  __rtentry2.o(.ARM.Collect$$rtentry$$00000009)
    .ARM.Collect$$rtentry$$0000000A          0x00000248   Section        4  __rtentry2.o(.ARM.Collect$$rtentry$$0000000A)
    .ARM.Collect$$rtentry$$0000000C          0x0000024c   Section        0  __rtentry2.o(.ARM.Collect$$rtentry$$0000000C)
    .ARM.Collect$$rtentry$$0000000D          0x0000024c   Section        8  __rtentry2.o(.ARM.Collect$$rtentry$$0000000D)
    .ARM.Collect$$rtexit$$00000000           0x00000254   Section        2  rtexit.o(.ARM.Collect$$rtexit$$00000000)
    .ARM.Collect$$rtexit$$00000002           0x00000256   Section        0  rtexit2.o(.ARM.Collect$$rtexit$$00000002)
    .ARM.Collect$$rtexit$$00000003           0x00000256   Section        4  rtexit2.o(.ARM.Collect$$rtexit$$00000003)
    .ARM.Collect$$rtexit$$00000004           0x0000025a   Section        6  rtexit2.o(.ARM.Collect$$rtexit$$00000004)
    .text                                    0x00000260   Section       52  startup_lpc11xx.o(.text)
    .text                                    0x00000294   Section        2  use_no_semi.o(.text)
    .text                                    0x00000298   Section        0  c89vsnprintf.o(.text)
    .text                                    0x000002d0   Section        0  __2printf.o(.text)
    .text                                    0x000002ec   Section        0  heapauxi.o(.text)
    .text                                    0x000002f2   Section        0  _sputc.o(.text)
    .ARM.__at_0x02FC                         0x000002fc   Section        4  startup_lpc11xx.o(.ARM.__at_0x02FC)
    .text                                    0x00000300   Section        0  system_lpc11xx.o(.text)
    .text                                    0x000003e4   Section        0  gpio.o(.text)
    NVIC_EnableIRQ                           0x000007af   Thumb Code    14  gpio.o(.text)
    .text                                    0x000007d8   Section        0  uart.o(.text)
    .text                                    0x00000a2c   Section        0  retarget.o(.text)
    .text                                    0x00000ab8   Section        0  i2c.o(.text)
    .text                                    0x00000dc4   Section        0  ssp.o(.text)
    NVIC_EnableIRQ                           0x00001359   Thumb Code    14  ssp.o(.text)
    .text                                    0x00001374   Section        0  tools.o(.text)
    .text                                    0x00001408   Section        0  oled2864.o(.text)
    .text                                    0x00001d18   Section        0  light.o(.text)
    readCommandReg                           0x00001d19   Thumb Code    32  light.o(.text)
    readControlReg                           0x00001d39   Thumb Code    32  light.o(.text)
    .text                                    0x00002054   Section        0  main.o(.text)
    NVIC_SetPriority                         0x00002055   Thumb Code   110  main.o(.text)
    .text                                    0x0000217c   Section        0  lpc11c14_it.o(.text)
    .text                                    0x00002258   Section        0  __2snprintf.o(.text)
    .text                                    0x00002294   Section        0  _printf_dec.o(.text)
    .text                                    0x00002300   Section        0  __printf_flags_ss_wp.o(.text)
    .text                                    0x00002488   Section      346  aeabi_sdiv.o(.text)
    .text                                    0x000025e2   Section        0  _printf_pad.o(.text)
    .text                                    0x00002630   Section        0  _printf_truncate.o(.text)
    .text                                    0x00002654   Section        0  _printf_str.o(.text)
    .text                                    0x000026a6   Section        0  _printf_intcommon.o(.text)
    .text                                    0x00002756   Section        0  _printf_charcount.o(.text)
    .text                                    0x0000277c   Section        0  _printf_char_common.o(.text)
    _printf_input_char                       0x0000277d   Thumb Code    10  _printf_char_common.o(.text)
    .text                                    0x000027ac   Section        0  _snputc.o(.text)
    .text                                    0x000027bc   Section        0  _printf_char_file.o(.text)
    .text                                    0x000027e4   Section        0  _printf_wctomb.o(.text)
    .text                                    0x000028a0   Section        0  _printf_longlong_dec.o(.text)
    .text                                    0x00002910   Section        0  _printf_oct_int_ll.o(.text)
    _printf_longlong_oct_internal            0x00002911   Thumb Code     0  _printf_oct_int_ll.o(.text)
    .text                                    0x00002980   Section        0  _printf_hex_int_ll_ptr.o(.text)
    _printf_hex_common                       0x00002981   Thumb Code     0  _printf_hex_int_ll_ptr.o(.text)
    .text                                    0x00002a18   Section        0  rtudiv10.o(.text)
    .text                                    0x00002a40   Section        0  lludiv10.o(.text)
    .text                                    0x00002abc   Section        0  _printf_fp_dec.o(.text)
    _fp_digits                               0x00002abf   Thumb Code   412  _printf_fp_dec.o(.text)
    .text                                    0x00002ed4   Section        0  _printf_char.o(.text)
    .text                                    0x00002f02   Section        0  _printf_wchar.o(.text)
    .text                                    0x00002f30   Section        0  _wcrtomb.o(.text)
    .text                                    0x00002f70   Section       62  sys_stackheap_outer.o(.text)
    .text                                    0x00002fb0   Section       16  rt_ctype_table.o(.text)
    .text                                    0x00002fc0   Section        8  rt_locale_intlibspace.o(.text)
    .text                                    0x00002fc8   Section        0  _printf_fp_infnan.o(.text)
    .text                                    0x00003050   Section        0  bigflt0.o(.text)
    .text                                    0x00003128   Section        0  btod.o(.text)
    btod_internal_mul                        0x00003169   Thumb Code   492  btod.o(.text)
    btod_internal_div                        0x00003355   Thumb Code   520  btod.o(.text)
    .text                                    0x000036a8   Section        0  exit.o(.text)
    .text                                    0x000036b8   Section        8  libspace.o(.text)
    .text                                    0x000036c0   Section        0  strcmp.o(.text)
    i.__ARM_common_ll_muluu                  0x00003748   Section        0  btod.o(i.__ARM_common_ll_muluu)
    i.__ARM_common_switch8                   0x00003778   Section        0  i2c.o(i.__ARM_common_switch8)
    i.__ARM_fpclassify                       0x00003794   Section        0  fpclassify.o(i.__ARM_fpclassify)
    i._is_digit                              0x000037c0   Section        0  __printf_wp.o(i._is_digit)
    locale$$code                             0x000037d0   Section       44  lc_numeric_c.o(locale$$code)
    locale$$code                             0x000037fc   Section       44  lc_ctype_c.o(locale$$code)
    x$fpl$printf1                            0x00003828   Section       16  printf1.o(x$fpl$printf1)
    .constdata                               0x00003838   Section       16  gpio.o(.constdata)
    x$fpl$usenofp                            0x00003838   Section        0  usenofp.o(x$fpl$usenofp)
    LPC_GPIO                                 0x00003838   Data          16  gpio.o(.constdata)
    .constdata                               0x00003848   Section     1948  oled2864.o(.constdata)
    LPC_GPIO                                 0x00003848   Data          16  oled2864.o(.constdata)
    .constdata                               0x00003fe4   Section       17  __printf_flags_ss_wp.o(.constdata)
    maptable                                 0x00003fe4   Data          17  __printf_flags_ss_wp.o(.constdata)
    .constdata                               0x00003ff8   Section        8  _printf_wctomb.o(.constdata)
    initial_mbstate                          0x00003ff8   Data           8  _printf_wctomb.o(.constdata)
    .constdata                               0x00004000   Section       40  _printf_hex_int_ll_ptr.o(.constdata)
    uc_hextab                                0x00004000   Data          20  _printf_hex_int_ll_ptr.o(.constdata)
    lc_hextab                                0x00004014   Data          20  _printf_hex_int_ll_ptr.o(.constdata)
    .constdata                               0x00004028   Section      148  bigflt0.o(.constdata)
    tenpwrs_x                                0x00004028   Data          60  bigflt0.o(.constdata)
    tenpwrs_i                                0x00004064   Data          64  bigflt0.o(.constdata)
    locale$$data                             0x000040dc   Section       28  lc_numeric_c.o(locale$$data)
    __lcnum_c_name                           0x000040e0   Data           2  lc_numeric_c.o(locale$$data)
    __lcnum_c_start                          0x000040e8   Data           0  lc_numeric_c.o(locale$$data)
    __lcnum_c_point                          0x000040f4   Data           0  lc_numeric_c.o(locale$$data)
    __lcnum_c_thousands                      0x000040f6   Data           0  lc_numeric_c.o(locale$$data)
    __lcnum_c_grouping                       0x000040f7   Data           0  lc_numeric_c.o(locale$$data)
    locale$$data                             0x000040f8   Section      272  lc_ctype_c.o(locale$$data)
    __lcnum_c_end                            0x000040f8   Data           0  lc_numeric_c.o(locale$$data)
    __lcctype_c_name                         0x000040fc   Data           2  lc_ctype_c.o(locale$$data)
    __lcctype_c_start                        0x00004104   Data           0  lc_ctype_c.o(locale$$data)
    __lcctype_c_end                          0x00004208   Data           0  lc_ctype_c.o(locale$$data)
    .data                                    0x10000000   Section       12  system_lpc11xx.o(.data)
    .data                                    0x1000000c   Section       16  uart.o(.data)
    .data                                    0x1000001c   Section        8  retarget.o(.data)
    .data                                    0x10000024   Section       41  i2c.o(.data)
    I2CMasterState                           0x10000024   Data           4  i2c.o(.data)
    I2CSlaveState                            0x10000028   Data           4  i2c.o(.data)
    I2CMode                                  0x1000002c   Data           4  i2c.o(.data)
    I2CCount                                 0x10000030   Data           4  i2c.o(.data)
    I2CMasterBuffer                          0x10000034   Data           4  i2c.o(.data)
    I2CSlaveBuffer                           0x10000038   Data           4  i2c.o(.data)
    I2CReadLength                            0x1000003c   Data           4  i2c.o(.data)
    I2CWriteLength                           0x10000040   Data           4  i2c.o(.data)
    RdIndex                                  0x10000044   Data           4  i2c.o(.data)
    WrIndex                                  0x10000048   Data           4  i2c.o(.data)
    I2CAddr                                  0x1000004c   Data           1  i2c.o(.data)
    .data                                    0x10000050   Section       24  ssp.o(.data)
    .data                                    0x10000068   Section        8  light.o(.data)
    range                                    0x10000068   Data           4  light.o(.data)
    width                                    0x1000006c   Data           4  light.o(.data)
    .data                                    0x10000070   Section       40  lpc11c14_it.o(.data)
    .bss                                     0x10000098   Section       64  uart.o(.bss)
    .bss                                     0x100000d8   Section       96  libspace.o(.bss)
    HEAP                                     0x10000138   Section        0  startup_lpc11xx.o(HEAP)
    STACK                                    0x10000138   Section      512  startup_lpc11xx.o(STACK)
    Heap_Mem                                 0x10000138   Data           0  startup_lpc11xx.o(HEAP)
    Stack_Mem                                0x10000138   Data         512  startup_lpc11xx.o(STACK)
    __initial_sp                             0x10000338   Data           0  startup_lpc11xx.o(STACK)

    Global Symbols

    Symbol Name                              Value     Ov Type        Size  Object(Section)

    BuildAttributes$$THM_ISAv3M$S$PE$A:L22$X:L11$S22$IEEE1$IW$USESV6$~STKCKD$USESV7$~SHL$OTIME$ROPI$IEEEJ$EBA8$UX$STANDARDLIB$REQ8$PRES8$EABIv2 0x00000000   Number         0  anon$$obj.o ABSOLUTE
    __ARM_use_no_argv                        0x00000000   Number         0  main.o ABSOLUTE
    __Vectors                                0x00000000   Data           4  startup_lpc11xx.o(RESET)
    _printf_flags                            0x00000000   Number         0  printf_stubs.o ABSOLUTE
    _printf_return_value                     0x00000000   Number         0  printf_stubs.o ABSOLUTE
    _printf_sizespec                         0x00000000   Number         0  printf_stubs.o ABSOLUTE
    _printf_widthprec                        0x00000000   Number         0  printf_stubs.o ABSOLUTE
    __ARM_exceptions_init                     - Undefined Weak Reference
    __alloca_initialize                       - Undefined Weak Reference
    __arm_preinit_                            - Undefined Weak Reference
    __cpp_initialize__aeabi_                  - Undefined Weak Reference
    __cxa_finalize                            - Undefined Weak Reference
    __sigvec_lookup                           - Undefined Weak Reference
    _atexit_init                              - Undefined Weak Reference
    _call_atexit_fns                          - Undefined Weak Reference
    _clock_init                               - Undefined Weak Reference
    _fp_trap_init                             - Undefined Weak Reference
    _fp_trap_shutdown                         - Undefined Weak Reference
    _get_lc_collate                           - Undefined Weak Reference
    _get_lc_monetary                          - Undefined Weak Reference
    _get_lc_time                              - Undefined Weak Reference
    _getenv_init                              - Undefined Weak Reference
    _handle_redirection                       - Undefined Weak Reference
    _init_alloc                               - Undefined Weak Reference
    _init_user_alloc                          - Undefined Weak Reference
    _initio                                   - Undefined Weak Reference
    _printf_fp_hex                            - Undefined Weak Reference
    _printf_mbtowc                            - Undefined Weak Reference
    _printf_wc                                - Undefined Weak Reference
    _rand_init                                - Undefined Weak Reference
    _signal_finish                            - Undefined Weak Reference
    _signal_init                              - Undefined Weak Reference
    _terminate_alloc                          - Undefined Weak Reference
    _terminate_user_alloc                     - Undefined Weak Reference
    _terminateio                              - Undefined Weak Reference
    __main                                   0x000000c1   Thumb Code     8  __main.o(!!!main)
    __scatterload                            0x000000c9   Thumb Code     0  __scatter.o(!!!scatter)
    __scatterload_rt2                        0x000000c9   Thumb Code    52  __scatter.o(!!!scatter)
    __scatterload_rt2_thumb_only             0x000000c9   Thumb Code     0  __scatter.o(!!!scatter)
    __scatterload_null                       0x000000d9   Thumb Code     0  __scatter.o(!!!scatter)
    __scatterload_copy                       0x00000105   Thumb Code    26  __scatter_copy.o(!!handler_copy)
    __scatterload_zeroinit                   0x00000121   Thumb Code    28  __scatter_zi.o(!!handler_zi)
    _printf_percent                          0x0000013d   Thumb Code     0  _printf_percent.o(.ARM.Collect$$_printf_percent$$00000000)
    _printf_n                                0x0000013f   Thumb Code     0  _printf_n.o(.ARM.Collect$$_printf_percent$$00000001)
    _printf_p                                0x00000149   Thumb Code     0  _printf_p.o(.ARM.Collect$$_printf_percent$$00000002)
    _printf_f                                0x00000153   Thumb Code     0  _printf_f.o(.ARM.Collect$$_printf_percent$$00000003)
    _printf_e                                0x0000015d   Thumb Code     0  _printf_e.o(.ARM.Collect$$_printf_percent$$00000004)
    _printf_g                                0x00000167   Thumb Code     0  _printf_g.o(.ARM.Collect$$_printf_percent$$00000005)
    _printf_a                                0x00000171   Thumb Code     0  _printf_a.o(.ARM.Collect$$_printf_percent$$00000006)
    _printf_ll                               0x0000017b   Thumb Code     0  _printf_ll.o(.ARM.Collect$$_printf_percent$$00000007)
    _printf_i                                0x00000185   Thumb Code     0  _printf_i.o(.ARM.Collect$$_printf_percent$$00000008)
    _printf_d                                0x0000018f   Thumb Code     0  _printf_d.o(.ARM.Collect$$_printf_percent$$00000009)
    _printf_u                                0x00000199   Thumb Code     0  _printf_u.o(.ARM.Collect$$_printf_percent$$0000000A)
    _printf_o                                0x000001a3   Thumb Code     0  _printf_o.o(.ARM.Collect$$_printf_percent$$0000000B)
    _printf_x                                0x000001ad   Thumb Code     0  _printf_x.o(.ARM.Collect$$_printf_percent$$0000000C)
    _printf_lli                              0x000001b7   Thumb Code     0  _printf_lli.o(.ARM.Collect$$_printf_percent$$0000000D)
    _printf_lld                              0x000001c1   Thumb Code     0  _printf_lld.o(.ARM.Collect$$_printf_percent$$0000000E)
    _printf_llu                              0x000001cb   Thumb Code     0  _printf_llu.o(.ARM.Collect$$_printf_percent$$0000000F)
    _printf_llo                              0x000001d5   Thumb Code     0  _printf_llo.o(.ARM.Collect$$_printf_percent$$00000010)
    _printf_llx                              0x000001df   Thumb Code     0  _printf_llx.o(.ARM.Collect$$_printf_percent$$00000011)
    _printf_l                                0x000001e9   Thumb Code     0  _printf_l.o(.ARM.Collect$$_printf_percent$$00000012)
    _printf_c                                0x000001f3   Thumb Code     0  _printf_c.o(.ARM.Collect$$_printf_percent$$00000013)
    _printf_s                                0x000001fd   Thumb Code     0  _printf_s.o(.ARM.Collect$$_printf_percent$$00000014)
    _printf_lc                               0x00000207   Thumb Code     0  _printf_lc.o(.ARM.Collect$$_printf_percent$$00000015)
    _printf_ls                               0x00000211   Thumb Code     0  _printf_ls.o(.ARM.Collect$$_printf_percent$$00000016)
    _printf_percent_end                      0x0000021b   Thumb Code     0  _printf_percent_end.o(.ARM.Collect$$_printf_percent$$00000017)
    __rt_lib_init                            0x0000021f   Thumb Code     0  libinit.o(.ARM.Collect$$libinit$$00000000)
    __rt_lib_init_fp_1                       0x00000221   Thumb Code     0  libinit2.o(.ARM.Collect$$libinit$$00000002)
    __rt_lib_init_heap_1                     0x00000221   Thumb Code     0  libinit2.o(.ARM.Collect$$libinit$$0000000A)
    __rt_lib_init_lc_common                  0x00000221   Thumb Code     0  libinit2.o(.ARM.Collect$$libinit$$0000000F)
    __rt_lib_init_preinit_1                  0x00000221   Thumb Code     0  libinit2.o(.ARM.Collect$$libinit$$00000004)
    __rt_lib_init_rand_1                     0x00000221   Thumb Code     0  libinit2.o(.ARM.Collect$$libinit$$0000000E)
    __rt_lib_init_user_alloc_1               0x00000221   Thumb Code     0  libinit2.o(.ARM.Collect$$libinit$$0000000C)
    __rt_lib_init_lc_collate_1               0x00000227   Thumb Code     0  libinit2.o(.ARM.Collect$$libinit$$00000011)
    __rt_lib_init_lc_ctype_2                 0x00000227   Thumb Code     0  libinit2.o(.ARM.Collect$$libinit$$00000012)
    __rt_lib_init_lc_ctype_1                 0x00000233   Thumb Code     0  libinit2.o(.ARM.Collect$$libinit$$00000013)
    __rt_lib_init_lc_monetary_1              0x00000233   Thumb Code     0  libinit2.o(.ARM.Collect$$libinit$$00000015)
    __rt_lib_init_lc_numeric_2               0x00000233   Thumb Code     0  libinit2.o(.ARM.Collect$$libinit$$00000016)
    __rt_lib_init_alloca_1                   0x0000023d   Thumb Code     0  libinit2.o(.ARM.Collect$$libinit$$0000002E)
    __rt_lib_init_argv_1                     0x0000023d   Thumb Code     0  libinit2.o(.ARM.Collect$$libinit$$0000002C)
    __rt_lib_init_atexit_1                   0x0000023d   Thumb Code     0  libinit2.o(.ARM.Collect$$libinit$$0000001B)
    __rt_lib_init_clock_1                    0x0000023d   Thumb Code     0  libinit2.o(.ARM.Collect$$libinit$$00000021)
    __rt_lib_init_cpp_1                      0x0000023d   Thumb Code     0  libinit2.o(.ARM.Collect$$libinit$$00000032)
    __rt_lib_init_exceptions_1               0x0000023d   Thumb Code     0  libinit2.o(.ARM.Collect$$libinit$$00000030)
    __rt_lib_init_fp_trap_1                  0x0000023d   Thumb Code     0  libinit2.o(.ARM.Collect$$libinit$$0000001F)
    __rt_lib_init_getenv_1                   0x0000023d   Thumb Code     0  libinit2.o(.ARM.Collect$$libinit$$00000023)
    __rt_lib_init_lc_numeric_1               0x0000023d   Thumb Code     0  libinit2.o(.ARM.Collect$$libinit$$00000017)
    __rt_lib_init_lc_time_1                  0x0000023d   Thumb Code     0  libinit2.o(.ARM.Collect$$libinit$$00000019)
    __rt_lib_init_return                     0x0000023d   Thumb Code     0  libinit2.o(.ARM.Collect$$libinit$$00000033)
    __rt_lib_init_signal_1                   0x0000023d   Thumb Code     0  libinit2.o(.ARM.Collect$$libinit$$0000001D)
    __rt_lib_init_stdio_1                    0x0000023d   Thumb Code     0  libinit2.o(.ARM.Collect$$libinit$$00000025)
    __rt_lib_shutdown                        0x0000023f   Thumb Code     0  libshutdown.o(.ARM.Collect$$libshutdown$$00000000)
    __rt_lib_shutdown_cpp_1                  0x00000241   Thumb Code     0  libshutdown2.o(.ARM.Collect$$libshutdown$$00000002)
    __rt_lib_shutdown_fp_trap_1              0x00000241   Thumb Code     0  libshutdown2.o(.ARM.Collect$$libshutdown$$00000007)
    __rt_lib_shutdown_heap_1                 0x00000241   Thumb Code     0  libshutdown2.o(.ARM.Collect$$libshutdown$$0000000F)
    __rt_lib_shutdown_return                 0x00000241   Thumb Code     0  libshutdown2.o(.ARM.Collect$$libshutdown$$00000010)
    __rt_lib_shutdown_signal_1               0x00000241   Thumb Code     0  libshutdown2.o(.ARM.Collect$$libshutdown$$0000000A)
    __rt_lib_shutdown_stdio_1                0x00000241   Thumb Code     0  libshutdown2.o(.ARM.Collect$$libshutdown$$00000004)
    __rt_lib_shutdown_user_alloc_1           0x00000241   Thumb Code     0  libshutdown2.o(.ARM.Collect$$libshutdown$$0000000C)
    __rt_entry                               0x00000243   Thumb Code     0  __rtentry.o(.ARM.Collect$$rtentry$$00000000)
    __rt_entry_presh_1                       0x00000243   Thumb Code     0  __rtentry2.o(.ARM.Collect$$rtentry$$00000002)
    __rt_entry_sh                            0x00000243   Thumb Code     0  __rtentry4.o(.ARM.Collect$$rtentry$$00000004)
    __rt_entry_li                            0x00000249   Thumb Code     0  __rtentry2.o(.ARM.Collect$$rtentry$$0000000A)
    __rt_entry_postsh_1                      0x00000249   Thumb Code     0  __rtentry2.o(.ARM.Collect$$rtentry$$00000009)
    __rt_entry_main                          0x0000024d   Thumb Code     0  __rtentry2.o(.ARM.Collect$$rtentry$$0000000D)
    __rt_entry_postli_1                      0x0000024d   Thumb Code     0  __rtentry2.o(.ARM.Collect$$rtentry$$0000000C)
    __rt_exit                                0x00000255   Thumb Code     0  rtexit.o(.ARM.Collect$$rtexit$$00000000)
    __rt_exit_ls                             0x00000257   Thumb Code     0  rtexit2.o(.ARM.Collect$$rtexit$$00000003)
    __rt_exit_prels_1                        0x00000257   Thumb Code     0  rtexit2.o(.ARM.Collect$$rtexit$$00000002)
    __rt_exit_exit                           0x0000025b   Thumb Code     0  rtexit2.o(.ARM.Collect$$rtexit$$00000004)
    Reset_Handler                            0x00000261   Thumb Code     4  startup_lpc11xx.o(.text)
    NMI_Handler                              0x00000265   Thumb Code     2  startup_lpc11xx.o(.text)
    HardFault_Handler                        0x00000267   Thumb Code     2  startup_lpc11xx.o(.text)
    MemManage_Handler                        0x00000269   Thumb Code     2  startup_lpc11xx.o(.text)
    BusFault_Handler                         0x0000026b   Thumb Code     2  startup_lpc11xx.o(.text)
    UsageFault_Handler                       0x0000026d   Thumb Code     2  startup_lpc11xx.o(.text)
    SVC_Handler                              0x0000026f   Thumb Code     2  startup_lpc11xx.o(.text)
    DebugMon_Handler                         0x00000271   Thumb Code     2  startup_lpc11xx.o(.text)
    PendSV_Handler                           0x00000273   Thumb Code     2  startup_lpc11xx.o(.text)
    ADC_IRQHandler                           0x00000277   Thumb Code     0  startup_lpc11xx.o(.text)
    BOD_IRQHandler                           0x00000277   Thumb Code     0  startup_lpc11xx.o(.text)
    CAN_IRQHandler                           0x00000277   Thumb Code     0  startup_lpc11xx.o(.text)
    FMC_IRQHandler                           0x00000277   Thumb Code     0  startup_lpc11xx.o(.text)
    TIMER16_0_IRQHandler                     0x00000277   Thumb Code     0  startup_lpc11xx.o(.text)
    TIMER16_1_IRQHandler                     0x00000277   Thumb Code     0  startup_lpc11xx.o(.text)
    TIMER32_0_IRQHandler                     0x00000277   Thumb Code     0  startup_lpc11xx.o(.text)
    TIMER32_1_IRQHandler                     0x00000277   Thumb Code     0  startup_lpc11xx.o(.text)
    USB_FIQHandler                           0x00000277   Thumb Code     0  startup_lpc11xx.o(.text)
    USB_IRQHandler                           0x00000277   Thumb Code     0  startup_lpc11xx.o(.text)
    WAKEUP_IRQHandler                        0x00000277   Thumb Code     0  startup_lpc11xx.o(.text)
    WDT_IRQHandler                           0x00000277   Thumb Code     0  startup_lpc11xx.o(.text)
    __user_initial_stackheap                 0x00000279   Thumb Code     0  startup_lpc11xx.o(.text)
    __I$use$semihosting                      0x00000295   Thumb Code     0  use_no_semi.o(.text)
    __use_no_semihosting_swi                 0x00000295   Thumb Code     2  use_no_semi.o(.text)
    __c89vsnprintf                           0x00000299   Thumb Code    50  c89vsnprintf.o(.text)
    __2printf                                0x000002d1   Thumb Code    22  __2printf.o(.text)
    __use_two_region_memory                  0x000002ed   Thumb Code     2  heapauxi.o(.text)
    __rt_heap_escrow$2region                 0x000002ef   Thumb Code     2  heapauxi.o(.text)
    __rt_heap_expand$2region                 0x000002f1   Thumb Code     2  heapauxi.o(.text)
    _sputc                                   0x000002f3   Thumb Code    10  _sputc.o(.text)
    Main_PLL_Setup                           0x00000301   Thumb Code   142  system_lpc11xx.o(.text)
    SystemInit                               0x0000038f   Thumb Code    60  system_lpc11xx.o(.text)
    GPIOInit                                 0x000003e5   Thumb Code    40  gpio.o(.text)
    GPIOSetInterrupt                         0x0000040d   Thumb Code   446  gpio.o(.text)
    GPIOIntEnable                            0x000005cb   Thumb Code    88  gpio.o(.text)
    GPIOIntDisable                           0x00000623   Thumb Code    88  gpio.o(.text)
    GPIOIntStatus                            0x0000067b   Thumb Code   102  gpio.o(.text)
    GPIOIntClear                             0x000006e1   Thumb Code    88  gpio.o(.text)
    GPIOSetValue                             0x00000739   Thumb Code    22  gpio.o(.text)
    GPIOGetValue                             0x0000074f   Thumb Code    18  gpio.o(.text)
    GPIOSetDir                               0x00000761   Thumb Code    78  gpio.o(.text)
    UART_IRQHandler                          0x000007d9   Thumb Code   186  uart.o(.text)
    UARTInit                                 0x00000893   Thumb Code   200  uart.o(.text)
    UARTSend                                 0x0000095b   Thumb Code    32  uart.o(.text)
    UART0_PutChar                            0x0000097b   Thumb Code    20  uart.o(.text)
    UART0_PutString                          0x0000098f   Thumb Code    22  uart.o(.text)
    UART0_printf                             0x000009a5   Thumb Code    40  uart.o(.text)
    UART0_GetChar                            0x000009cd   Thumb Code    54  uart.o(.text)
    PutCh                                    0x00000a2d   Thumb Code    20  retarget.o(.text)
    fputc                                    0x00000a41   Thumb Code    14  retarget.o(.text)
    GetCh                                    0x00000a4f   Thumb Code    34  retarget.o(.text)
    fgetc                                    0x00000a71   Thumb Code    16  retarget.o(.text)
    _ttywrch                                 0x00000a81   Thumb Code    12  retarget.o(.text)
    ferror                                   0x00000a8d   Thumb Code     8  retarget.o(.text)
    _sys_exit                                0x00000a95   Thumb Code     4  retarget.o(.text)
    GetCh_NoIRQ                              0x00000a99   Thumb Code    20  retarget.o(.text)
    I2C_IRQHandler                           0x00000ab9   Thumb Code   398  i2c.o(.text)
    I2CStart                                 0x00000c47   Thumb Code    42  i2c.o(.text)
    I2CStop                                  0x00000c71   Thumb Code    30  i2c.o(.text)
    I2CInit                                  0x00000c8f   Thumb Code   122  i2c.o(.text)
    I2CEngine                                0x00000d09   Thumb Code    56  i2c.o(.text)
    I2CRead                                  0x00000d41   Thumb Code    44  i2c.o(.text)
    I2CWrite                                 0x00000d6d   Thumb Code    40  i2c.o(.text)
    SSP0_IRQHandler                          0x00000dc5   Thumb Code    72  ssp.o(.text)
    SSP1_IRQHandler                          0x00000e0d   Thumb Code    72  ssp.o(.text)
    SSP_IOConfig                             0x00000e55   Thumb Code   324  ssp.o(.text)
    SPI_IOConfig                             0x00000f99   Thumb Code   392  ssp.o(.text)
    SSP_Init                                 0x00001121   Thumb Code   102  ssp.o(.text)
    SPI_Init                                 0x00001187   Thumb Code   170  ssp.o(.text)
    SSP_Send                                 0x00001231   Thumb Code   106  ssp.o(.text)
    SSP_Receive                              0x0000129b   Thumb Code    76  ssp.o(.text)
    SPI_PutGet                               0x000012e7   Thumb Code   114  ssp.o(.text)
    delay_ms                                 0x00001375   Thumb Code   140  tools.o(.text)
    uDelay                                   0x00001409   Thumb Code    14  oled2864.o(.text)
    Delay                                    0x00001417   Thumb Code    48  oled2864.o(.text)
    Write_Command                            0x00001447   Thumb Code    54  oled2864.o(.text)
    Write_Data                               0x0000147d   Thumb Code    54  oled2864.o(.text)
    Set_Start_Column                         0x000014b3   Thumb Code    44  oled2864.o(.text)
    Set_Addressing_Mode                      0x000014df   Thumb Code    18  oled2864.o(.text)
    Set_Column_Address                       0x000014f1   Thumb Code    26  oled2864.o(.text)
    Set_Page_Address                         0x0000150b   Thumb Code    26  oled2864.o(.text)
    Set_Start_Line                           0x00001525   Thumb Code    16  oled2864.o(.text)
    Set_Contrast_Control                     0x00001535   Thumb Code    18  oled2864.o(.text)
    Set_Charge_Pump                          0x00001547   Thumb Code    22  oled2864.o(.text)
    Set_Segment_Remap                        0x0000155d   Thumb Code    16  oled2864.o(.text)
    Set_Entire_Display                       0x0000156d   Thumb Code    16  oled2864.o(.text)
    Set_Inverse_Display                      0x0000157d   Thumb Code    16  oled2864.o(.text)
    Set_Multiplex_Ratio                      0x0000158d   Thumb Code    18  oled2864.o(.text)
    Set_Display_On_Off                       0x0000159f   Thumb Code    16  oled2864.o(.text)
    Set_Start_Page                           0x000015af   Thumb Code    16  oled2864.o(.text)
    Set_Common_Remap                         0x000015bf   Thumb Code    16  oled2864.o(.text)
    Set_Display_Offset                       0x000015cf   Thumb Code    18  oled2864.o(.text)
    Set_Display_Clock                        0x000015e1   Thumb Code    18  oled2864.o(.text)
    Set_Precharge_Period                     0x000015f3   Thumb Code    18  oled2864.o(.text)
    Set_Common_Config                        0x00001605   Thumb Code    22  oled2864.o(.text)
    Set_VCOMH                                0x0000161b   Thumb Code    18  oled2864.o(.text)
    Set_NOP                                  0x0000162d   Thumb Code    10  oled2864.o(.text)
    Fill_RAM                                 0x00001637   Thumb Code    48  oled2864.o(.text)
    OLED_ClearScreen                         0x00001667   Thumb Code    10  oled2864.o(.text)
    Fill_Block                               0x00001671   Thumb Code    68  oled2864.o(.text)
    Checkerboard                             0x000016b5   Thumb Code    52  oled2864.o(.text)
    Frame                                    0x000016e9   Thumb Code   108  oled2864.o(.text)
    Show_Font57                              0x00001755   Thumb Code    84  oled2864.o(.text)
    Show_String                              0x000017a9   Thumb Code    60  oled2864.o(.text)
    Show_Pattern                             0x000017e5   Thumb Code    78  oled2864.o(.text)
    OLED_DisChar                             0x00001833   Thumb Code   120  oled2864.o(.text)
    OLED_DisStrLine                          0x000018ab   Thumb Code    68  oled2864.o(.text)
    Vertical_Scroll                          0x000018ef   Thumb Code   124  oled2864.o(.text)
    Horizontal_Scroll                        0x0000196b   Thumb Code    58  oled2864.o(.text)
    Continuous_Scroll                        0x000019a5   Thumb Code    82  oled2864.o(.text)
    Deactivate_Scroll                        0x000019f7   Thumb Code    10  oled2864.o(.text)
    Fade_In                                  0x00001a01   Thumb Code    44  oled2864.o(.text)
    Fade_Out                                 0x00001a2d   Thumb Code    46  oled2864.o(.text)
    Sleep                                    0x00001a5b   Thumb Code    46  oled2864.o(.text)
    Test                                     0x00001a89   Thumb Code    34  oled2864.o(.text)
    OLED_Init_E                              0x00001aab   Thumb Code   106  oled2864.o(.text)
    OLED_Init_I                              0x00001b15   Thumb Code   126  oled2864.o(.text)
    OLED_Test                                0x00001b93   Thumb Code   372  oled2864.o(.text)
    light_init                               0x00001d59   Thumb Code     2  light.o(.text)
    light_enable                             0x00001d5b   Thumb Code    38  light.o(.text)
    light_read                               0x00001d81   Thumb Code    86  light.o(.text)
    light_setMode                            0x00001dd7   Thumb Code    44  light.o(.text)
    light_setWidth                           0x00001e03   Thumb Code    98  light.o(.text)
    light_setRange                           0x00001e65   Thumb Code    96  light.o(.text)
    light_setHiThreshold                     0x00001ec5   Thumb Code    50  light.o(.text)
    light_setLoThreshold                     0x00001ef7   Thumb Code    50  light.o(.text)
    light_setIrqInCycles                     0x00001f29   Thumb Code    44  light.o(.text)
    light_getIrqStatus                       0x00001f55   Thumb Code    16  light.o(.text)
    light_clearIrqStatus                     0x00001f65   Thumb Code    36  light.o(.text)
    light_shutdown                           0x00001f89   Thumb Code    58  light.o(.text)
    Light_Test                               0x00001fc3   Thumb Code    92  light.o(.text)
    SysTick_Handler                          0x000020c3   Thumb Code     2  main.o(.text)
    main                                     0x000020c5   Thumb Code   136  main.o(.text)
    PIOINT0_IRQHandler                       0x0000217d   Thumb Code    46  lpc11c14_it.o(.text)
    PIOINT1_IRQHandler                       0x000021ab   Thumb Code    84  lpc11c14_it.o(.text)
    PIOINT2_IRQHandler                       0x000021ff   Thumb Code    34  lpc11c14_it.o(.text)
    PIOINT3_IRQHandler                       0x00002221   Thumb Code    24  lpc11c14_it.o(.text)
    __2snprintf                              0x00002259   Thumb Code    54  __2snprintf.o(.text)
    _printf_int_dec                          0x00002295   Thumb Code    90  _printf_dec.o(.text)
    __printf                                 0x00002301   Thumb Code   386  __printf_flags_ss_wp.o(.text)
    __aeabi_uidiv                            0x00002489   Thumb Code     0  aeabi_sdiv.o(.text)
    __aeabi_uidivmod                         0x00002489   Thumb Code    20  aeabi_sdiv.o(.text)
    __aeabi_idiv                             0x0000249d   Thumb Code     0  aeabi_sdiv.o(.text)
    __aeabi_idivmod                          0x0000249d   Thumb Code   326  aeabi_sdiv.o(.text)
    _printf_pre_padding                      0x000025e3   Thumb Code    44  _printf_pad.o(.text)
    _printf_post_padding                     0x0000260f   Thumb Code    34  _printf_pad.o(.text)
    _printf_truncate_signed                  0x00002631   Thumb Code    18  _printf_truncate.o(.text)
    _printf_truncate_unsigned                0x00002643   Thumb Code    18  _printf_truncate.o(.text)
    _printf_str                              0x00002655   Thumb Code    82  _printf_str.o(.text)
    _printf_int_common                       0x000026a7   Thumb Code   176  _printf_intcommon.o(.text)
    _printf_charcount                        0x00002757   Thumb Code    38  _printf_charcount.o(.text)
    _printf_char_common                      0x00002787   Thumb Code    32  _printf_char_common.o(.text)
    _snputc                                  0x000027ad   Thumb Code    16  _snputc.o(.text)
    _printf_char_file                        0x000027bd   Thumb Code    34  _printf_char_file.o(.text)
    _printf_wctomb                           0x000027e5   Thumb Code   182  _printf_wctomb.o(.text)
    _printf_longlong_dec                     0x000028a1   Thumb Code    94  _printf_longlong_dec.o(.text)
    _printf_longlong_oct                     0x00002911   Thumb Code    68  _printf_oct_int_ll.o(.text)
    _printf_int_oct                          0x00002955   Thumb Code    24  _printf_oct_int_ll.o(.text)
    _printf_ll_oct                           0x0000296d   Thumb Code    10  _printf_oct_int_ll.o(.text)
    _printf_longlong_hex                     0x00002981   Thumb Code    88  _printf_hex_int_ll_ptr.o(.text)
    _printf_int_hex                          0x000029d9   Thumb Code    28  _printf_hex_int_ll_ptr.o(.text)
    _printf_ll_hex                           0x000029f5   Thumb Code    10  _printf_hex_int_ll_ptr.o(.text)
    _printf_hex_ptr                          0x000029ff   Thumb Code    22  _printf_hex_int_ll_ptr.o(.text)
    __rt_udiv10                              0x00002a19   Thumb Code    40  rtudiv10.o(.text)
    _ll_udiv10                               0x00002a41   Thumb Code   122  lludiv10.o(.text)
    __lib_sel_fp_printf                      0x00002abd   Thumb Code     2  _printf_fp_dec.o(.text)
    _printf_fp_dec_real                      0x00002c5b   Thumb Code   620  _printf_fp_dec.o(.text)
    _printf_cs_common                        0x00002ed5   Thumb Code    22  _printf_char.o(.text)
    _printf_char                             0x00002eeb   Thumb Code    16  _printf_char.o(.text)
    _printf_string                           0x00002efb   Thumb Code     8  _printf_char.o(.text)
    _printf_lcs_common                       0x00002f03   Thumb Code    22  _printf_wchar.o(.text)
    _printf_wchar                            0x00002f19   Thumb Code    16  _printf_wchar.o(.text)
    _printf_wstring                          0x00002f29   Thumb Code     8  _printf_wchar.o(.text)
    _wcrtomb                                 0x00002f31   Thumb Code    64  _wcrtomb.o(.text)
    __user_setup_stackheap                   0x00002f71   Thumb Code    62  sys_stackheap_outer.o(.text)
    __rt_ctype_table                         0x00002fb1   Thumb Code    16  rt_ctype_table.o(.text)
    __rt_locale                              0x00002fc1   Thumb Code     8  rt_locale_intlibspace.o(.text)
    _printf_fp_infnan                        0x00002fc9   Thumb Code   120  _printf_fp_infnan.o(.text)
    _btod_etento                             0x00003051   Thumb Code   210  bigflt0.o(.text)
    _btod_d2e                                0x00003129   Thumb Code    64  btod.o(.text)
    _btod_emul                               0x0000355d   Thumb Code    28  btod.o(.text)
    _btod_emuld                              0x00003579   Thumb Code   144  btod.o(.text)
    _btod_ediv                               0x00003609   Thumb Code    26  btod.o(.text)
    _btod_edivd                              0x00003623   Thumb Code   124  btod.o(.text)
    exit                                     0x000036a9   Thumb Code    16  exit.o(.text)
    __user_libspace                          0x000036b9   Thumb Code     8  libspace.o(.text)
    __user_perproc_libspace                  0x000036b9   Thumb Code     0  libspace.o(.text)
    __user_perthread_libspace                0x000036b9   Thumb Code     0  libspace.o(.text)
    strcmp                                   0x000036c1   Thumb Code   132  strcmp.o(.text)
    __ARM_common_ll_muluu                    0x00003749   Thumb Code    48  btod.o(i.__ARM_common_ll_muluu)
    __ARM_common_switch8                     0x00003779   Thumb Code    28  i2c.o(i.__ARM_common_switch8)
    __ARM_fpclassify                         0x00003795   Thumb Code    40  fpclassify.o(i.__ARM_fpclassify)
    _is_digit                                0x000037c1   Thumb Code    14  __printf_wp.o(i._is_digit)
    _get_lc_numeric                          0x000037d1   Thumb Code    44  lc_numeric_c.o(locale$$code)
    _get_lc_ctype                            0x000037fd   Thumb Code    44  lc_ctype_c.o(locale$$code)
    _printf_fp_dec                           0x00003829   Thumb Code    16  printf1.o(x$fpl$printf1)
    __I$use$fp                               0x00003838   Number         0  usenofp.o(x$fpl$usenofp)
    UniV                                     0x00003858   Data         192  oled2864.o(.constdata)
    Ascii_1                                  0x00003918   Data        1205  oled2864.o(.constdata)
    Ascii_2                                  0x00003dcd   Data         535  oled2864.o(.constdata)
    Region$$Table$$Base                      0x000040bc   Number         0  anon$$obj.o(Region$$Table)
    Region$$Table$$Limit                     0x000040dc   Number         0  anon$$obj.o(Region$$Table)
    __ctype                                  0x00004105   Data           0  lc_ctype_c.o(locale$$data)
    ClockSource                              0x10000000   Data           4  system_lpc11xx.o(.data)
    SystemFrequency                          0x10000004   Data           4  system_lpc11xx.o(.data)
    SystemAHBFrequency                       0x10000008   Data           4  system_lpc11xx.o(.data)
    UARTStatus                               0x1000000c   Data           4  uart.o(.data)
    UARTTxEmpty                              0x10000010   Data           1  uart.o(.data)
    UARTCount                                0x10000014   Data           4  uart.o(.data)
    UART_op                                  0x10000018   Data           4  uart.o(.data)
    __stdout                                 0x1000001c   Data           4  retarget.o(.data)
    __stdin                                  0x10000020   Data           4  retarget.o(.data)
    interruptRxStat0                         0x10000050   Data           4  ssp.o(.data)
    interruptOverRunStat0                    0x10000054   Data           4  ssp.o(.data)
    interruptRxTimeoutStat0                  0x10000058   Data           4  ssp.o(.data)
    interruptRxStat1                         0x1000005c   Data           4  ssp.o(.data)
    interruptOverRunStat1                    0x10000060   Data           4  ssp.o(.data)
    interruptRxTimeoutStat1                  0x10000064   Data           4  ssp.o(.data)
    gpio0_counter                            0x10000070   Data           4  lpc11c14_it.o(.data)
    p0_1_counter                             0x10000074   Data           4  lpc11c14_it.o(.data)
    gpio1_counter                            0x10000078   Data           4  lpc11c14_it.o(.data)
    p1_1_counter                             0x1000007c   Data           4  lpc11c14_it.o(.data)
    gpio2_counter                            0x10000080   Data           4  lpc11c14_it.o(.data)
    p2_8_counter                             0x10000084   Data           4  lpc11c14_it.o(.data)
    gpio3_counter                            0x10000088   Data           4  lpc11c14_it.o(.data)
    p3_1_counter                             0x1000008c   Data           4  lpc11c14_it.o(.data)
    p3_2_counter                             0x10000090   Data           4  lpc11c14_it.o(.data)
    p3_2_tc                                  0x10000094   Data           4  lpc11c14_it.o(.data)
    UARTBuffer                               0x10000098   Data          64  uart.o(.bss)
    __libspace_start                         0x100000d8   Data          96  libspace.o(.bss)
    __temporary_stack_top$libspace           0x10000138   Data           0  libspace.o(.bss)



==============================================================================

Memory Map of the image

  Image Entry point : 0x000000c1

  Load Region LR_IROM1 (Base: 0x00000000, Size: 0x000042a0, Max: 0x00008000, ABSOLUTE)

    Execution Region ER_IROM1 (Exec base: 0x00000000, Load base: 0x00000000, Size: 0x00004208, Max: 0x00008000, ABSOLUTE)

    Exec Addr    Load Addr    Size         Type   Attr      Idx    E Section Name        Object

    0x00000000   0x00000000   0x000000c0   Data   RO            3    RESET               startup_lpc11xx.o
    0x000000c0   0x000000c0   0x00000008   Code   RO          328  * !!!main             c_p.l(__main.o)
    0x000000c8   0x000000c8   0x0000003c   Code   RO          608    !!!scatter          c_p.l(__scatter.o)
    0x00000104   0x00000104   0x0000001a   Code   RO          610    !!handler_copy      c_p.l(__scatter_copy.o)
    0x0000011e   0x0000011e   0x00000002   PAD
    0x00000120   0x00000120   0x0000001c   Code   RO          612    !!handler_zi        c_p.l(__scatter_zi.o)
    0x0000013c   0x0000013c   0x00000002   Code   RO          321    .ARM.Collect$$_printf_percent$$00000000  c_p.l(_printf_percent.o)
    0x0000013e   0x0000013e   0x0000000a   Code   RO          387    .ARM.Collect$$_printf_percent$$00000001  c_p.l(_printf_n.o)
    0x00000148   0x00000148   0x0000000a   Code   RO          389    .ARM.Collect$$_printf_percent$$00000002  c_p.l(_printf_p.o)
    0x00000152   0x00000152   0x0000000a   Code   RO          393    .ARM.Collect$$_printf_percent$$00000003  c_p.l(_printf_f.o)
    0x0000015c   0x0000015c   0x0000000a   Code   RO          394    .ARM.Collect$$_printf_percent$$00000004  c_p.l(_printf_e.o)
    0x00000166   0x00000166   0x0000000a   Code   RO          395    .ARM.Collect$$_printf_percent$$00000005  c_p.l(_printf_g.o)
    0x00000170   0x00000170   0x0000000a   Code   RO          396    .ARM.Collect$$_printf_percent$$00000006  c_p.l(_printf_a.o)
    0x0000017a   0x0000017a   0x0000000a   Code   RO          401    .ARM.Collect$$_printf_percent$$00000007  c_p.l(_printf_ll.o)
    0x00000184   0x00000184   0x0000000a   Code   RO          391    .ARM.Collect$$_printf_percent$$00000008  c_p.l(_printf_i.o)
    0x0000018e   0x0000018e   0x0000000a   Code   RO          320    .ARM.Collect$$_printf_percent$$00000009  c_p.l(_printf_d.o)
    0x00000198   0x00000198   0x0000000a   Code   RO          392    .ARM.Collect$$_printf_percent$$0000000A  c_p.l(_printf_u.o)
    0x000001a2   0x000001a2   0x0000000a   Code   RO          390    .ARM.Collect$$_printf_percent$$0000000B  c_p.l(_printf_o.o)
    0x000001ac   0x000001ac   0x0000000a   Code   RO          388    .ARM.Collect$$_printf_percent$$0000000C  c_p.l(_printf_x.o)
    0x000001b6   0x000001b6   0x0000000a   Code   RO          398    .ARM.Collect$$_printf_percent$$0000000D  c_p.l(_printf_lli.o)
    0x000001c0   0x000001c0   0x0000000a   Code   RO          399    .ARM.Collect$$_printf_percent$$0000000E  c_p.l(_printf_lld.o)
    0x000001ca   0x000001ca   0x0000000a   Code   RO          400    .ARM.Collect$$_printf_percent$$0000000F  c_p.l(_printf_llu.o)
    0x000001d4   0x000001d4   0x0000000a   Code   RO          405    .ARM.Collect$$_printf_percent$$00000010  c_p.l(_printf_llo.o)
    0x000001de   0x000001de   0x0000000a   Code   RO          406    .ARM.Collect$$_printf_percent$$00000011  c_p.l(_printf_llx.o)
    0x000001e8   0x000001e8   0x0000000a   Code   RO          402    .ARM.Collect$$_printf_percent$$00000012  c_p.l(_printf_l.o)
    0x000001f2   0x000001f2   0x0000000a   Code   RO          385    .ARM.Collect$$_printf_percent$$00000013  c_p.l(_printf_c.o)
    0x000001fc   0x000001fc   0x0000000a   Code   RO          386    .ARM.Collect$$_printf_percent$$00000014  c_p.l(_printf_s.o)
    0x00000206   0x00000206   0x0000000a   Code   RO          403    .ARM.Collect$$_printf_percent$$00000015  c_p.l(_printf_lc.o)
    0x00000210   0x00000210   0x0000000a   Code   RO          404    .ARM.Collect$$_printf_percent$$00000016  c_p.l(_printf_ls.o)
    0x0000021a   0x0000021a   0x00000004   Code   RO          397    .ARM.Collect$$_printf_percent$$00000017  c_p.l(_printf_percent_end.o)
    0x0000021e   0x0000021e   0x00000002   Code   RO          473    .ARM.Collect$$libinit$$00000000  c_p.l(libinit.o)
    0x00000220   0x00000220   0x00000000   Code   RO          497    .ARM.Collect$$libinit$$00000002  c_p.l(libinit2.o)
    0x00000220   0x00000220   0x00000000   Code   RO          499    .ARM.Collect$$libinit$$00000004  c_p.l(libinit2.o)
    0x00000220   0x00000220   0x00000000   Code   RO          502    .ARM.Collect$$libinit$$0000000A  c_p.l(libinit2.o)
    0x00000220   0x00000220   0x00000000   Code   RO          504    .ARM.Collect$$libinit$$0000000C  c_p.l(libinit2.o)
    0x00000220   0x00000220   0x00000000   Code   RO          506    .ARM.Collect$$libinit$$0000000E  c_p.l(libinit2.o)
    0x00000220   0x00000220   0x00000006   Code   RO          507    .ARM.Collect$$libinit$$0000000F  c_p.l(libinit2.o)
    0x00000226   0x00000226   0x00000000   Code   RO          509    .ARM.Collect$$libinit$$00000011  c_p.l(libinit2.o)
    0x00000226   0x00000226   0x0000000c   Code   RO          510    .ARM.Collect$$libinit$$00000012  c_p.l(libinit2.o)
    0x00000232   0x00000232   0x00000000   Code   RO          511    .ARM.Collect$$libinit$$00000013  c_p.l(libinit2.o)
    0x00000232   0x00000232   0x00000000   Code   RO          513    .ARM.Collect$$libinit$$00000015  c_p.l(libinit2.o)
    0x00000232   0x00000232   0x0000000a   Code   RO          514    .ARM.Collect$$libinit$$00000016  c_p.l(libinit2.o)
    0x0000023c   0x0000023c   0x00000000   Code   RO          515    .ARM.Collect$$libinit$$00000017  c_p.l(libinit2.o)
    0x0000023c   0x0000023c   0x00000000   Code   RO          517    .ARM.Collect$$libinit$$00000019  c_p.l(libinit2.o)
    0x0000023c   0x0000023c   0x00000000   Code   RO          519    .ARM.Collect$$libinit$$0000001B  c_p.l(libinit2.o)
    0x0000023c   0x0000023c   0x00000000   Code   RO          521    .ARM.Collect$$libinit$$0000001D  c_p.l(libinit2.o)
    0x0000023c   0x0000023c   0x00000000   Code   RO          523    .ARM.Collect$$libinit$$0000001F  c_p.l(libinit2.o)
    0x0000023c   0x0000023c   0x00000000   Code   RO          525    .ARM.Collect$$libinit$$00000021  c_p.l(libinit2.o)
    0x0000023c   0x0000023c   0x00000000   Code   RO          527    .ARM.Collect$$libinit$$00000023  c_p.l(libinit2.o)
    0x0000023c   0x0000023c   0x00000000   Code   RO          529    .ARM.Collect$$libinit$$00000025  c_p.l(libinit2.o)
    0x0000023c   0x0000023c   0x00000000   Code   RO          533    .ARM.Collect$$libinit$$0000002C  c_p.l(libinit2.o)
    0x0000023c   0x0000023c   0x00000000   Code   RO          535    .ARM.Collect$$libinit$$0000002E  c_p.l(libinit2.o)
    0x0000023c   0x0000023c   0x00000000   Code   RO          537    .ARM.Collect$$libinit$$00000030  c_p.l(libinit2.o)
    0x0000023c   0x0000023c   0x00000000   Code   RO          539    .ARM.Collect$$libinit$$00000032  c_p.l(libinit2.o)
    0x0000023c   0x0000023c   0x00000002   Code   RO          540    .ARM.Collect$$libinit$$00000033  c_p.l(libinit2.o)
    0x0000023e   0x0000023e   0x00000002   Code   RO          564    .ARM.Collect$$libshutdown$$00000000  c_p.l(libshutdown.o)
    0x00000240   0x00000240   0x00000000   Code   RO          590    .ARM.Collect$$libshutdown$$00000002  c_p.l(libshutdown2.o)
    0x00000240   0x00000240   0x00000000   Code   RO          592    .ARM.Collect$$libshutdown$$00000004  c_p.l(libshutdown2.o)
    0x00000240   0x00000240   0x00000000   Code   RO          595    .ARM.Collect$$libshutdown$$00000007  c_p.l(libshutdown2.o)
    0x00000240   0x00000240   0x00000000   Code   RO          598    .ARM.Collect$$libshutdown$$0000000A  c_p.l(libshutdown2.o)
    0x00000240   0x00000240   0x00000000   Code   RO          600    .ARM.Collect$$libshutdown$$0000000C  c_p.l(libshutdown2.o)
    0x00000240   0x00000240   0x00000000   Code   RO          603    .ARM.Collect$$libshutdown$$0000000F  c_p.l(libshutdown2.o)
    0x00000240   0x00000240   0x00000002   Code   RO          604    .ARM.Collect$$libshutdown$$00000010  c_p.l(libshutdown2.o)
    0x00000242   0x00000242   0x00000000   Code   RO          330    .ARM.Collect$$rtentry$$00000000  c_p.l(__rtentry.o)
    0x00000242   0x00000242   0x00000000   Code   RO          412    .ARM.Collect$$rtentry$$00000002  c_p.l(__rtentry2.o)
    0x00000242   0x00000242   0x00000006   Code   RO          424    .ARM.Collect$$rtentry$$00000004  c_p.l(__rtentry4.o)
    0x00000248   0x00000248   0x00000000   Code   RO          414    .ARM.Collect$$rtentry$$00000009  c_p.l(__rtentry2.o)
    0x00000248   0x00000248   0x00000004   Code   RO          415    .ARM.Collect$$rtentry$$0000000A  c_p.l(__rtentry2.o)
    0x0000024c   0x0000024c   0x00000000   Code   RO          417    .ARM.Collect$$rtentry$$0000000C  c_p.l(__rtentry2.o)
    0x0000024c   0x0000024c   0x00000008   Code   RO          418    .ARM.Collect$$rtentry$$0000000D  c_p.l(__rtentry2.o)
    0x00000254   0x00000254   0x00000002   Code   RO          483    .ARM.Collect$$rtexit$$00000000  c_p.l(rtexit.o)
    0x00000256   0x00000256   0x00000000   Code   RO          542    .ARM.Collect$$rtexit$$00000002  c_p.l(rtexit2.o)
    0x00000256   0x00000256   0x00000004   Code   RO          543    .ARM.Collect$$rtexit$$00000003  c_p.l(rtexit2.o)
    0x0000025a   0x0000025a   0x00000006   Code   RO          544    .ARM.Collect$$rtexit$$00000004  c_p.l(rtexit2.o)
    0x00000260   0x00000260   0x00000034   Code   RO            5    .text               startup_lpc11xx.o
    0x00000294   0x00000294   0x00000002   Code   RO          284    .text               c_p.l(use_no_semi.o)
    0x00000296   0x00000296   0x00000002   PAD
    0x00000298   0x00000298   0x00000038   Code   RO          286    .text               c_p.l(c89vsnprintf.o)
    0x000002d0   0x000002d0   0x0000001c   Code   RO          288    .text               c_p.l(__2printf.o)
    0x000002ec   0x000002ec   0x00000006   Code   RO          326    .text               c_p.l(heapauxi.o)
    0x000002f2   0x000002f2   0x0000000a   Code   RO          347    .text               c_p.l(_sputc.o)
    0x000002fc   0x000002fc   0x00000004   Code   RO            4    .ARM.__at_0x02FC    startup_lpc11xx.o
    0x00000300   0x00000300   0x000000e4   Code   RO           27    .text               system_lpc11xx.o
    0x000003e4   0x000003e4   0x000003f4   Code   RO           51    .text               gpio.o
    0x000007d8   0x000007d8   0x00000254   Code   RO           75    .text               uart.o
    0x00000a2c   0x00000a2c   0x0000008c   Code   RO          104    .text               retarget.o
    0x00000ab8   0x00000ab8   0x0000030c   Code   RO          130    .text               i2c.o
    0x00000dc4   0x00000dc4   0x000005b0   Code   RO          158    .text               ssp.o
    0x00001374   0x00001374   0x00000094   Code   RO          178    .text               tools.o
    0x00001408   0x00001408   0x00000910   Code   RO          202    .text               oled2864.o
    0x00001d18   0x00001d18   0x0000033c   Code   RO          217    .text               light.o
    0x00002054   0x00002054   0x00000128   Code   RO          240    .text               main.o
    0x0000217c   0x0000217c   0x000000dc   Code   RO          266    .text               lpc11c14_it.o
    0x00002258   0x00002258   0x0000003c   Code   RO          290    .text               c_p.l(__2snprintf.o)
    0x00002294   0x00002294   0x0000006c   Code   RO          298    .text               c_p.l(_printf_dec.o)
    0x00002300   0x00002300   0x00000188   Code   RO          317    .text               c_p.l(__printf_flags_ss_wp.o)
    0x00002488   0x00002488   0x0000015a   Code   RO          322    .text               c_p.l(aeabi_sdiv.o)
    0x000025e2   0x000025e2   0x0000004e   Code   RO          335    .text               c_p.l(_printf_pad.o)
    0x00002630   0x00002630   0x00000024   Code   RO          337    .text               c_p.l(_printf_truncate.o)
    0x00002654   0x00002654   0x00000052   Code   RO          339    .text               c_p.l(_printf_str.o)
    0x000026a6   0x000026a6   0x000000b0   Code   RO          341    .text               c_p.l(_printf_intcommon.o)
    0x00002756   0x00002756   0x00000026   Code   RO          343    .text               c_p.l(_printf_charcount.o)
    0x0000277c   0x0000277c   0x00000030   Code   RO          345    .text               c_p.l(_printf_char_common.o)
    0x000027ac   0x000027ac   0x00000010   Code   RO          349    .text               c_p.l(_snputc.o)
    0x000027bc   0x000027bc   0x00000028   Code   RO          351    .text               c_p.l(_printf_char_file.o)
    0x000027e4   0x000027e4   0x000000bc   Code   RO          353    .text               c_p.l(_printf_wctomb.o)
    0x000028a0   0x000028a0   0x00000070   Code   RO          356    .text               c_p.l(_printf_longlong_dec.o)
    0x00002910   0x00002910   0x00000070   Code   RO          362    .text               c_p.l(_printf_oct_int_ll.o)
    0x00002980   0x00002980   0x00000098   Code   RO          382    .text               c_p.l(_printf_hex_int_ll_ptr.o)
    0x00002a18   0x00002a18   0x00000028   Code   RO          407    .text               c_p.l(rtudiv10.o)
    0x00002a40   0x00002a40   0x0000007a   Code   RO          428    .text               c_p.l(lludiv10.o)
    0x00002aba   0x00002aba   0x00000002   PAD
    0x00002abc   0x00002abc   0x00000418   Code   RO          430    .text               c_p.l(_printf_fp_dec.o)
    0x00002ed4   0x00002ed4   0x0000002e   Code   RO          434    .text               c_p.l(_printf_char.o)
    0x00002f02   0x00002f02   0x0000002e   Code   RO          436    .text               c_p.l(_printf_wchar.o)
    0x00002f30   0x00002f30   0x00000040   Code   RO          438    .text               c_p.l(_wcrtomb.o)
    0x00002f70   0x00002f70   0x0000003e   Code   RO          440    .text               c_p.l(sys_stackheap_outer.o)
    0x00002fae   0x00002fae   0x00000002   PAD
    0x00002fb0   0x00002fb0   0x00000010   Code   RO          443    .text               c_p.l(rt_ctype_table.o)
    0x00002fc0   0x00002fc0   0x00000008   Code   RO          448    .text               c_p.l(rt_locale_intlibspace.o)
    0x00002fc8   0x00002fc8   0x00000088   Code   RO          450    .text               c_p.l(_printf_fp_infnan.o)
    0x00003050   0x00003050   0x000000d8   Code   RO          452    .text               c_p.l(bigflt0.o)
    0x00003128   0x00003128   0x00000580   Code   RO          455    .text               c_p.l(btod.o)
    0x000036a8   0x000036a8   0x00000010   Code   RO          462    .text               c_p.l(exit.o)
    0x000036b8   0x000036b8   0x00000008   Code   RO          479    .text               c_p.l(libspace.o)
    0x000036c0   0x000036c0   0x00000088   Code   RO          494    .text               c_p.l(strcmp.o)
    0x00003748   0x00003748   0x00000030   Code   RO          457    i.__ARM_common_ll_muluu  c_p.l(btod.o)
    0x00003778   0x00003778   0x0000001c   Code   RO          141    i.__ARM_common_switch8  i2c.o
    0x00003794   0x00003794   0x0000002c   Code   RO          477    i.__ARM_fpclassify  m_ps.l(fpclassify.o)
    0x000037c0   0x000037c0   0x0000000e   Code   RO          310    i._is_digit         c_p.l(__printf_wp.o)
    0x000037ce   0x000037ce   0x00000002   PAD
    0x000037d0   0x000037d0   0x0000002c   Code   RO          460    locale$$code        c_p.l(lc_numeric_c.o)
    0x000037fc   0x000037fc   0x0000002c   Code   RO          488    locale$$code        c_p.l(lc_ctype_c.o)
    0x00003828   0x00003828   0x00000010   Code   RO          409    x$fpl$printf1       fz_ps.l(printf1.o)
    0x00003838   0x00003838   0x00000000   Code   RO          476    x$fpl$usenofp       fz_ps.l(usenofp.o)
    0x00003838   0x00003838   0x00000010   Data   RO           52    .constdata          gpio.o
    0x00003848   0x00003848   0x0000079c   Data   RO          203    .constdata          oled2864.o
    0x00003fe4   0x00003fe4   0x00000011   Data   RO          318    .constdata          c_p.l(__printf_flags_ss_wp.o)
    0x00003ff5   0x00003ff5   0x00000003   PAD
    0x00003ff8   0x00003ff8   0x00000008   Data   RO          354    .constdata          c_p.l(_printf_wctomb.o)
    0x00004000   0x00004000   0x00000028   Data   RO          383    .constdata          c_p.l(_printf_hex_int_ll_ptr.o)
    0x00004028   0x00004028   0x00000094   Data   RO          453    .constdata          c_p.l(bigflt0.o)
    0x000040bc   0x000040bc   0x00000020   Data   RO          606    Region$$Table       anon$$obj.o
    0x000040dc   0x000040dc   0x0000001c   Data   RO          459    locale$$data        c_p.l(lc_numeric_c.o)
    0x000040f8   0x000040f8   0x00000110   Data   RO          487    locale$$data        c_p.l(lc_ctype_c.o)


    Execution Region RW_IRAM1 (Exec base: 0x10000000, Load base: 0x00004208, Size: 0x00000338, Max: 0x00002000, ABSOLUTE)

    Exec Addr    Load Addr    Size         Type   Attr      Idx    E Section Name        Object

    0x10000000   0x00004208   0x0000000c   Data   RW           28    .data               system_lpc11xx.o
    0x1000000c   0x00004214   0x00000010   Data   RW           77    .data               uart.o
    0x1000001c   0x00004224   0x00000008   Data   RW          105    .data               retarget.o
    0x10000024   0x0000422c   0x00000029   Data   RW          131    .data               i2c.o
    0x1000004d   0x00004255   0x00000003   PAD
    0x10000050   0x00004258   0x00000018   Data   RW          161    .data               ssp.o
    0x10000068   0x00004270   0x00000008   Data   RW          218    .data               light.o
    0x10000070   0x00004278   0x00000028   Data   RW          268    .data               lpc11c14_it.o
    0x10000098        -       0x00000040   Zero   RW           76    .bss                uart.o
    0x100000d8        -       0x00000060   Zero   RW          480    .bss                c_p.l(libspace.o)
    0x10000138        -       0x00000000   Zero   RW            2    HEAP                startup_lpc11xx.o
    0x10000138        -       0x00000200   Zero   RW            1    STACK               startup_lpc11xx.o


==============================================================================

Image component sizes


      Code (inc. data)   RO Data    RW Data    ZI Data      Debug   Object Name

         0          0          0          0          0       4508   core_cm0.o
      1012         28         16          0          0      11005   gpio.o
       808         62          0         41          0      18017   i2c.o
       828         54          0          8          0       4294   light.o
       220         32          0         40          0       1961   lpc11c14_it.o
       296         48          0          0          0       8603   main.o
      2320         26       1948          0          0      11668   oled2864.o
       140         12          0          8          0       3593   retarget.o
      1456         60          0         24          0       4185   ssp.o
        56         22        192          0        512       1048   startup_lpc11xx.o
       228         26          0         12          0       8397   system_lpc11xx.o
       148          8          0          0          0       1163   tools.o
       596         42          0         16         64      11303   uart.o

    ----------------------------------------------------------------------
      8108        420       2188        152        576      89745   Object Totals
         0          0         32          0          0          0   (incl. Generated)
         0          0          0          3          0          0   (incl. Padding)

    ----------------------------------------------------------------------

      Code (inc. data)   RO Data    RW Data    ZI Data      Debug   Library Member Name

        28          6          0          0          0         84   __2printf.o
        60          6          0          0          0         92   __2snprintf.o
         8          0          0          0          0         68   __main.o
       392          6         17          0          0         76   __printf_flags_ss_wp.o
        14          0          0          0          0         60   __printf_wp.o
         0          0          0          0          0          0   __rtentry.o
        12          0          0          0          0          0   __rtentry2.o
         6          0          0          0          0          0   __rtentry4.o
        60          8          0          0          0          0   __scatter.o
        26          0          0          0          0          0   __scatter_copy.o
        28          0          0          0          0          0   __scatter_zi.o
        10          0          0          0          0          0   _printf_a.o
        10          0          0          0          0          0   _printf_c.o
        46          0          0          0          0        100   _printf_char.o
        48          6          0          0          0         88   _printf_char_common.o
        40          6          0          0          0         72   _printf_char_file.o
        38          0          0          0          0         60   _printf_charcount.o
        10          0          0          0          0          0   _printf_d.o
       108         18          0          0          0         76   _printf_dec.o
        10          0          0          0          0          0   _printf_e.o
        10          0          0          0          0          0   _printf_f.o
      1048         14          0          0          0        176   _printf_fp_dec.o
       136         16          0          0          0         76   _printf_fp_infnan.o
        10          0          0          0          0          0   _printf_g.o
       152          4         40          0          0        148   _printf_hex_int_ll_ptr.o
        10          0          0          0          0          0   _printf_i.o
       176          0          0          0          0         84   _printf_intcommon.o
        10          0          0          0          0          0   _printf_l.o
        10          0          0          0          0          0   _printf_lc.o
        10          0          0          0          0          0   _printf_ll.o
        10          0          0          0          0          0   _printf_lld.o
        10          0          0          0          0          0   _printf_lli.o
        10          0          0          0          0          0   _printf_llo.o
        10          0          0          0          0          0   _printf_llu.o
        10          0          0          0          0          0   _printf_llx.o
       112         18          0          0          0         76   _printf_longlong_dec.o
        10          0          0          0          0          0   _printf_ls.o
        10          0          0          0          0          0   _printf_n.o
        10          0          0          0          0          0   _printf_o.o
       112         10          0          0          0        112   _printf_oct_int_ll.o
        10          0          0          0          0          0   _printf_p.o
        78          0          0          0          0        100   _printf_pad.o
         2          0          0          0          0          0   _printf_percent.o
         4          0          0          0          0          0   _printf_percent_end.o
        10          0          0          0          0          0   _printf_s.o
        82          0          0          0          0         72   _printf_str.o
        36          0          0          0          0         76   _printf_truncate.o
        10          0          0          0          0          0   _printf_u.o
        46          0          0          0          0        100   _printf_wchar.o
       188          6          8          0          0         80   _printf_wctomb.o
        10          0          0          0          0          0   _printf_x.o
        16          0          0          0          0         60   _snputc.o
        10          0          0          0          0         60   _sputc.o
        64          0          0          0          0         72   _wcrtomb.o
       346          0          0          0          0         92   aeabi_sdiv.o
       216          6        148          0          0         80   bigflt0.o
      1456         30          0          0          0        336   btod.o
        56          6          0          0          0         72   c89vsnprintf.o
        16          0          0          0          0         68   exit.o
         6          0          0          0          0        136   heapauxi.o
        44         10        272          0          0         76   lc_ctype_c.o
        44         10         28          0          0         76   lc_numeric_c.o
         2          0          0          0          0          0   libinit.o
        30          0          0          0          0          0   libinit2.o
         2          0          0          0          0          0   libshutdown.o
         2          0          0          0          0          0   libshutdown2.o
         8          4          0          0         96         68   libspace.o
       122          0          0          0          0         72   lludiv10.o
        16          4          0          0          0         76   rt_ctype_table.o
         8          4          0          0          0         68   rt_locale_intlibspace.o
         2          0          0          0          0          0   rtexit.o
        10          0          0          0          0          0   rtexit2.o
        40          0          0          0          0         60   rtudiv10.o
       136          4          0          0          0         72   strcmp.o
        62          0          0          0          0         80   sys_stackheap_outer.o
         2          0          0          0          0         68   use_no_semi.o
        16          4          0          0          0         76   printf1.o
         0          0          0          0          0          0   usenofp.o
        44          4          0          0          0         60   fpclassify.o

    ----------------------------------------------------------------------
      6092        210        516          0         96       3704   Library Totals
        10          0          3          0          0          0   (incl. Padding)

    ----------------------------------------------------------------------

      Code (inc. data)   RO Data    RW Data    ZI Data      Debug   Library Name

      6022        202        513          0         96       3568   c_p.l
        16          4          0          0          0         76   fz_ps.l
        44          4          0          0          0         60   m_ps.l

    ----------------------------------------------------------------------
      6092        210        516          0         96       3704   Library Totals

    ----------------------------------------------------------------------

==============================================================================


      Code (inc. data)   RO Data    RW Data    ZI Data      Debug   

     14200        630       2704        152        672      90889   Grand Totals
     14200        630       2704        152        672      90889   ELF Image Totals
     14200        630       2704        152          0          0   ROM Totals

==============================================================================

    Total RO  Size (Code + RO Data)                16904 (  16.51kB)
    Total RW  Size (RW Data + ZI Data)               824 (   0.80kB)
    Total ROM Size (Code + RO Data + RW Data)      17056 (  16.66kB)

==============================================================================

