:020000040000FA
:1000000008030010610200006502000067020000A2
:10001000690200006B0200006D0200000000000099
:100020000000000000000000000000006F0200005F
:100030007102000000000000730200006F1D00004C
:1000400077020000770200007702000077020000CC
:1000500077020000770200007702000077020000BC
:1000600077020000770200007702000077020000AC
:100070007702000077020000010B00007702000009
:10008000770200007702000077020000770200008C
:10009000B90A0000D90700007702000077020000CB
:1000A000770200007702000077020000770200006C
:1000B000E11E0000BF1E00006B1E00003D1E000080
:1000C00000F002F800F0BDF80CA030C80838241881
:1000D0002D18A246671EAB4654465D46AC4201D180
:1000E00000F0AFF87E460F3E0FCCB64601263342F5
:1000F00000D0FB1AA246AB4633431847643C0000CD
:10010000843C0000103A02D378C878C1FAD852076C
:1001100001D330C830C101D504680C6070470000BD
:100120000023002400250026103A01D378C1FBD813
:10013000520700D330C100D50B60704710B56E294F
:1001400002D102F068F910BD702902D102F0B7FAAD
:1001500010BD662902D103F0B9F910BD652902D19D
:1001600003F0B4F910BD672902D103F0AFF910BD57
:10017000612902D1C046C04610BD03681B0A01D3E5
:1001800080231943692902D101F0E4FE10BD6429DE
:1001900002D101F0DFFE10BD752902D101F0DAFEB7
:1001A00010BD6F2902D102F035FA10BD782902D1B5
:1001B00002F072FA10BDE92902D102F0D1F910BDA6
:1001C000E42902D102F0CCF910BDF52902D102F0E8
:1001D000C7F910BDEF2902D102F028FA10BDF829A5
:1001E00002D102F067FA10BD0368DB0901D3802356
:1001F0001943632902D102F0D8FC10BD732902D142
:1002000002F0DBFC10BDE32902D102F0E5FC10BDD9
:10021000F32902D102F0E8FC10BD002010BD1FB58B
:1002200002F02EFD04000020002103F039F9401CEB
:1002300060600020002103F01DF9E0601FBD10B5D3
:1002400010BD02F0F5FC1146FFF7E9FF01F090FD4B
:1002500003F08AF803B4FFF7F2FF03BC00F01AFCC6
:1002600008480047FEE7FEE7FEE7FEE7FEE7FEE799
:10027000FEE7FEE7FEE7FEE703480449024A044BB7
:1002800070470000C10000000801001008030010C2
:1002900008010010704700007CB51D4616460C0092
:1002A000009001D00019401E084B7B442A46694645
:1002B0000190304602F0C7F8002C054603D069468D
:1002C000002000F016F828467CBD0000BF21000089
:1002D0000FB4054910B503AA029802F0CFF810BC7C
:1002E00008BC04B0184700001C000010704770479D
:1002F00070470A681070521C0A607047FFFFFFFFCA
:100300003249334A11600121324A116051600021A3
:1003100051600121516000BF2E494968C907C90FCA
:100320000029F9D02B4940398868400A400203214E
:100330000143284A403A91602749896B80229143C2
:10034000254A916300BF23494039C968C907C90FCD
:100350000029F8D003211F4A1163012151630021B4
:1003600051630121516300BF1A49496BC907C90F85
:100370000029F9D00121174A9163154909688900BC
:10038000164A116011460968154A1160704700B598
:100390000220104940390860002008620E48806B36
:1003A000202188430C498863002300E05B1CFF2B5D
:1003B000FCD9FFF7A5FF0748403000680121090478
:1003C000084304494031086000BD0000001BB7002D
:1003D000000000104080044000820440040000102F
:1003E0000800001010B5F548006840210843F349A3
:1003F00008601F2000F0DBF91E2000F0D8F91D2056
:1004000000F0D5F91C2000F0D2F910BD70B5049CA5
:10041000002806D0012838D002286AD003287BD1D2
:100420009CE0002A18D1E64D6D6801268E40B54348
:10043000E34E7560002B07D13546AD6801268E402E
:10044000B543DF4EB5600EE0DD4DAD6801268E4050
:100450003543DB4EB56006E0D94D6D6801268E4010
:100460003543D74E7560002C07D1D54DED68012678
:100470008E40B543D24EF56006E0D14DED680126C1
:100480008E403543CE4EF5609DE0002A18D1CD4D0B
:100490006D6801268E40B543CA4E7560002B07D1AA
:1004A0003546AD6801268E40B543C64EB5600EE0B8
:1004B000C44DAD6801268E403543C24EB56006E09E
:1004C000C04D6D6801268E403543BE4E7560002CD0
:1004D00007D1BC4DED6801268E40B543B94EF5609D
:1004E00006E0B84DED6801268E403543B54EF56007
:1004F00069E0002A19D1B44D6D6801268E40B543DC
:10050000B14E7560002B08D13546AD6801268E408E
:10051000B543AD4EB5600FE054E0AB4DAD6801267C
:100520008E403543A84EB56006E0A74D6D680126A4
:100530008E403543A44E7560002C07D1A24DED6866
:1005400001268E40B543A04EF56006E09E4DED6855
:1005500001268E4035439C4EF56034E0002A18D1C8
:100560009A4D6D6801268E40B543984E7560002BFC
:1005700007D13546AD6801268E40B543934EB56030
:100580000EE0924DAD6801268E4035438F4EB5602A
:1005900006E08E4D6D6801268E4035438B4E7560AA
:1005A000002C07D1894DED6801268E40B543874E5A
:1005B000F56006E0854DED6801268E403543834E9B
:1005C000F56000E000BF00BF70BD002806D0012824
:1005D0000CD0022812D0032820D117E0784A1269E3
:1005E00001238B401A43764B1A6118E0754A126951
:1005F00001238B401A43734B1A6110E0724A12694F
:1006000001238B401A43704B1A6108E06F4A12694C
:1006100001238B401A436D4B1A6100E000BF00BFFD
:100620007047002806D001280CD0022812D00328D9
:1006300020D117E0624A126901238B409A43604B34
:100640001A6118E05F4A126901238B409A435D4B9F
:100650001A6110E05C4A126901238B409A435A4B9D
:100660001A6108E0594A136901228A409343574AA4
:10067000136100E000BF00BF704710B502460020C4
:10068000002A06D0012A0DD0022A14D0032A24D130
:100690001AE04B4B9B6901248C402340002B00D077
:1006A00001201BE0474B9B6901248C402340002B19
:1006B00000D0012012E0444B9B6901248C40234070
:1006C000002B00D0012009E0404B9B6901248C40A5
:1006D0002340002B00D0012000E000BF00BF10BD70
:1006E000002806D001280CD0022812D0032820D1DF
:1006F00017E0334AD26901238B401A43304BDA6149
:1007000018E0304AD26901238B401A432D4BDA613D
:1007100010E02D4AD26901238B401A432A4BDA613B
:1007200008E02A4AD26901238B401A43274BDA6139
:1007300000E000BF00BF704730B513468B40840017
:10074000234D2D5901248C40A4002B5130BD02466D
:1007500090001F4B1B58012088408000185870479C
:1007600030B5002A11D08300194CE3580124E4036A
:100770001B191B6801248C4023438400144D2C5901
:100780000125ED036419236010E08300104CE35849
:100790000124E4031B191B6801248C40A34384003B
:1007A0000B4D2C590125ED036419236030BDC206A1
:1007B000D20E01219140074A1160704780800440A9
:1007C00000800050008001500080025000800350E3
:1007D000DC34000000E100E070B500BF894A926897
:1007E000D0B240104007400F032822D1854A5269F9
:1007F000D1B29E220A40002A05D0834A1160814A64
:100800001268D3B270BDCA07D20F002A3FD07D4C08
:100810002468E5B27D4C2268541C7C4E34607C4CCC
:10082000A55432461268402A31D300223446226051
:100830002DE0022811D1734C2468E5B2734C226874
:10084000541C724E3460724CA55432461268402AD1
:100850001DD300223446226019E0062807D16A4AD7
:100860001268FF2401342243674C22600FE0012804
:100870000DD1644A5269D1B220220A40002A03D025
:100880000122644C227002E00022624C227000BF00
:10089000B8E7F8B5044601205E49087000205B49BE
:1008A00008601520012181405B4A116000BF5B4850
:1008B000406AC008C000594948620846406A0121A0
:1008C0000843564948620846806AC008C0008862EA
:1008D0000846806A012108435049886250480068F0
:1008E0000121090308434E490860012088618320E3
:1008F0004449C8604A48866931464A48006801F060
:1009000023FC07092146384601F01EFC0546280A4B
:100910003C494860E8B208600320C860072088604E
:100920000846466900BF3748406960210840602892
:10093000F9D101E03348066832484069C007C00F6A
:100940000028F7D1152001218140334A803A1160F7
:1009500000BF05202B494860F8BD0BE000BF294AC5
:10096000526920231A40002AF9D00278254B1A60D8
:10097000401C491E0029F1D1704700BF2149496937
:10098000202211400029F9D01E490860704700B5A7
:10099000034603E018785B1CFFF7EFFF1878002888
:1009A000F8D100BD0FB400B59BB01DA80090642124
:1009B00001A8009B1C9AFFF76FFC01A8FFF7E7FF57
:1009C000002000901BB008BC04B018470146164830
:1009D00000680E4A1268904211D00D48124A1268FF
:1009E000805C087010480068401C0F4A1060104678
:1009F0000068402801D300201060012070470020CB
:100A0000FCE70000008000400C0000101400001003
:100A1000640000101000001080E100E080400440FD
:100A200080800440080000101800001000BF1F491B
:100A30004969202211400029F9D01C4908607047FB
:100A400010B503460C461846FFF7F0FF10BD00BF77
:100A5000174800680028FBD0062014494860002091
:100A60001349086007201149486012480078704710
:100A700010B50446FFF7EBFF0346FFF7D7FF10BDA5
:100A800000B503461846FFF7D1FF00BD0146002020
:100A9000C043704700BFFEE700BF04484069C0077D
:100AA000C00F0028F9D0014800687047008000405E
:100AB0001400001064000010F949C869C107C90F8B
:100AC000002907D0F7490968491CF64A116001213D
:100AD000F34A116202210140002907D0F249096856
:100AE000491CF14A11600221ED4A116204210140C2
:100AF000002904D0ED490968491CEC4A116070478F
:100B0000EB49C869C107C90F002907D0E94909683D
:100B1000491CE84A11600121E54A116202210140A5
:100B2000002907D0E4490968491CE34A1160022101
:100B3000DF4A116204210140002904D0DF4909681D
:100B4000491CDE4A1160704710B50446002C47D19D
:100B5000DB48406801210843D9494860D8488030C3
:100B60000068C9140843D6498031086002204861F2
:100B7000D448006AC008C000D24908620846006A2A
:100B800001210843CF4908620846406AC008C000F6
:100B900048620846406A01210843CA494862012068
:100BA000C84940310863C7490863C54880300068B8
:100BB00040210843C24980310860C2484038C069BA
:100BC000C008C000BF494039C8610122022100208D
:100BD000FFF7C6FD012202210020FFF7ADFD54E022
:100BE000B748406804210843B5494860B44880309C
:100BF0000068012189040843B1498031086002205E
:100C0000C861B048C069C008C000AE49C8610846A4
:100C1000C06902210843AB49C861AA484030C06896
:100C2000C008C000A7494031C8600846C06802211A
:100C30000843A4494031C860A2484038806AC008CF
:100C4000C000A049403988620846806A02210843F2
:100C50009C49403988629A488030006840210843A6
:100C6000974980310860974840388068C008C000C4
:100C7000944940398860012200210220FFF770FD6D
:100C8000012200210220FFF757FD10BD10B50446D8
:100C9000002C69D18A48406801210843884948608E
:100CA000874880300068C91408438549803108604E
:100CB000022048618348006AC008C0008149086278
:100CC0000846006A012108437E4908620846406AD6
:100CD000C008C00048620846406A012108437949BB
:100CE000486202207749403108637649C8607448F9
:100CF00080300068402108437149803108607148A4
:100D00000068C008C0006F49086001220421022069
:100D1000FFF726FD012204210220FFF70DFD69489F
:100D200040380068C008C0006649403908600122A8
:100D300006210220FFF714FD012206210220FFF701
:100D4000FBFC60484038006AC008C0005D4940397B
:100D50000862012207210220FFF702FD012207217C
:100D60000220FFF7E9FC54E055484068042108439D
:100D70005349486052488030006801218904084383
:100D80004F49803108600220C8614E48C069C008E0
:100D9000C0004C49C8610846C0690221084349495E
:100DA000C86148484030C068C008C000454940316B
:100DB000C8600846C0680221084342494031C86003
:100DC00040484038806AC008C0003E4940398862C7
:100DD0000846806A022108433A4940398862384807
:100DE000803000684021084335498031086035482B
:100DF00040388068C008C00032494039886001220C
:100E000000210220FFF7ACFC012200210220FFF7A5
:100E100093FC10BD70B5054600BF002D16D12A48C1
:100E20001F490860FE200861002404E01C48806817
:100E3000C6B2601CC4B2082CF8DB142000F006F91E
:100E40000220174948600320486115E01E481849F0
:100E5000086002200861002404E015488068C6B2DA
:100E6000601CC4B2082CF8DB0E2000F0EFF8022062
:100E70000F4948600320486170BDF8B507460D462C
:100E8000164600980090002F31D1681E07210902F4
:100E90000843034908600846066100241CE000007E
:100EA00000000440280000102C0000102400001056
:100EB00000800540340000103800001030000010A1
:100EC00000800440404004400707000063488068F9
:100ED000C0B20090601CC4B2082CF7DB142000F0F4
:100EE000B5F802205D4948600320486119E0681E9A
:100EF0000721090208435A49086008460661002490
:100F000005E057488068C0B20090601CC4B2082C4D
:100F1000F7DB0E2000F09AF80220514948600320C8
:100F20004861F8BD70B500BF00232DE0002815D141
:100F300000BF4A4DED6812263540022DF9D10D78DB
:100F4000464EB560491C00BF444DED68142635403F
:100F5000042DF9D1414DAD68ECB214E000BF404D15
:100F6000ED6812263540022DF9D10D783C4EB56062
:100F7000491C00BF3A4DED6814263540042DF9D1C7
:100F8000374DAD68ECB25B1C9342CFD370BD30B52A
:100F900000231FE000280ED1FF24304DAC6000BFBD
:100FA0002E4CE46814252C40042CF9D12B4CA46859
:100FB0000C70491C0DE0FF24294DAC6000BF284C8B
:100FC000E46814252C40042CF9D1254CA4680C703D
:100FD000491C5B1C9342DDD330BD0246002A1AD166
:100FE00000BF1E48C068122318400228F9D11B48D0
:100FF000816000BF1948C068102318400028F9D14B
:1010000000BF1648C068142318400428F9D11348BB
:10101000806880B2704700BF1148C0681223184032
:101020000228F9D10E48816000BF0D48C068102326
:1010300018400028F9D100BF0948C068142318409F
:101040000428F9D10648806880B2E3E7C206D20ED0
:1010500001219140034A11607047000000000440E4
:101060000080054000E100E0F1B582B021488469CC
:1010700040690190204902984843009001990098E6
:1010800001F062F807460199009801F05DF80D46FD
:10109000002F0ED000260AE000BF16488069A0424B
:1010A000FBD300BF13488069A042FBD8761CBE4228
:1010B000F2D3002D1DD0A54206D200BF0D48806995
:1010C000611B8842FAD814E0A54205D100BF094847
:1010D0008069A042FBD30CE000BF06488069A042B3
:1010E000FBD300BF034881692A1B0198801A814203
:1010F000F8D8FEBD00E000E080BB000000BF014664
:10110000421ED0B20029FAD1704770B503460025BF
:1011100010E000240AE0002604E0CB20FFF7EEFFF9
:10112000701CC6B20F2EF8DB601CC4B2832CF2DB3D
:10113000681CC5B29D42ECDB70BD10B504460022B0
:1011400005210220FFF7F8FA002204210220FFF710
:10115000F3FA21460020FFF740FF0122042102207C
:10116000FFF7EAFA012205210220FFF7E5FA10BD98
:1011700010B50446012205210220FFF7DDFA002206
:1011800004210220FFF7D8FA21460020FFF725FFAF
:10119000012204210220FFF7CFFA012205210220BB
:1011A000FFF7CAFA10BD70B504462546E117090FCE
:1011B000491909110901611AC8B2FFF7BEFF254696
:1011C000E117090F491909111031C8B2FFF7B5FF2E
:1011D00070BD10B504462020FFF7AFFF2046FFF793
:1011E000ACFF10BD70B505460C462120FFF7A5FFEA
:1011F0002846FFF7A2FF2046FFF79FFF70BD70B59E
:1012000005460C462220FFF798FF2846FFF795FF7A
:101210002046FFF792FF70BD10B5044640212143E0
:101220000846FFF78AFF10BD10B504468120FFF77E
:1012300084FF2046FFF781FF10BD10B504468D20C6
:10124000FFF77BFF102121430846FFF776FF10BD13
:1012500010B50446A02121430846FFF76EFF10BDDC
:1012600010B50446A42121430846FFF766FF10BDD0
:1012700010B50446A62121430846FFF75EFF10BDC6
:1012800010B50446A820FFF758FF2046FFF755FF8A
:1012900010BD10B50446AE2121430846FFF74DFFAF
:1012A00010BD10B50446B02121430846FFF745FFA5
:1012B00010BD10B50446C02121430846FFF73DFF8D
:1012C00010BD10B50446D320FFF737FF2046FFF7C7
:1012D00034FF10BD10B50446D520FFF72EFF204681
:1012E000FFF72BFF10BD10B50446D920FFF725FFEF
:1012F0002046FFF722FF10BD10B50446DA20FFF7A5
:101300001CFF022121430846FFF717FF10BD10B54F
:101310000446DB20FFF711FF2046FFF70EFF10BD4C
:1013200010B5E320FFF709FF10BD70B50646002495
:1013300010E02046FFF7B5FF0020FFF734FF00253F
:1013400004E03046FFF714FF681CC5B2802DF8DBBF
:10135000601CC4B2082CECDB70BD10B50020FFF798
:10136000E4FF10BDFFB581B00D4616461F462C4662
:1013700015E02046FFF795FF3846FFF714FF0020E1
:10138000009006E00198FFF7F3FE0098401CC0B201
:1013900000900A9900988842F4DB601CC4B2701C6B
:1013A0008442E6DB05B0F0BD70B5002413E02046B2
:1013B000FFF777FF0020FFF7F6FE002507E0552036
:1013C000FFF7D6FEAA20FFF7D3FE681CC5B2402D5A
:1013D000F5DB601CC4B2082CE9DB70BD70B50020E1
:1013E000FFF75FFF0020FFF7DEFE002404E001208E
:1013F000FFF7BEFE601CC4B2802CF8DB0720FFF7AD
:1014000050FF0020FFF7CFFE002404E08020FFF70C
:10141000AFFE601CC4B2802CF8DB002411E0204633
:10142000FFF73FFF002508E0E8B2FFF7BCFEFF2012
:10143000FFF79EFE28467F30C5B2802DF4DB601C8E
:10144000C4B2082CEBDB70BDFFB581B007460D467A
:10145000012F02D0022F0BD104E0A8002818FE496A
:10146000441805E0681E81004018FC49441800BF7C
:1014700000BF0398FFF715FF0498FFF794FE0026BE
:1014800005E02078FFF774FE641C701CC6B2052EC0
:10149000F7DB0020FFF76CFE05B0F0BDFFB581B0B3
:1014A00007460D461E462C46334660210120039A0E
:1014B000FFF7CAFF0CE0217833463846039AFFF75E
:1014C000C3FF641CB01DC6B22078002800D100E024
:1014D000F1E700BF05B0F0BDFFB583B005460E468D
:1014E00017460295344619E02046FFF7DAFE0698C3
:1014F000FFF759FE002001900AE002990878FFF7F3
:1015000037FE0298401C02900198401CC0B2019026
:101510000C9901988842F0DB601CC4B2781C8442AC
:10152000E2DB07B0F0BDFFB581B00D46144604986C
:10153000203881004018C84946180198FFF7B1FECD
:10154000002D0BD10020FFF72EFE002C03D1002030
:10155000FFF70EFE02E0FF20FFF70AFE691CC8B28B
:10156000FFF721FE00270DE0002C03D13078FFF7B4
:10157000FFFD04E03178C943C8B2FFF7F9FD761CDE
:10158000781CC7B2052FEFDB002C03D10020FFF73A
:10159000EFFD02E0FF20FFF7EBFD05B0F0BDF8B571
:1015A00006460F4614460025082E19DA08E023786F
:1015B0003A4629463046FFF7B6FFA81D85B2641C9F
:1015C0002078002801D0012000E00020691C89B2A9
:1015D000802901DA012100E0002108400028E6D13D
:1015E000F8BDFFB581B015461F46A320FFF7A5FD46
:1015F0000298FFF7A2FD2846FFF79FFD01980028FB
:1016000002D0012825D111E000240CE0E0B2FFF760
:1016100003FE002603E0C820FFF770FD761C0A9841
:101620008642F8D3E419AC42F0D312E000240DE076
:10163000291BC8B2FFF7F0FD002603E0C820FFF722
:101640005DFD761C0A988642F8D3E419AC42EFD3CC
:1016500000BF00BF0020FFF7DFFD05B0F0BDF8B50B
:1016600004460D4616461F46262121430846FFF72D
:1016700064FD0020FFF761FD2846FFF75EFD384658
:10168000FFF75BFD3046FFF758FD2F20FFF755FDB4
:101690000698FFF73AFDF8BDF8B504460D46164624
:1016A0001F46A320FFF749FD3846FFF746FD069881
:1016B000FFF743FD21462931C8B2FFF73EFD002068
:1016C000FFF73BFD2846FFF738FD0898FFF735FD8B
:1016D0003046FFF732FD0798FFF72FFD2F20FFF769
:1016E0002CFD0998FFF711FDF8BD10B52E20FFF76E
:1016F00024FD10BD10B50120FFF7CBFD00240CE048
:10170000E0B2FFF791FDC820FFF7F8FCC820FFF713
:10171000F5FCC820FFF7F2FC641CD02CF0D310BD00
:1017200010B5D0240DE0611EC8B2FFF77DFDC820C2
:10173000FFF7E4FCC820FFF7E1FCC820FFF7DEFC60
:10174000641E002CEFD10020FFF7A3FD10BD10B5E3
:101750000446002C02D0012C0ED106E00020FFF739
:1017600098FD0120FFF77CFD06E00020FFF778FDE3
:101770000120FFF78EFD00BF00BF10BD0120FFF765
:101780006FFD0BE00120FFF784FD0220FFF7BDFC99
:101790000020FFF77EFD0220FFF7B7FCF2E710B54F
:1017A0000020FFF776FD8020FFF794FD3F20FFF734
:1017B00067FD0020FFF785FD0020FFF72DFD0020CD
:1017C000FFF73BFD0220FFF704FD0120FFF740FD7E
:1017D0000820FFF76EFD1020FFF78EFDCF20FFF7EA
:1017E00023FD2220FFF77FFD4020FFF790FD002022
:1017F000FFF736FD0020FFF73BFD0020FFF795FDCA
:101800000120FFF746FD10BD10B501220521022081
:10181000FEF7A6FF0020FFF73CFD8020FFF75AFDF2
:101820003F20FFF72DFD0020FFF74BFD0020FFF7C5
:10183000F3FC0420FFF701FD0220FFF7CAFC0120A2
:10184000FFF706FD0820FFF734FD1020FFF754FDD9
:10185000CF20FFF7E9FC03E0BC350000713A00003F
:10186000F120FFF740FD4020FFF751FD0020FFF77A
:10187000F7FC0020FFF7FCFC0020FFF756FD0120DD
:10188000FFF707FD10BD00B587B05CA207CA04AB27
:1018900007C30020FFF749FD30202823052202213D
:1018A00000905948FFF718FE0520FFF72EFCFFF7C0
:1018B00037FF0520FFF729FCFFF71CFF0520FFF786
:1018C00024FC202001234022002100900846FFF73D
:1018D00088FE0520FFF719FC20200123402200216B
:1018E00000901846FFF77DFE0520FFF70EFCFFF77E
:1018F000FCFE0520FFF709FC0120002120230190B8
:101900000093029103900B460A460846FFF7C4FE77
:101910000520FFF7FAFB012000211F22202300935E
:101920000192029103900B460A460846FFF7B4FE67
:101930000520FFF7EAFB022000210122202300936B
:101940000192029103900B4603220846FFF7A4FE82
:101950000520FFF7DAFB022000211F22202300933D
:101960000192029103900B4603220120FFF794FE9F
:101970000520FFF7CAFB022000210122202300934B
:101980000192029103900B46072204210120FFF7E8
:1019900083FE0520FFF7B9FB022000211F22202330
:1019A00000930192029103900B460722042100202C
:1019B000FFF772FE0520FFF7A8FBFFF796FE052054
:1019C000FFF7A3FBFF20FFF7B0FC0520FFF79DFB0F
:1019D000FFF7EAFC0520FFF798FB0020FFF7A5FCC6
:1019E000FFF7FCFC0520FFF790FB2523032204A949
:1019F0000120FFF753FD07B000BD0000354E4956EA
:101A00004953494F4E000000FC340000F3B587B045
:101A100000209F4908600846076805210120FEF75D
:101A200000FE012205211046FEF79AFE0022052144
:101A30000120FEF781FE1E20FFF716FB0122052183
:101A40001046FEF779FE002205210120FEF788FEF0
:101A5000002003460246052100900120FEF7D6FC37
:101A600005210120FEF7B1FD002410E0E007C00FC2
:101A700000231A46052100900120FEF7C7FC00BF95
:101A800083480068B842FBD081480768641C032C77
:101A9000ECD300246FE0012000231A4605210090BA
:101AA000FEF7B4FC00BF7A480068B842FBD0784823
:101AB0000768784800680190002003460246052127
:101AC00000900120FEF7A2FC00BF71480068B842F8
:101AD000FBD06F4807686F4801680198814204D2C3
:101AE0006C4901980968461A05E06A48016801983E
:101AF000081A69490E1A082C07D26806050E6748AD
:101B0000864237D30120054334E0102C0BD20698CF
:101B10004006000E0690614886422BD301210698AC
:101B20000843069026E0182C0BD205984006000EBC
:101B300005905A4886421DD3012105980843059017
:101B400018E0202C0BD204984006000E0490534855
:101B500086420FD301210498084304900AE00398B9
:101B60004006000E03904D48864203D3012103989E
:101B700008430390641C282C8DD3012000231A46AF
:101B800005210090FEF742FC00BF41480068B842C2
:101B9000FBD005210120FEF744FD07990598087048
:101BA0000799049848700898057008990698487035
:101BB0000295029D06982818C0B2029005990298D5
:101BC0004018C0B20290049902984018C0B2029026
:101BD00003990298884202D1012009B0F0BD00208B
:101BE000FBE788B0FFF7B9FB2DA200210846FFF7FD
:101BF000D6FC4CE006A907A8FFF708FF0446002C16
:101C00003ED06846007F8021084000280FD06846FB
:101C1000007F4106490E68460177407F0090684684
:101C2000037F22A2102101A800F076F909E068469E
:101C3000407F00906846037F20A2102101A800F099
:101C40006BF901AA00210220FFF7A9FC6846407E3B
:101C500000906846037E1DA2102101A800F05CF9E7
:101C600001AA00210320FFF79AFC6846407E0090FD
:101C70006846037E427F017F18A0FEF729FB02E041
:101C80001DA0FEF725FBFF20F530FFF7EDF9B1E7CA
:101C90005C0000106000001080BB0000180900000C
:101CA00054656D7020262048756D000054656D7078
:101CB0003A202D25642E25642020000054656D7087
:101CC0003A2025642E2564202000000048756D3AD6
:101CD000202025642E256420200000000D0A546574
:101CE0006D703A2025642E256420202048756D3AB9
:101CF000202025642E2564000D0A6661696C0000B1
:101D000010B5002819DA3D4A03071B0F083B9B0852
:101D10009B00D2588307DC0EFF23A3409A434B0756
:101D20001B0E8407E40EA3401A43344B0407240F10
:101D3000083CA408A4001A5118E0314A03231B02EE
:101D4000D21883089B00D2588307DC0EFF23A340E0
:101D50009A434B071B0E8407E40EA3401A43284BFB
:101D6000032424021B198408A4001A5110BD7047D3
:101D7000FEF70DFBFEF736FB22480069C008C000E5
:101D80002049086108460069012108431D4908618E
:101D90001D4C1E48844200D90FE02002000A401E5C
:101DA0001B49486107210020C043FFF7A9FF00201D
:101DB000174988610720086100BF0020FEF766FF11
:101DC000022208210020FFF758F8FFF71DFDE1204F
:101DD0004002FEF75EFD02211520FFF791FF0DA0E6
:101DE000FEF776FAFF20F530FFF73EF904E00CA08D
:101DF000FEF76EFAFFF7F5FEF9E700001CED00E0D4
:101E000000E100E00040044080BB0000FFFFFF0055
:101E100000E000E00D0A0D0A53656E736F7200005A
:101E20000D0A0D0A54656D706572617475726520D6
:101E3000262048756D6964697479000010B52E48D4
:101E40000068401C2C49086001210020FEF715FCA9
:101E50000446002C08D029480068401C2749086027
:101E600001210020FEF73CFC10BD10B5244800689D
:101E7000401C2349086001210846FEF7FEFB04468A
:101E8000002C08D01F480068401C1E490860012132
:101E90000846FEF725FC05210120FEF7EEFB002891
:101EA0000CD0194880691949086019480068401C1D
:101EB0001749086005210120FEF712FC10BD10B57E
:101EC00008210220FEF7D9FB002808D0114800683D
:101ED000401C1049086008210220FEF701FC10BDDB
:101EE00010B503210846FEF7C8FB002803D00321E4
:101EF0000846FEF7F5FB10BD3C0000104000001046
:101F0000440000104800001000E000E060000010F5
:101F10005C000010500000100FB47CB50C0009AA42
:101F2000009001D00019401E094B7B446946019086
:101F3000089800F088FA002C054603D06946002076
:101F4000FEF7D7F928467CBC08BC04B0184700004F
:101F50003F050000F7B5002575291068009914A603
:101F600011D000F0C5F9002802DA404211A608E0BD
:101F7000009909688A0701D50FA602E0490704D530
:101F80000EA6012501E000F0BCF9009F00242437D3
:101F900004E000F0A1FB30313955641C0028F8D171
:101FA0002B4632462146009800F0DDF9FEBD0000C8
:101FB000000000002D0000002B00000020000000A9
:101FC000F3B50446002081B020622046E1688847CE
:101FD000002872D0252802D06268A168ABE0594F72
:101FE00000267F442046E16888472028054608DB14
:101FF000312D06D2781920380078002801D0064308
:10200000F0E7B00701D5042086430020E0610746D1
:10201000A0612A2D0AD0284601F024FA002827D0F2
:10202000B8000019303D0090856119E00298BA00AF
:10203000121902C8916102902046E1688847012F79
:10204000054617D1E06900281FDA202086431CE0EE
:1020500000980A2180694843009940193038886106
:102060002046E1688847054601F0FCF90028EFD1D9
:10207000012F0AD02E2D08D12046E1688847054659
:10208000202006437F1C022FC3DBA069002803DA4F
:102090004042A06101200643F00701D01020864392
:1020A0006C2D0BD0682D09D04C2D3CD06A2D38D02A
:1020B000742D38D07A2D36D016E040E0E1682F46F6
:1020C00020468847B842054609D16C2F29D0012007
:1020D0008002E168064320468847054604E06C2FED
:1020E0001DD0FF2001300643002D28D0284641385E
:1020F000192803D80120C002064320352046266057
:102100002946029A1646FEF719F8002810D0012831
:102110000BD0F61DF008C0000830029055E74020B3
:10212000E1E78020D5E70020D3E7361D02964CE793
:1021300062682846A1689047206A401C44E7206AEC
:10214000FEBD0000A21C0000002203098B422CD31C
:10215000030A8B4211D300239C464EE003460B43F7
:102160003CD4002243088B4231D303098B421CD359
:10217000030A8B4201D394463FE0C3098B4201D34B
:10218000CB01C01A524183098B4201D38B01C01A83
:10219000524143098B4201D34B01C01A52410309FA
:1021A0008B4201D30B01C01A5241C3088B4201D3A9
:1021B000CB00C01A524183088B4201D38B00C01A56
:1021C000524143088B4201D34B00C01A5241411A7D
:1021D00000D201465241104670475DE0CA0F00D060
:1021E0004942031000D34042534000229C46030959
:1021F0008B422DD3030A8B4212D3FC22890112BADF
:10220000030A8B420CD3890192118B4208D38901B6
:1022100092118B4204D389013AD0921100E08909CE
:10222000C3098B4201D3CB01C01A524183098B42AF
:1022300001D38B01C01A524143098B4201D34B0198
:10224000C01A524103098B4201D30B01C01A5241FB
:10225000C3088B4201D3CB00C01A524183088B4282
:1022600001D38B00C01A5241D9D243088B4201D30B
:102270004B00C01A5241411A00D2014663465241F6
:102280005B10104601D34042002B00D549427047F5
:1022900063465B1000D3404201B50020C046C046F3
:1022A00002BD70B5044685690068C10601D53026B7
:1022B00000E02026C00707D070BD62683046A168E4
:1022C0009047206A401C20626D1EF6D570BD70B527
:1022D000044685690078C00707D170BD6268A168AF
:1022E00020209047206A401C20626D1EF6D570BDEC
:1022F00009684A0501D540B27047C905FCD500B24E
:10230000704709684A0501D5C0B27047C905FCD5B8
:1023100080B2704770B50C460546012A05D0287872
:10232000800600D5EA69002302E0012305E05B1C7A
:10233000934202D2E05C0028F9D1A869E618C01ADD
:10234000A861286AC01828622846FFF7AAFF04E09F
:102350006A682078A968641C9047B442F8D328467C
:10236000FFF7B5FF70BDFFB504460D4681B02430C0
:1023700000902168880604D51022E069914321600D
:1023800000E00120A84201DD471B00E0002704987F
:10239000A1697A191018081AA0612078C00602D421
:1023A0002046FFF77EFF002608E003986268A168D8
:1023B000805D9047206A401C761C2062049886420B
:1023C000F3DB2078C0060AD52046FFF76AFF06E057
:1023D0006268A16830209047206A401C206238461D
:1023E0007F1E0028F4DC07E000986268A168405D69
:1023F0009047206A401C206228466D1E0028F3DCAE
:102400002046FFF764FF2078000602D5022005B0C1
:10241000F0BD0120FBE711680268006A530501D591
:10242000087009E0D30501D5088005E0130602D540
:10243000C21705C100E008600120704701694A1C0D
:1024400002610878704700B58FB0029100210591B4
:102450000549019379440391114604906846FFF7BA
:10246000AFFD0FB000BD0000E5FFFFFF0CC908394C
:102470009A4202D2531C0B6010707047084B70B523
:102480000D467B44FFF7DFFF04462846FEF7FEFAC1
:10249000002802D00020C04370BD204670BD00005F
:1024A000BBE5FFFFF7B50446154686B02B487844D8
:1024B000002703C83E460090019111E007986A4644
:1024C0007100415A02A800F093FB411C07D021780B
:1024D000890603D5E269391891420ED83F18761C57
:1024E0002078800602D5E069B84206DDAE42E5DB21
:1024F00007987100405A0028E0D1A069C01BA06174
:102500002046FFF7CEFE154878445A3803C800909D
:102510000020019116E041006A460798415A02A83E
:1025200000F066FB0590401C0AD0002505E06268BB
:1025300002A8A168405D90476D1C05988542F6D3BE
:102540000498401CB0420490E5DB206AC019206268
:102550002046FFF7BCFE09B0F0BD0000EA170000FE
:10256000F7B5D21D0025D20815A6D200F52905CA57
:1025700011D0002A05DA00214042914111A60A46F5
:1025800008E0009909688B0701D50FA602E049070A
:1025900001D50EA601251146009F0024243704E032
:1025A00000F0AEF830323A55641C02460A43F7D1C7
:1025B0002B46324621460098FFF7D5FEFEBD0000AF
:1025C000000000002D0000002B0000002000000093
:1025D00070B504460021243408E05507D2086D0F79
:1025E000303565545D072A43DB08491C15461D43F9
:1025F000F3D10468002310A2250708D5A40601D44E
:10260000002904D0C46901230CA2641EC461FFF731
:10261000AAFE70BD10B5044621461068FFF771FE92
:10262000002302462046FFF7D3FF10BDD21DD1087C
:10263000C9000CC9CCE70000000000003000000019
:10264000F8B50F460188090502D5224C7C4402E00A
:10265000204C7C440E3405460021243508E0160742
:102660001209360FA65D6E541E0732431B09491C22
:1026700016461E43F3D1224604780023240705D5CD
:10268000702F06D0002901D002231132FFF76BFE14
:10269000F8BD01231032F9E770B504460D46214616
:1026A0001068FFF72EFE0023024629462046FFF75A
:1026B000C7FF70BDD21DD308DB000CCBC0E730B420
:1026C000036820241268234303600823C36130BCDD
:1026D0000023B5E75416000001468008081A0209D5
:1026E0001018020A1018020C1018C00882001218E4
:1026F0005200891A01E0401C0A390A29FBD27047AE
:102700000B4670B5024689078008084319469D08A4
:10271000141AA94125090807054308092C1948413D
:10272000250A01060D43010A2C194141200C0D0414
:1027300028430D0C00194D41002140194D41C0089E
:1027400069070843E908840F8D0025438400241895
:102750004D4124196D41121BAB4107E00925ED43A2
:102760002C11521963410024401C61411C460A256A
:102770000026551BB441F1D270BD00007047FFB573
:102780000C461E468FB003CA089009914F007D0D7C
:1027900000D16D1E002108460020C0460321099A81
:1027A00089050840002A03DA8200801840080840A2
:1027B000800D01280A9002DD0020C0430A9008988D
:1027C00007430DD0F048F1492818484307141898DA
:1027D00000281DD07542291E1DDD0A9842421BE0CB
:1027E0001898012802D00020302104E00020F24394
:1027F00005E02154401CB042FBDB30460022189B10
:10280000002121540F998B600A60486013B0F0BD1D
:10281000BD1B6D1CDFE70A9A002900DA69420BA88C
:1028200000F076FA0BAB07CB03AB07C30899099806
:1028300000F0DAFA6B4607C30146D5480918002DA7
:1028400000910BDDD24903980A9A494240180023AF
:1028500003A90390684600F037FD08E003990A9A3F
:102860000023081803A90390684600F0D7FC6B46C4
:1028700007C30004000C03D00020C043410800E05F
:102880001046189A002A03D00022009215461EE036
:10289000751E05D4FFF734FF303262556D1EF9D531
:1028A00001220843079602D000227F1C04E0207812
:1028B000302801D100227F1E002A069787D01EE013
:1028C000112D07DAFFF71CFF303262556D1C0246EE
:1028D0000A43F5D1084303D00098002819D00EE030
:1028E0000021681E05E0235C625C63542254401E94
:1028F000491C8142F7DBA81B401E07950690079AEA
:1029000018990020A0540F98079B069A81600CC06C
:102910007CE711260020189059E7D21DF0B50D462E
:102920000446D10893B0C90003C90C900D9100F082
:1029300083FD02460D98C00F01D02D2007E02068CE
:10294000810701D52B2002E04007C00F4001032A78
:102950000F9001D0072A05DB03462946204600F0E8
:1029600093F90EE12078800601D5E76900E006279B
:102970002846652D04D0662814D0672D69D12DE036
:102980000020112F009001DB112300E07B1C0CAA1A
:1029900003A910A8FFF7F3FE1199002610987D1CDB
:1029A0000E9142E001203B460CAAC0070B9001208B
:1029B000009003A910A8FFF7E2FE119D129810994C
:1029C000002600280E9501D1781C0D18781B02D422
:1029D00046427D1C761EE81B00903AE0012F00DA8B
:1029E00001270020112F009001DD112300E03B465C
:1029F0000CAA03A910A8FFF7C2FE11993D46109832
:102A000000260E91217809070BD40E99A94200DA0D
:102A10000D4603A9012D04DD4A19203AD27F302A40
:102A200006D0B84201DA011D04DA012100910FE05D
:102A30006D1EEFE7002802DC86192D1A03E0411C09
:102A4000A94200DD0D46801B401C00900120C007FC
:102A50000B902078000705D40098A84202DB0020E4
:102A6000C043009069460020C8720B98012102AF54
:102A70000337C907884225D0022010902B201190DF
:102A80000B9800280BDA40420B902D20119006E0A5
:102A90000B98FFF721FE30317F1E0B903970109993
:102AA000481E00291090F3DC0B980028F0D11198F3
:102AB0007F1E38702088000501D5452000E0652084
:102AC0007F1E387001A8C01BC01D0B900F980028F6
:102AD00000D0012041190098C01709180B98081858
:102AE000A169081A401EA0612078C00602D42046C1
:102AF000FFF7D7FB0F98002805D06268A1689047C0
:102B0000206A401C20622078C00625D52046FFF7A9
:102B1000C8FB21E0002E07DB0E98B04204DD03A8BD
:102B20006268805DA16802E06268A1683020904719
:102B3000206A761C401C20620098401E00280090ED
:102B40000AD100F09DF8C06862680168405CA16825
:102B50009047206A401C206228466D1E0028D9DC60
:102B600007E062683878A1687F1C9047206A401CA3
:102B700020620B99481E00290B90F2DC2046FFF7DB
:102B8000A6FB032042E6000001FCFFFF104D000001
:102B9000E1DFFFFF10B54369002B02D0C046C046FD
:102BA00001E0FFF7B7FB012010BD12780146243188
:102BB0000A7000224A700122ECE711680022D24319
:102BC000E8E710B54369002B02D0C046C04601E0DB
:102BD000FFF768FC012010BD128801462431828471
:102BE0000022C2840122ECE711680022D243E8E708
:102BF00070B516460C46054600F03AF80368FF200B
:102C00000230C05C012807D0FF2C0ED8185D0028C8
:102C10000BD001202C7070BDFF33324621460833A3
:102C20001868C3182846984770BD0020C04370BD7F
:102C3000754600F0A1FBAE46050069465346C00844
:102C4000C000854618B020B5FDF716FB60BC002714
:102C50004908B6460026C0C5C0C5C0C5C0C5C0C568
:102C6000C0C5C0C5C0C5403D49008D467047000085
:102C700010B500F005F8001D10BD00BF25080000CC
:102C800000487047C4000010F8B51F4604460123F1
:102C90000068DB02032601461840072A05DB0028EE
:102CA00001D017A506E017A504E0002801D016A55D
:102CB00000E016A5102081432160A069C01E002FEE
:102CC000A06101D0401EA0612046FFF7EAFA002F64
:102CD00009D038466268A1689047206A401C20628B
:102CE000C01C206206E0206AFAE762682878A168C2
:102CF0006D1C9047761EF8D22046FFF7E8FAF8BD23
:102D00004E414E006E616E00494E4600696E66008F
:102D1000F7B516468AB0334878446C4603467C3390
:102D2000C06F5A689B680DC42E487844763003AC57
:102D30000DC80DC43720C001081837211B30FFF71C
:102D40000DFA05460C46803D1B3C02D5644201202D
:102D500000E000200027099010E0E0070CD00C20D4
:102D600020497843794432464C394118684601235A
:102D700000F054FA6B4607C364107F1C002CECD1A2
:102D8000184F7F442E3F16E0E80712D02001C019EB
:102D90000EC80691089307920068F04201D1981975
:102DA00008903246012306A903A800F037FA03ABC6
:102DB00007C36D10641C002DE6D10998002806D0C9
:102DC00032466946012303A800F07EFA05E001239C
:102DD0003246694603A800F021FA0A9B07C30DB0EA
:102DE000F0BD0000B00F0000034640000A4610B5D9
:102DF000400D0BD00121C9070F24A40200191C03A8
:102E000064082143540D2143D20207E00021012030
:102E1000F2E7D40F490021435200401E0029F8DA9E
:102E2000DB0FDB07184310BDFFB50D46144685B018
:102E30004868516800F0E8FA00910190A868A1681C
:102E400000F0E2FA02910390A868616800F0DCFAF1
:102E5000029A12188242029201D2012000E0002060
:102E6000019A0B18D2180028019202D08A4202D986
:102E700003E08A4201D2012000E0002000990818F6
:102E800000906868A16800F0BFFA029A12188242A6
:102E9000029201D2012000E00020019A0B18D21802
:102EA0000028019202D08A4202D903E08A4201D26C
:102EB000012000E00020009908180090286821688F
:102EC00040004900400849084018FA49471814E0F2
:102ED00001994000C90F08430090019802994000F1
:102EE000C90F08430190029803994000C90F084395
:102EF0000290039840007F1E039000980028E7DAB4
:102F00000898002801D0EC4E00E00026B74201DA14
:102F1000012000E00020002804902AD0F71BF806CA
:102F2000C00E15D0029B2021091A039A8B401A4328
:102F30000392029A019BC2408B401A430292019A6B
:102F4000009BC2408B4000991A430192C1400091FE
:102F50007B110DD06F460320C11A03D500218200DA
:102F6000B95003E08A008100BA587A50401EF3D568
:102F7000374603980299002800D0012001430898A1
:102F80000291002808460CD0002800D001200199A9
:102F9000019A490508430121D20AC902D2020192CD
:102FA00000E001210E9B0122D207012B02D0002B51
:102FB00003D013E0002807D120E0904204D89042CB
:102FC0000CD1019B0B4209D0019B5918019105D1ED
:102FD0000099491C009101D17F1C009200280DD05E
:102FE000102108460020C0460498002806D00F98FB
:102FF000002803D0082108460020C0462868216820
:10300000019B009A4840C10F0598C90739430EC07B
:1030100009B0F0BDFFB587B0099A089808995368C0
:103020009268406889689646002203931746944642
:10303000089A12685300099A5B08126852005208F5
:103040009A1A9E4BD4180A9A002A01D0352200E021
:10305000402206920022012315460492DB070593C5
:1030600024E0002D05D175460346039E4D1BB34158
:1030700009D375466646039B491B049D9841059BF1
:103080007519AC465F4163463B4308D0059B049EDF
:10309000DD0776082E435B080496059301E0521E77
:1030A000641EC50FED0749184041521C069B9A4209
:1030B000D7DB002D04D17546039A6B1A824101D2E9
:1030C00003200CE0039A0B466B404240134303D0AD
:1030D000014303D0012002E0022000E0002061460D
:1030E00001910021009702910A99002905D06146BB
:1030F00040020143704B019102E0800700230290DF
:103100009C4201DA012000E0002007003AD01A1B9F
:10311000D006C00E15D0029D2021019C091AC54081
:103120008C402543029C8C4000D001242543019C07
:103130000295009DC4408D4000992C430194C140EC
:10314000009154111DD06D460221002202290CD19C
:103150000320001B07E0002804DB8600AE59002E88
:1031600000D00122401C0328F5DB081B02D5880093
:103170002A5004E08000285810438A00A850491EB5
:10318000E3D51C460A98002802980CD0002800D0ED
:1031900001200199019A490508430121D20AC90277
:1031A000D202019200E00121109B0122D207012BE3
:1031B00002D0002B03D013E0002807D11FE090427B
:1031C00004D890420CD1019B0B4209D0019B5918A5
:1031D000019105D10099491C009101D1641C009214
:1031E00000280CD0102108460020C046002F06D031
:1031F0001198002803D0082108460020C0460898EE
:103200000999019A009B006809684840C10F079816
:10321000C907214382600AC00BB0F0BD00B585B07C
:10322000019300920A460146002302A8FFF7FCFD25
:1032300002A807C805B000BDFFB50A461F4685B005
:103240000799019301230091014602A8FFF7ECFDC5
:1032500002990398049ECA0F4900D20700920F22D8
:10326000490892028C1A0021002800DB0C46450018
:1032700013486D08844214D3079A002A04DA441EC6
:103280000026104DF64302E004460D460E4610217E
:1032900008460020C046002F03D004210846002025
:1032A000C0462005E90A0843009908436905F20A67
:1032B0001143ADE602C0FFFF013C0000FF3F0000EC
:1032C000FF070000FFFFFF7F00B585B0019300926C
:1032D0000A460146002302A8FFF79CFE02A807C881
:1032E000A8E7FFB50A461F4685B007990193012359
:1032F0000091014602A8FFF78DFE02990398049EF3
:10330000CA0F4900D20700920F22490892028C1A74
:103310000021002800DB0C46450011486D0884425E
:1033200014D3079A002A04DA441E00260D4DF643F2
:1033300002E004460D460E46102108460020C04615
:10334000002F03D0042108460020C0462005E90ACA
:103350000843009908436905F20A114358E6000042
:10336000FF070000FFFFFF7F10B50446C046C046C0
:103370002046FCF76FFF10BD00487047A400001006
:10338000024670B50A4392072AD11E4DEE0104C8C9
:1033900008C9541B9443344017D0D0B2D9B2401A54
:1033A0002106014310D190B299B2401A2104014381
:1033B0000AD110021902000A090A401A2102014327
:1033C00002D1100E190E401A70BD9A42DFD010BA09
:1033D00019BA884201D9012070BD0020C04370BDD8
:1033E00002780B78401C491C002A09D09A4207D168
:1033F00002780B78401C491C002A01D09A42EFD079
:10340000D01A70BD01010101F8B5040C8BB226463B
:1034100082B25E43104658430D0C370C360400212F
:103420008019164679416E43370C360480192646BA
:1034300079416E438919F8BD4900CA020243100060
:1034400000D004204A0D01D001221043044A490D46
:10345000914201D102210843012800D10520704783
:10346000FF07000030380A2801D2012070470020F1
:103470007047000010B500290AD00878002807D04E
:1034800005487844FFF77CFF002801D0002010BDDC
:103490000248784410BD0000FE080000F608000055
:1034A00010B500290AD00878002807D005487844CC
:1034B000FFF766FF002801D0002010BD02487844C5
:1034C00010BD0000EE080000E608000003B402484A
:1034D0007844844603BC604747F4FFFF0000005077
:1034E0000000015000000250000003500000005096
:1034F0000000015000000250000003500000FCFCDE
:10350000FCFC000000FCFCFCFC000000E0E0E0E053
:1035100060E0E0E0C0000000ECECECEC0000000437
:103520003CFCFCF08080F0FCFC3C04000000070F39
:103530001F1F1C181C1F1F0F070000001F1F1F1F2D
:10354000001F1F1F1F0000001F1F1F1F0000000083
:1035500000010F1F1F1F1F0F010000000080E0E08F
:10356000F0703070F0E0E080000000F0F0F0F0006B
:10357000000000000000F0F0F0F03030303030009B
:103580000000F0F0F0F03070F0F0E080000F3F3F0E
:103590007F7060707F3F3F0F0000007F7F7F7F6004
:1035A0006060600000007F7F7F7F63636363600013
:1035B00000007F7F7F7F60707F7F3F0F00000000F3
:1035C0000000004F00000007000700147F147F1464
:1035D000242A7F2A12231308646236495522500098
:1035E00005030000001C2241000041221C001408B9
:1035F0003E081408083E080800503000000808087B
:103600000808006060000020100804023E5149458F
:103610003E00427F400042615149462141454B31C5
:103620001814127F1027454545393C4A4949300155
:10363000710905033649494936064949291E0036AC
:1036400036000000563600000814224100141414FD
:10365000141400412214080201510906324979412B
:103660003E7E1111117E7F494949363E414141223A
:103670007F4141221C7F494949417F090909013E97
:103680004149497A7F0808087F00417F4100204076
:10369000413F017F081422417F404040407F020C9F
:1036A000027F7F0408107F3E4141413E7F090909A6
:1036B000063E4151215E7F09192946464949493153
:1036C00001017F01013F4040403F1F2040201F3F3C
:1036D0004038403F631408146307087008076151BD
:1036E000494543007F414100020408102000414148
:1036F0007F000402010204404040404001020400F7
:103700000020545454787F4844443838444444207A
:10371000384444487F3854545418087E090102063E
:103720004949493F7F0804047800447D4000204017
:10373000443D007F1028440000417F40007C041875
:10374000047C7C0804047838444444387C14141401
:1037500008081414187C7C080404084854545420A5
:10376000043F4440203C4040207C1C2040201C3C26
:103770004030403C44281028440C5050503C446495
:10378000544C44000836410000007F0000004136E0
:10379000080002010204023E5555412200000000CB
:1037A0000000007900001824742E24487E4942400D
:1037B0005D2222225D15167C161500007700000A96
:1037C000555555280001000100000A0D0A0408148F
:1037D0002A1422040404041C000808080001010142
:1037E0000101000205020044445F44440000040259
:1037F000017E2020103E060F7F007F001818000079
:103800000040502000000A0D0A0022142A14081754
:1038100008342A7D1708046A593048454020702929
:103820002628707028262970702A252A7072292669
:1038300029707029242970702A2D2A707E117F49E1
:10384000490E515171117C555654447C555654447F
:103850007C565556447C5554554400457E440000E2
:10386000447E450000467D460000457C45007F497A
:1038700049413E7C0A11227D384546443838444649
:103880004538384645463838464546393845444532
:103890003822140814222E5149453A3C4142403CFA
:1038A0003C4042413C3C4241423C3C4140413C0C5A
:1038B0001062110C7F1212120C403E014936205545
:1038C00056547820545655782056555678205556DB
:1038D00055782055545578205657567824547854A6
:1038E000580C5252721338555654183854565518AD
:1038F0003856555618385554551800497A40000026
:10390000487A4100004A794200004A784200314A30
:103910004E4A307A110A097030494A483030484AD4
:103920004930304A494A30304A494A31304A484A97
:103930003008082A08083864544C38384142207846
:103940003840422178384241227838424022780C6F
:103950005052513C7E141414080C5150513C1E0915
:1039600009295E081515354E384446452030484A29
:103970004920384546452030494A49207C4546453E
:10398000382050507C031F151535510E151535463E
:103990007C55565544385556551800447C40007F98
:1039A0004844404000497F44007C0812217C781044
:1039B0000A09707C0912217C78110A097038474481
:1039C0004738304B484B303E417F494938443854A2
:1039D000587C1516354878110A0910485456552058
:1039E0002048565520485556552020495655200404
:1039F000057E0504083C4822013C4245423C3842D1
:103A00004522783C4340433C38434023780C1160C6
:103A1000110C4466554C44486A5948004464554C5E
:103A20004448685A48004465564D4448695A49001C
:103A30000002010200000102010000010101000179
:103A40000202010000000100000002050200020164
:103A50000201007F05153A503E55554122181408C1
:103A6000140C444A4A515151514A4A447442414209
:103A7000747E1111117E7F494949367F020101038D
:103A8000704E414E707F4949494161514945437FDC
:103A90000808087F3E4949493E00417F41007F08B0
:103AA000142241700E010E707F020C027F7F040809
:103AB000107F635D495D633E4141413E413F013FAF
:103AC000417F09090906635549414101017F01010F
:103AD00003017E010308557F55086314081463072A
:103AE000487F48075E6101615E384448304C7C2A5B
:103AF0002A2A144438040408304B4D5930285454B1
:103B0000442000185552223E0402027C3C4A4A4A94
:103B10003C003C4020007C1028444041320C3040A6
:103B20007E2020103E1C2040201C142B2A2A6038A6
:103B300044444438443C047C4470282424180C1227
:103B400012526038444C5424043C4420003C404011
:103B5000201C18247E241844281028440C107E10A1
:103B60000C38443044380A0A4A2A1E044434140CDF
:103B7000201078040018084C4838484878484848CD
:103B800028187C08087C0828184048487840545475
:103B9000547C001800584038080808080801413DC6
:103BA000090710087C02010E0243221E42427E4297
:103BB0004222120A7F02423F02423E0A0A7F0A0A5A
:103BC000084642221E0403423E02424242427E0214
:103BD0004F221F024A4A40201C4222122A46023F1C
:103BE000424A46064840201E08464A321E0A4A3EBD
:103BF00009080E004E201E04453D0504007F0810F4
:103C00000044241F04044042424240422A122A0631
:103C100022127B16220040201F0078000204783F09
:103C200044444444024242221E0402040830320248
:103C30007F0232021222520E002A2A2A40382422FF
:103C4000207040281028060A3E4A4A4A047F04147D
:103C50000C4042427E404A4A4A4A7E040545251CA1
:103C60000F40201F007C007E40307E402010087EE8
:103C70004242427E0E0242221E424240201802046C
:103C80000102000705070000040000080000000012
:103C90000000000200010000100000000000000011
:103CA0000000000030313233343536373839414284
:103CB000434445464030580030313233343536378E
:103CC0003839616263646566403078000240000004
:103CD000000000A00000000005400000000000C837
:103CE000000000000C4000000000409C00000000AC
:103CF000194000000020BCBE00000000344000005D
:103D0000BFC91B8E00000004B5400000504BCFD04F
:103D10006607E2CF010000006C4100003E8251AA1C
:103D2000DFEEA73401000000D9420000DCB5A0E2BC
:103D30003A301F97FFFFFFFFB4450000FD25A0C8E4
:103D4000E9A3C14FFFFFFFFFFF3F0000000000801D
:103D500000000000FF3F00000000008000000000A5
:103D6000AC3E0000000000106400000004010000F0
:103D7000103F000064000010A402000020010000B9
:103D80001C00000043000000F8FFFFFF0C000000D3
:103D90000E0000000F0000002E00000010010000C7
:103DA00043000000F8FFFFFF00404040404040401B
:103DB00040404141414141404040404040404040FE
:103DC00040404040404040404005020202020202A2
:103DD00002020202020202020220202020202020F1
:103DE0002020200202020202020290909090909005
:103DF00010101010101010101010101010101010C3
:103E00001010101002020202020288888888888836
:103E10000808080808080808080808080808080822
:103E2000080808080202020240000000000000002A
:103E30000000000000000000000000000000000082
:103E40000000000000000000000000000000000072
:103E50000000000000000000000000000000000062
:103E60000000000000000000000000000000000052
:103E70000000000000000000000000000000000042
:103E80000000000000000000000000000000000032
:103E90000000000000000000000000000000000022
:103EA000000000000000000000000000001BB70040
:103EB000001BB700001BB70000000000010000005D
:103EC00000000000000000000000000000000000F2
:103ED00000000000000000000000000000000000E2
:103EE00000000000000000000000000000000000D2
:103EF00000000000000000000000000000000000C2
:103F000000000000000000000000000000000000B1
:04000005000000C136
:00000001FF
